{
	"contracts/FunSwap.sol": {
		"FunSwap": {
			"abi": [
				{
					"inputs": [
						{
							"internalType": "address",
							"name": "_token1",
							"type": "address"
						},
						{
							"internalType": "address",
							"name": "_token2",
							"type": "address"
						},
						{
							"internalType": "address",
							"name": "_partyA",
							"type": "address"
						},
						{
							"internalType": "address",
							"name": "_partyB",
							"type": "address"
						},
						{
							"internalType": "uint256",
							"name": "_amountToken1",
							"type": "uint256"
						},
						{
							"internalType": "uint256",
							"name": "_amountToken2",
							"type": "uint256"
						},
						{
							"internalType": "uint256",
							"name": "_deadline",
							"type": "uint256"
						}
					],
					"stateMutability": "nonpayable",
					"type": "constructor"
				},
				{
					"anonymous": false,
					"inputs": [
						{
							"indexed": false,
							"internalType": "uint256",
							"name": "newDeadline",
							"type": "uint256"
						}
					],
					"name": "DeadlineExtended",
					"type": "event"
				},
				{
					"anonymous": false,
					"inputs": [
						{
							"indexed": true,
							"internalType": "address",
							"name": "partyA",
							"type": "address"
						},
						{
							"indexed": true,
							"internalType": "address",
							"name": "partyB",
							"type": "address"
						}
					],
					"name": "SwapCompleted",
					"type": "event"
				},
				{
					"anonymous": false,
					"inputs": [
						{
							"indexed": true,
							"internalType": "address",
							"name": "partyA",
							"type": "address"
						},
						{
							"indexed": true,
							"internalType": "address",
							"name": "partyB",
							"type": "address"
						}
					],
					"name": "SwapExpired",
					"type": "event"
				},
				{
					"anonymous": false,
					"inputs": [
						{
							"indexed": true,
							"internalType": "address",
							"name": "partyA",
							"type": "address"
						},
						{
							"indexed": true,
							"internalType": "address",
							"name": "partyB",
							"type": "address"
						},
						{
							"indexed": false,
							"internalType": "uint256",
							"name": "amountToken1",
							"type": "uint256"
						},
						{
							"indexed": false,
							"internalType": "uint256",
							"name": "amountToken2",
							"type": "uint256"
						},
						{
							"indexed": false,
							"internalType": "uint256",
							"name": "deadline",
							"type": "uint256"
						}
					],
					"name": "SwapInitiated",
					"type": "event"
				},
				{
					"anonymous": false,
					"inputs": [
						{
							"indexed": true,
							"internalType": "address",
							"name": "token",
							"type": "address"
						},
						{
							"indexed": true,
							"internalType": "address",
							"name": "recipient",
							"type": "address"
						},
						{
							"indexed": false,
							"internalType": "uint256",
							"name": "amount",
							"type": "uint256"
						}
					],
					"name": "TokenRecovered",
					"type": "event"
				},
				{
					"stateMutability": "nonpayable",
					"type": "fallback"
				},
				{
					"inputs": [],
					"name": "amountToken1",
					"outputs": [
						{
							"internalType": "uint256",
							"name": "",
							"type": "uint256"
						}
					],
					"stateMutability": "view",
					"type": "function"
				},
				{
					"inputs": [],
					"name": "amountToken2",
					"outputs": [
						{
							"internalType": "uint256",
							"name": "",
							"type": "uint256"
						}
					],
					"stateMutability": "view",
					"type": "function"
				},
				{
					"inputs": [],
					"name": "approveSwap",
					"outputs": [],
					"stateMutability": "nonpayable",
					"type": "function"
				},
				{
					"inputs": [],
					"name": "deadline",
					"outputs": [
						{
							"internalType": "uint256",
							"name": "",
							"type": "uint256"
						}
					],
					"stateMutability": "view",
					"type": "function"
				},
				{
					"inputs": [],
					"name": "expireSwap",
					"outputs": [],
					"stateMutability": "nonpayable",
					"type": "function"
				},
				{
					"inputs": [
						{
							"internalType": "uint256",
							"name": "newDeadline",
							"type": "uint256"
						}
					],
					"name": "extendDeadline",
					"outputs": [],
					"stateMutability": "nonpayable",
					"type": "function"
				},
				{
					"inputs": [],
					"name": "gracePeriod",
					"outputs": [
						{
							"internalType": "uint256",
							"name": "",
							"type": "uint256"
						}
					],
					"stateMutability": "view",
					"type": "function"
				},
				{
					"inputs": [],
					"name": "isCompleted",
					"outputs": [
						{
							"internalType": "bool",
							"name": "",
							"type": "bool"
						}
					],
					"stateMutability": "view",
					"type": "function"
				},
				{
					"inputs": [],
					"name": "partyA",
					"outputs": [
						{
							"internalType": "address",
							"name": "",
							"type": "address"
						}
					],
					"stateMutability": "view",
					"type": "function"
				},
				{
					"inputs": [],
					"name": "partyB",
					"outputs": [
						{
							"internalType": "address",
							"name": "",
							"type": "address"
						}
					],
					"stateMutability": "view",
					"type": "function"
				},
				{
					"inputs": [
						{
							"internalType": "address",
							"name": "token",
							"type": "address"
						}
					],
					"name": "recoverTokens",
					"outputs": [],
					"stateMutability": "nonpayable",
					"type": "function"
				},
				{
					"inputs": [],
					"name": "status",
					"outputs": [
						{
							"internalType": "enum FunSwap.SwapStatus",
							"name": "",
							"type": "uint8"
						}
					],
					"stateMutability": "view",
					"type": "function"
				},
				{
					"inputs": [],
					"name": "token1",
					"outputs": [
						{
							"internalType": "address",
							"name": "",
							"type": "address"
						}
					],
					"stateMutability": "view",
					"type": "function"
				},
				{
					"inputs": [],
					"name": "token2",
					"outputs": [
						{
							"internalType": "address",
							"name": "",
							"type": "address"
						}
					],
					"stateMutability": "view",
					"type": "function"
				},
				{
					"stateMutability": "payable",
					"type": "receive"
				}
			],
			"devdoc": {
				"details": "This contract uses the ReentrancyGuard to prevent reentrancy attacks",
				"events": {
					"DeadlineExtended(uint256)": {
						"params": {
							"newDeadline": "The new deadline for the swap"
						}
					},
					"SwapCompleted(address,address)": {
						"params": {
							"partyA": "The address of party A",
							"partyB": "The address of party B"
						}
					},
					"SwapExpired(address,address)": {
						"params": {
							"partyA": "The address of party A",
							"partyB": "The address of party B"
						}
					},
					"SwapInitiated(address,address,uint256,uint256,uint256)": {
						"params": {
							"amountToken1": "The amount of Token A being swapped",
							"amountToken2": "The amount of Token B being swapped",
							"deadline": "The deadline by which the swap must be completed",
							"partyA": "The address of party A (Token A owner)",
							"partyB": "The address of party B (Token B owner)"
						}
					},
					"TokenRecovered(address,address,uint256)": {
						"params": {
							"amount": "The amount of tokens recovered",
							"recipient": "The address of the recipient who recovered the tokens",
							"token": "The address of the token recovered"
						}
					}
				},
				"kind": "dev",
				"methods": {
					"approveSwap()": {
						"details": "Ensures the swap is only completed if both tokens have been transferred to the contract"
					},
					"constructor": {
						"params": {
							"_amountToken1": "The amount of Token A to be swapped",
							"_amountToken2": "The amount of Token B to be swapped",
							"_deadline": "The deadline by which the swap must be completed",
							"_partyA": "The address of party A (owner of Token A)",
							"_partyB": "The address of party B (owner of Token B)",
							"_token1": "The address of the first token (Token A)",
							"_token2": "The address of the second token (Token B)"
						}
					},
					"extendDeadline(uint256)": {
						"params": {
							"newDeadline": "The new deadline for the swap"
						}
					},
					"recoverTokens(address)": {
						"params": {
							"token": "The address of the token to be recovered"
						}
					}
				},
				"stateVariables": {
					"flags": {
						"details": "Internal flags to track the swap state (0 = not completed, 1 = completed)"
					}
				},
				"title": "FunSwap - A simple token swapping contract between two parties",
				"version": 1
			},
			"evm": {
				"assembly": "    /* \"contracts/FunSwap.sol\":444:8773  contract FunSwap is ReentrancyGuard {... */\n  mstore(0x40, 0x80)\n    /* \"contracts/FunSwap.sol\":1237:1244  1 hours */\n  0x0e10\n    /* \"contracts/FunSwap.sol\":1208:1244  uint256 public gracePeriod = 1 hours */\n  0x08\n  sstore\n    /* \"contracts/FunSwap.sol\":5224:5799  constructor(... */\n  callvalue\n  dup1\n  iszero\n  tag_1\n  jumpi\n  0x00\n  dup1\n  revert\ntag_1:\n  pop\n  mload(0x40)\n  sub(codesize, bytecodeSize)\n  dup1\n  bytecodeSize\n  dup4\n  codecopy\n  dup2\n  dup2\n  add\n  0x40\n  mstore\n  dup2\n  add\n  swap1\n  tag_2\n  swap2\n  swap1\n  tag_3\n  jump\t// in\ntag_2:\n    /* \"@openzeppelin/contracts/security/ReentrancyGuard.sol\":1716:1717  1 */\n  0x01\n    /* \"@openzeppelin/contracts/security/ReentrancyGuard.sol\":1821:1828  _status */\n  0x00\n    /* \"@openzeppelin/contracts/security/ReentrancyGuard.sol\":1821:1843  _status = _NOT_ENTERED */\n  dup2\n  swap1\n  sstore\n  pop\n    /* \"contracts/FunSwap.sol\":5450:5457  _token1 */\n  dup7\n    /* \"contracts/FunSwap.sol\":5441:5447  token1 */\n  0x01\n  0x00\n    /* \"contracts/FunSwap.sol\":5441:5457  token1 = _token1 */\n  0x0100\n  exp\n  dup2\n  sload\n  dup2\n  0xffffffffffffffffffffffffffffffffffffffff\n  mul\n  not\n  and\n  swap1\n  dup4\n  0xffffffffffffffffffffffffffffffffffffffff\n  and\n  mul\n  or\n  swap1\n  sstore\n  pop\n    /* \"contracts/FunSwap.sol\":5476:5483  _token2 */\n  dup6\n    /* \"contracts/FunSwap.sol\":5467:5473  token2 */\n  0x02\n  0x00\n    /* \"contracts/FunSwap.sol\":5467:5483  token2 = _token2 */\n  0x0100\n  exp\n  dup2\n  sload\n  dup2\n  0xffffffffffffffffffffffffffffffffffffffff\n  mul\n  not\n  and\n  swap1\n  dup4\n  0xffffffffffffffffffffffffffffffffffffffff\n  and\n  mul\n  or\n  swap1\n  sstore\n  pop\n    /* \"contracts/FunSwap.sol\":5502:5509  _partyA */\n  dup5\n    /* \"contracts/FunSwap.sol\":5493:5499  partyA */\n  0x03\n  0x00\n    /* \"contracts/FunSwap.sol\":5493:5509  partyA = _partyA */\n  0x0100\n  exp\n  dup2\n  sload\n  dup2\n  0xffffffffffffffffffffffffffffffffffffffff\n  mul\n  not\n  and\n  swap1\n  dup4\n  0xffffffffffffffffffffffffffffffffffffffff\n  and\n  mul\n  or\n  swap1\n  sstore\n  pop\n    /* \"contracts/FunSwap.sol\":5528:5535  _partyB */\n  dup4\n    /* \"contracts/FunSwap.sol\":5519:5525  partyB */\n  0x04\n  0x00\n    /* \"contracts/FunSwap.sol\":5519:5535  partyB = _partyB */\n  0x0100\n  exp\n  dup2\n  sload\n  dup2\n  0xffffffffffffffffffffffffffffffffffffffff\n  mul\n  not\n  and\n  swap1\n  dup4\n  0xffffffffffffffffffffffffffffffffffffffff\n  and\n  mul\n  or\n  swap1\n  sstore\n  pop\n    /* \"contracts/FunSwap.sol\":5560:5573  _amountToken1 */\n  dup3\n    /* \"contracts/FunSwap.sol\":5545:5557  amountToken1 */\n  0x05\n    /* \"contracts/FunSwap.sol\":5545:5573  amountToken1 = _amountToken1 */\n  dup2\n  swap1\n  sstore\n  pop\n    /* \"contracts/FunSwap.sol\":5598:5611  _amountToken2 */\n  dup2\n    /* \"contracts/FunSwap.sol\":5583:5595  amountToken2 */\n  0x06\n    /* \"contracts/FunSwap.sol\":5583:5611  amountToken2 = _amountToken2 */\n  dup2\n  swap1\n  sstore\n  pop\n    /* \"contracts/FunSwap.sol\":5632:5641  _deadline */\n  dup1\n    /* \"contracts/FunSwap.sol\":5621:5629  deadline */\n  0x07\n    /* \"contracts/FunSwap.sol\":5621:5641  deadline = _deadline */\n  dup2\n  swap1\n  sstore\n  pop\n    /* \"contracts/FunSwap.sol\":5660:5680  SwapStatus.Initiated */\n  0x00\n    /* \"contracts/FunSwap.sol\":5651:5657  status */\n  0x09\n  0x02\n    /* \"contracts/FunSwap.sol\":5651:5680  status = SwapStatus.Initiated */\n  0x0100\n  exp\n  dup2\n  sload\n  dup2\n  0xff\n  mul\n  not\n  and\n  swap1\n  dup4\n  0x02\n  dup2\n  gt\n  iszero\n  tag_8\n  jumpi\n  tag_9\n  tag_10\n  jump\t// in\ntag_9:\ntag_8:\n  mul\n  or\n  swap1\n  sstore\n  pop\n    /* \"contracts/FunSwap.sol\":5704:5709  false */\n  0x00\n    /* \"contracts/FunSwap.sol\":5690:5701  isCompleted */\n  0x09\n  0x01\n    /* \"contracts/FunSwap.sol\":5690:5709  isCompleted = false */\n  0x0100\n  exp\n  dup2\n  sload\n  dup2\n  0xff\n  mul\n  not\n  and\n  swap1\n  dup4\n  iszero\n  iszero\n  mul\n  or\n  swap1\n  sstore\n  pop\n    /* \"contracts/FunSwap.sol\":5747:5753  partyB */\n  0x04\n  0x00\n  swap1\n  sload\n  swap1\n  0x0100\n  exp\n  swap1\n  div\n  0xffffffffffffffffffffffffffffffffffffffff\n  and\n    /* \"contracts/FunSwap.sol\":5725:5792  SwapInitiated(partyA, partyB, amountToken1, amountToken2, deadline) */\n  0xffffffffffffffffffffffffffffffffffffffff\n  and\n    /* \"contracts/FunSwap.sol\":5739:5745  partyA */\n  0x03\n  0x00\n  swap1\n  sload\n  swap1\n  0x0100\n  exp\n  swap1\n  div\n  0xffffffffffffffffffffffffffffffffffffffff\n  and\n    /* \"contracts/FunSwap.sol\":5725:5792  SwapInitiated(partyA, partyB, amountToken1, amountToken2, deadline) */\n  0xffffffffffffffffffffffffffffffffffffffff\n  and\n  0xfc3eb8351f9df30f567bb7d6d56b6d7c99971e6b5941492585c7439a895f252c\n    /* \"contracts/FunSwap.sol\":5755:5767  amountToken1 */\n  sload(0x05)\n    /* \"contracts/FunSwap.sol\":5769:5781  amountToken2 */\n  sload(0x06)\n    /* \"contracts/FunSwap.sol\":5783:5791  deadline */\n  sload(0x07)\n    /* \"contracts/FunSwap.sol\":5725:5792  SwapInitiated(partyA, partyB, amountToken1, amountToken2, deadline) */\n  mload(0x40)\n  tag_11\n  swap4\n  swap3\n  swap2\n  swap1\n  tag_12\n  jump\t// in\ntag_11:\n  mload(0x40)\n  dup1\n  swap2\n  sub\n  swap1\n  log3\n    /* \"contracts/FunSwap.sol\":5224:5799  constructor(... */\n  pop\n  pop\n  pop\n  pop\n  pop\n  pop\n  pop\n    /* \"contracts/FunSwap.sol\":444:8773  contract FunSwap is ReentrancyGuard {... */\n  jump(tag_13)\n    /* \"#utility.yul\":88:205   */\ntag_15:\n    /* \"#utility.yul\":197:198   */\n  0x00\n    /* \"#utility.yul\":194:195   */\n  dup1\n    /* \"#utility.yul\":187:199   */\n  revert\n    /* \"#utility.yul\":334:460   */\ntag_17:\n    /* \"#utility.yul\":371:378   */\n  0x00\n    /* \"#utility.yul\":411:453   */\n  0xffffffffffffffffffffffffffffffffffffffff\n    /* \"#utility.yul\":404:409   */\n  dup3\n    /* \"#utility.yul\":400:454   */\n  and\n    /* \"#utility.yul\":389:454   */\n  swap1\n  pop\n    /* \"#utility.yul\":334:460   */\n  swap2\n  swap1\n  pop\n  jump\t// out\n    /* \"#utility.yul\":466:562   */\ntag_18:\n    /* \"#utility.yul\":503:510   */\n  0x00\n    /* \"#utility.yul\":532:556   */\n  tag_31\n    /* \"#utility.yul\":550:555   */\n  dup3\n    /* \"#utility.yul\":532:556   */\n  tag_17\n  jump\t// in\ntag_31:\n    /* \"#utility.yul\":521:556   */\n  swap1\n  pop\n    /* \"#utility.yul\":466:562   */\n  swap2\n  swap1\n  pop\n  jump\t// out\n    /* \"#utility.yul\":568:690   */\ntag_19:\n    /* \"#utility.yul\":641:665   */\n  tag_33\n    /* \"#utility.yul\":659:664   */\n  dup2\n    /* \"#utility.yul\":641:665   */\n  tag_18\n  jump\t// in\ntag_33:\n    /* \"#utility.yul\":634:639   */\n  dup2\n    /* \"#utility.yul\":631:666   */\n  eq\n    /* \"#utility.yul\":621:684   */\n  tag_34\n  jumpi\n    /* \"#utility.yul\":680:681   */\n  0x00\n    /* \"#utility.yul\":677:678   */\n  dup1\n    /* \"#utility.yul\":670:682   */\n  revert\n    /* \"#utility.yul\":621:684   */\ntag_34:\n    /* \"#utility.yul\":568:690   */\n  pop\n  jump\t// out\n    /* \"#utility.yul\":696:839   */\ntag_20:\n    /* \"#utility.yul\":753:758   */\n  0x00\n    /* \"#utility.yul\":784:790   */\n  dup2\n    /* \"#utility.yul\":778:791   */\n  mload\n    /* \"#utility.yul\":769:791   */\n  swap1\n  pop\n    /* \"#utility.yul\":800:833   */\n  tag_36\n    /* \"#utility.yul\":827:832   */\n  dup2\n    /* \"#utility.yul\":800:833   */\n  tag_19\n  jump\t// in\ntag_36:\n    /* \"#utility.yul\":696:839   */\n  swap3\n  swap2\n  pop\n  pop\n  jump\t// out\n    /* \"#utility.yul\":845:922   */\ntag_21:\n    /* \"#utility.yul\":882:889   */\n  0x00\n    /* \"#utility.yul\":911:916   */\n  dup2\n    /* \"#utility.yul\":900:916   */\n  swap1\n  pop\n    /* \"#utility.yul\":845:922   */\n  swap2\n  swap1\n  pop\n  jump\t// out\n    /* \"#utility.yul\":928:1050   */\ntag_22:\n    /* \"#utility.yul\":1001:1025   */\n  tag_39\n    /* \"#utility.yul\":1019:1024   */\n  dup2\n    /* \"#utility.yul\":1001:1025   */\n  tag_21\n  jump\t// in\ntag_39:\n    /* \"#utility.yul\":994:999   */\n  dup2\n    /* \"#utility.yul\":991:1026   */\n  eq\n    /* \"#utility.yul\":981:1044   */\n  tag_40\n  jumpi\n    /* \"#utility.yul\":1040:1041   */\n  0x00\n    /* \"#utility.yul\":1037:1038   */\n  dup1\n    /* \"#utility.yul\":1030:1042   */\n  revert\n    /* \"#utility.yul\":981:1044   */\ntag_40:\n    /* \"#utility.yul\":928:1050   */\n  pop\n  jump\t// out\n    /* \"#utility.yul\":1056:1199   */\ntag_23:\n    /* \"#utility.yul\":1113:1118   */\n  0x00\n    /* \"#utility.yul\":1144:1150   */\n  dup2\n    /* \"#utility.yul\":1138:1151   */\n  mload\n    /* \"#utility.yul\":1129:1151   */\n  swap1\n  pop\n    /* \"#utility.yul\":1160:1193   */\n  tag_42\n    /* \"#utility.yul\":1187:1192   */\n  dup2\n    /* \"#utility.yul\":1160:1193   */\n  tag_22\n  jump\t// in\ntag_42:\n    /* \"#utility.yul\":1056:1199   */\n  swap3\n  swap2\n  pop\n  pop\n  jump\t// out\n    /* \"#utility.yul\":1205:2496   */\ntag_3:\n    /* \"#utility.yul\":1329:1335   */\n  0x00\n    /* \"#utility.yul\":1337:1343   */\n  dup1\n    /* \"#utility.yul\":1345:1351   */\n  0x00\n    /* \"#utility.yul\":1353:1359   */\n  dup1\n    /* \"#utility.yul\":1361:1367   */\n  0x00\n    /* \"#utility.yul\":1369:1375   */\n  dup1\n    /* \"#utility.yul\":1377:1383   */\n  0x00\n    /* \"#utility.yul\":1426:1429   */\n  0xe0\n    /* \"#utility.yul\":1414:1423   */\n  dup9\n    /* \"#utility.yul\":1405:1412   */\n  dup11\n    /* \"#utility.yul\":1401:1424   */\n  sub\n    /* \"#utility.yul\":1397:1430   */\n  slt\n    /* \"#utility.yul\":1394:1514   */\n  iszero\n  tag_44\n  jumpi\n    /* \"#utility.yul\":1433:1512   */\n  tag_45\n  tag_15\n  jump\t// in\ntag_45:\n    /* \"#utility.yul\":1394:1514   */\ntag_44:\n    /* \"#utility.yul\":1553:1554   */\n  0x00\n    /* \"#utility.yul\":1578:1642   */\n  tag_46\n    /* \"#utility.yul\":1634:1641   */\n  dup11\n    /* \"#utility.yul\":1625:1631   */\n  dup3\n    /* \"#utility.yul\":1614:1623   */\n  dup12\n    /* \"#utility.yul\":1610:1632   */\n  add\n    /* \"#utility.yul\":1578:1642   */\n  tag_20\n  jump\t// in\ntag_46:\n    /* \"#utility.yul\":1568:1642   */\n  swap8\n  pop\n    /* \"#utility.yul\":1524:1652   */\n  pop\n    /* \"#utility.yul\":1691:1693   */\n  0x20\n    /* \"#utility.yul\":1717:1781   */\n  tag_47\n    /* \"#utility.yul\":1773:1780   */\n  dup11\n    /* \"#utility.yul\":1764:1770   */\n  dup3\n    /* \"#utility.yul\":1753:1762   */\n  dup12\n    /* \"#utility.yul\":1749:1771   */\n  add\n    /* \"#utility.yul\":1717:1781   */\n  tag_20\n  jump\t// in\ntag_47:\n    /* \"#utility.yul\":1707:1781   */\n  swap7\n  pop\n    /* \"#utility.yul\":1662:1791   */\n  pop\n    /* \"#utility.yul\":1830:1832   */\n  0x40\n    /* \"#utility.yul\":1856:1920   */\n  tag_48\n    /* \"#utility.yul\":1912:1919   */\n  dup11\n    /* \"#utility.yul\":1903:1909   */\n  dup3\n    /* \"#utility.yul\":1892:1901   */\n  dup12\n    /* \"#utility.yul\":1888:1910   */\n  add\n    /* \"#utility.yul\":1856:1920   */\n  tag_20\n  jump\t// in\ntag_48:\n    /* \"#utility.yul\":1846:1920   */\n  swap6\n  pop\n    /* \"#utility.yul\":1801:1930   */\n  pop\n    /* \"#utility.yul\":1969:1971   */\n  0x60\n    /* \"#utility.yul\":1995:2059   */\n  tag_49\n    /* \"#utility.yul\":2051:2058   */\n  dup11\n    /* \"#utility.yul\":2042:2048   */\n  dup3\n    /* \"#utility.yul\":2031:2040   */\n  dup12\n    /* \"#utility.yul\":2027:2049   */\n  add\n    /* \"#utility.yul\":1995:2059   */\n  tag_20\n  jump\t// in\ntag_49:\n    /* \"#utility.yul\":1985:2059   */\n  swap5\n  pop\n    /* \"#utility.yul\":1940:2069   */\n  pop\n    /* \"#utility.yul\":2108:2111   */\n  0x80\n    /* \"#utility.yul\":2135:2199   */\n  tag_50\n    /* \"#utility.yul\":2191:2198   */\n  dup11\n    /* \"#utility.yul\":2182:2188   */\n  dup3\n    /* \"#utility.yul\":2171:2180   */\n  dup12\n    /* \"#utility.yul\":2167:2189   */\n  add\n    /* \"#utility.yul\":2135:2199   */\n  tag_23\n  jump\t// in\ntag_50:\n    /* \"#utility.yul\":2125:2199   */\n  swap4\n  pop\n    /* \"#utility.yul\":2079:2209   */\n  pop\n    /* \"#utility.yul\":2248:2251   */\n  0xa0\n    /* \"#utility.yul\":2275:2339   */\n  tag_51\n    /* \"#utility.yul\":2331:2338   */\n  dup11\n    /* \"#utility.yul\":2322:2328   */\n  dup3\n    /* \"#utility.yul\":2311:2320   */\n  dup12\n    /* \"#utility.yul\":2307:2329   */\n  add\n    /* \"#utility.yul\":2275:2339   */\n  tag_23\n  jump\t// in\ntag_51:\n    /* \"#utility.yul\":2265:2339   */\n  swap3\n  pop\n    /* \"#utility.yul\":2219:2349   */\n  pop\n    /* \"#utility.yul\":2388:2391   */\n  0xc0\n    /* \"#utility.yul\":2415:2479   */\n  tag_52\n    /* \"#utility.yul\":2471:2478   */\n  dup11\n    /* \"#utility.yul\":2462:2468   */\n  dup3\n    /* \"#utility.yul\":2451:2460   */\n  dup12\n    /* \"#utility.yul\":2447:2469   */\n  add\n    /* \"#utility.yul\":2415:2479   */\n  tag_23\n  jump\t// in\ntag_52:\n    /* \"#utility.yul\":2405:2479   */\n  swap2\n  pop\n    /* \"#utility.yul\":2359:2489   */\n  pop\n    /* \"#utility.yul\":1205:2496   */\n  swap3\n  swap6\n  swap9\n  swap2\n  swap5\n  swap8\n  pop\n  swap3\n  swap6\n  pop\n  jump\t// out\n    /* \"#utility.yul\":2502:2682   */\ntag_10:\n    /* \"#utility.yul\":2550:2627   */\n  0x4e487b7100000000000000000000000000000000000000000000000000000000\n    /* \"#utility.yul\":2547:2548   */\n  0x00\n    /* \"#utility.yul\":2540:2628   */\n  mstore\n    /* \"#utility.yul\":2647:2651   */\n  0x21\n    /* \"#utility.yul\":2644:2645   */\n  0x04\n    /* \"#utility.yul\":2637:2652   */\n  mstore\n    /* \"#utility.yul\":2671:2675   */\n  0x24\n    /* \"#utility.yul\":2668:2669   */\n  0x00\n    /* \"#utility.yul\":2661:2676   */\n  revert\n    /* \"#utility.yul\":2688:2806   */\ntag_24:\n    /* \"#utility.yul\":2775:2799   */\n  tag_55\n    /* \"#utility.yul\":2793:2798   */\n  dup2\n    /* \"#utility.yul\":2775:2799   */\n  tag_21\n  jump\t// in\ntag_55:\n    /* \"#utility.yul\":2770:2773   */\n  dup3\n    /* \"#utility.yul\":2763:2800   */\n  mstore\n    /* \"#utility.yul\":2688:2806   */\n  pop\n  pop\n  jump\t// out\n    /* \"#utility.yul\":2812:3254   */\ntag_12:\n    /* \"#utility.yul\":2961:2965   */\n  0x00\n    /* \"#utility.yul\":2999:3001   */\n  0x60\n    /* \"#utility.yul\":2988:2997   */\n  dup3\n    /* \"#utility.yul\":2984:3002   */\n  add\n    /* \"#utility.yul\":2976:3002   */\n  swap1\n  pop\n    /* \"#utility.yul\":3012:3083   */\n  tag_57\n    /* \"#utility.yul\":3080:3081   */\n  0x00\n    /* \"#utility.yul\":3069:3078   */\n  dup4\n    /* \"#utility.yul\":3065:3082   */\n  add\n    /* \"#utility.yul\":3056:3062   */\n  dup7\n    /* \"#utility.yul\":3012:3083   */\n  tag_24\n  jump\t// in\ntag_57:\n    /* \"#utility.yul\":3093:3165   */\n  tag_58\n    /* \"#utility.yul\":3161:3163   */\n  0x20\n    /* \"#utility.yul\":3150:3159   */\n  dup4\n    /* \"#utility.yul\":3146:3164   */\n  add\n    /* \"#utility.yul\":3137:3143   */\n  dup6\n    /* \"#utility.yul\":3093:3165   */\n  tag_24\n  jump\t// in\ntag_58:\n    /* \"#utility.yul\":3175:3247   */\n  tag_59\n    /* \"#utility.yul\":3243:3245   */\n  0x40\n    /* \"#utility.yul\":3232:3241   */\n  dup4\n    /* \"#utility.yul\":3228:3246   */\n  add\n    /* \"#utility.yul\":3219:3225   */\n  dup5\n    /* \"#utility.yul\":3175:3247   */\n  tag_24\n  jump\t// in\ntag_59:\n    /* \"#utility.yul\":2812:3254   */\n  swap5\n  swap4\n  pop\n  pop\n  pop\n  pop\n  jump\t// out\n    /* \"contracts/FunSwap.sol\":444:8773  contract FunSwap is ReentrancyGuard {... */\ntag_13:\n  dataSize(sub_0)\n  dup1\n  dataOffset(sub_0)\n  0x00\n  codecopy\n  0x00\n  return\nstop\n\nsub_0: assembly {\n        /* \"contracts/FunSwap.sol\":444:8773  contract FunSwap is ReentrancyGuard {... */\n      mstore(0x40, 0x80)\n      jumpi(tag_1, lt(calldatasize, 0x04))\n      shr(0xe0, calldataload(0x00))\n      dup1\n      0x389b7533\n      gt\n      tag_17\n      jumpi\n      dup1\n      0xb17242b5\n      gt\n      tag_18\n      jumpi\n      dup1\n      0xb17242b5\n      eq\n      tag_13\n      jumpi\n      dup1\n      0xd21220a7\n      eq\n      tag_14\n      jumpi\n      dup1\n      0xee8c4aca\n      eq\n      tag_15\n      jumpi\n      dup1\n      0xfa391c64\n      eq\n      tag_16\n      jumpi\n      jump(tag_2)\n    tag_18:\n      dup1\n      0x389b7533\n      eq\n      tag_10\n      jumpi\n      dup1\n      0x9b18182a\n      eq\n      tag_11\n      jumpi\n      dup1\n      0xa06db7dc\n      eq\n      tag_12\n      jumpi\n      jump(tag_2)\n    tag_17:\n      dup1\n      0x200d2ed2\n      gt\n      tag_19\n      jumpi\n      dup1\n      0x200d2ed2\n      eq\n      tag_6\n      jumpi\n      dup1\n      0x25be124e\n      eq\n      tag_7\n      jumpi\n      dup1\n      0x29040113\n      eq\n      tag_8\n      jumpi\n      dup1\n      0x29dcb0cf\n      eq\n      tag_9\n      jumpi\n      jump(tag_2)\n    tag_19:\n      dup1\n      0x10e1d8ca\n      eq\n      tag_3\n      jumpi\n      dup1\n      0x16114acd\n      eq\n      tag_4\n      jumpi\n      dup1\n      0x1ae1661d\n      eq\n      tag_5\n      jumpi\n      jump(tag_2)\n    tag_1:\n      jumpi(tag_2, calldatasize)\n      stop\n    tag_2:\n      callvalue\n      dup1\n      iszero\n      tag_22\n      jumpi\n      0x00\n      dup1\n      revert\n    tag_22:\n      pop\n        /* \"contracts/FunSwap.sol\":4625:4659  revert(\"No ETH transfers allowed\") */\n      mload(0x40)\n      0x08c379a000000000000000000000000000000000000000000000000000000000\n      dup2\n      mstore\n      0x04\n      add\n      tag_25\n      swap1\n      tag_26\n      jump\t// in\n    tag_25:\n      mload(0x40)\n      dup1\n      swap2\n      sub\n      swap1\n      revert\n        /* \"contracts/FunSwap.sol\":739:760  address public partyA */\n    tag_3:\n      callvalue\n      dup1\n      iszero\n      tag_27\n      jumpi\n      0x00\n      dup1\n      revert\n    tag_27:\n      pop\n      tag_28\n      tag_29\n      jump\t// in\n    tag_28:\n      mload(0x40)\n      tag_30\n      swap2\n      swap1\n      tag_31\n      jump\t// in\n    tag_30:\n      mload(0x40)\n      dup1\n      swap2\n      sub\n      swap1\n      return\n        /* \"contracts/FunSwap.sol\":7183:7874  function recoverTokens(address token) external onlyAfterDeadline onlyIfNotCompleted nonReentrant {... */\n    tag_4:\n      callvalue\n      dup1\n      iszero\n      tag_32\n      jumpi\n      0x00\n      dup1\n      revert\n    tag_32:\n      pop\n      tag_33\n      0x04\n      dup1\n      calldatasize\n      sub\n      dup2\n      add\n      swap1\n      tag_34\n      swap2\n      swap1\n      tag_35\n      jump\t// in\n    tag_34:\n      tag_36\n      jump\t// in\n    tag_33:\n      stop\n        /* \"contracts/FunSwap.sol\":991:1018  uint256 public amountToken2 */\n    tag_5:\n      callvalue\n      dup1\n      iszero\n      tag_37\n      jumpi\n      0x00\n      dup1\n      revert\n    tag_37:\n      pop\n      tag_38\n      tag_39\n      jump\t// in\n    tag_38:\n      mload(0x40)\n      tag_40\n      swap2\n      swap1\n      tag_41\n      jump\t// in\n    tag_40:\n      mload(0x40)\n      dup1\n      swap2\n      sub\n      swap1\n      return\n        /* \"contracts/FunSwap.sol\":1573:1597  SwapStatus public status */\n    tag_6:\n      callvalue\n      dup1\n      iszero\n      tag_42\n      jumpi\n      0x00\n      dup1\n      revert\n    tag_42:\n      pop\n      tag_43\n      tag_44\n      jump\t// in\n    tag_43:\n      mload(0x40)\n      tag_45\n      swap2\n      swap1\n      tag_46\n      jump\t// in\n    tag_45:\n      mload(0x40)\n      dup1\n      swap2\n      sub\n      swap1\n      return\n        /* \"contracts/FunSwap.sol\":653:674  address public token2 */\n    tag_7:\n      callvalue\n      dup1\n      iszero\n      tag_47\n      jumpi\n      0x00\n      dup1\n      revert\n    tag_47:\n      pop\n      tag_48\n      tag_49\n      jump\t// in\n    tag_48:\n      mload(0x40)\n      tag_50\n      swap2\n      swap1\n      tag_31\n      jump\t// in\n    tag_50:\n      mload(0x40)\n      dup1\n      swap2\n      sub\n      swap1\n      return\n        /* \"contracts/FunSwap.sol\":825:846  address public partyB */\n    tag_8:\n      callvalue\n      dup1\n      iszero\n      tag_51\n      jumpi\n      0x00\n      dup1\n      revert\n    tag_51:\n      pop\n      tag_52\n      tag_53\n      jump\t// in\n    tag_52:\n      mload(0x40)\n      tag_54\n      swap2\n      swap1\n      tag_31\n      jump\t// in\n    tag_54:\n      mload(0x40)\n      dup1\n      swap2\n      sub\n      swap1\n      return\n        /* \"contracts/FunSwap.sol\":1090:1113  uint256 public deadline */\n    tag_9:\n      callvalue\n      dup1\n      iszero\n      tag_55\n      jumpi\n      0x00\n      dup1\n      revert\n    tag_55:\n      pop\n      tag_56\n      tag_57\n      jump\t// in\n    tag_56:\n      mload(0x40)\n      tag_58\n      swap2\n      swap1\n      tag_41\n      jump\t// in\n    tag_58:\n      mload(0x40)\n      dup1\n      swap2\n      sub\n      swap1\n      return\n        /* \"contracts/FunSwap.sol\":7987:8247  function extendDeadline(uint256 newDeadline) external onlyPartyA onlyBeforeDeadline {... */\n    tag_10:\n      callvalue\n      dup1\n      iszero\n      tag_59\n      jumpi\n      0x00\n      dup1\n      revert\n    tag_59:\n      pop\n      tag_60\n      0x04\n      dup1\n      calldatasize\n      sub\n      dup2\n      add\n      swap1\n      tag_61\n      swap2\n      swap1\n      tag_62\n      jump\t// in\n    tag_61:\n      tag_63\n      jump\t// in\n    tag_60:\n      stop\n        /* \"contracts/FunSwap.sol\":5970:6717  function approveSwap() external onlyBeforeDeadline onlyIfNotCompleted nonReentrant {... */\n    tag_11:\n      callvalue\n      dup1\n      iszero\n      tag_64\n      jumpi\n      0x00\n      dup1\n      revert\n    tag_64:\n      pop\n      tag_65\n      tag_66\n      jump\t// in\n    tag_65:\n      stop\n        /* \"contracts/FunSwap.sol\":1208:1244  uint256 public gracePeriod = 1 hours */\n    tag_12:\n      callvalue\n      dup1\n      iszero\n      tag_67\n      jumpi\n      0x00\n      dup1\n      revert\n    tag_67:\n      pop\n      tag_68\n      tag_69\n      jump\t// in\n    tag_68:\n      mload(0x40)\n      tag_70\n      swap2\n      swap1\n      tag_41\n      jump\t// in\n    tag_70:\n      mload(0x40)\n      dup1\n      swap2\n      sub\n      swap1\n      return\n        /* \"contracts/FunSwap.sol\":6824:7060  function expireSwap() external onlyAfterDeadline onlyBeforeGracePeriod onlyIfNotCompleted nonReentrant {... */\n    tag_13:\n      callvalue\n      dup1\n      iszero\n      tag_71\n      jumpi\n      0x00\n      dup1\n      revert\n    tag_71:\n      pop\n      tag_72\n      tag_73\n      jump\t// in\n    tag_72:\n      stop\n        /* \"contracts/FunSwap.sol\":555:576  address public token1 */\n    tag_14:\n      callvalue\n      dup1\n      iszero\n      tag_74\n      jumpi\n      0x00\n      dup1\n      revert\n    tag_74:\n      pop\n      tag_75\n      tag_76\n      jump\t// in\n    tag_75:\n      mload(0x40)\n      tag_77\n      swap2\n      swap1\n      tag_31\n      jump\t// in\n    tag_77:\n      mload(0x40)\n      dup1\n      swap2\n      sub\n      swap1\n      return\n        /* \"contracts/FunSwap.sol\":905:932  uint256 public amountToken1 */\n    tag_15:\n      callvalue\n      dup1\n      iszero\n      tag_78\n      jumpi\n      0x00\n      dup1\n      revert\n    tag_78:\n      pop\n      tag_79\n      tag_80\n      jump\t// in\n    tag_79:\n      mload(0x40)\n      tag_81\n      swap2\n      swap1\n      tag_41\n      jump\t// in\n    tag_81:\n      mload(0x40)\n      dup1\n      swap2\n      sub\n      swap1\n      return\n        /* \"contracts/FunSwap.sol\":1433:1456  bool public isCompleted */\n    tag_16:\n      callvalue\n      dup1\n      iszero\n      tag_82\n      jumpi\n      0x00\n      dup1\n      revert\n    tag_82:\n      pop\n      tag_83\n      tag_84\n      jump\t// in\n    tag_83:\n      mload(0x40)\n      tag_85\n      swap2\n      swap1\n      tag_86\n      jump\t// in\n    tag_85:\n      mload(0x40)\n      dup1\n      swap2\n      sub\n      swap1\n      return\n        /* \"contracts/FunSwap.sol\":739:760  address public partyA */\n    tag_29:\n      0x03\n      0x00\n      swap1\n      sload\n      swap1\n      0x0100\n      exp\n      swap1\n      div\n      0xffffffffffffffffffffffffffffffffffffffff\n      and\n      dup2\n      jump\t// out\n        /* \"contracts/FunSwap.sol\":7183:7874  function recoverTokens(address token) external onlyAfterDeadline onlyIfNotCompleted nonReentrant {... */\n    tag_36:\n        /* \"contracts/FunSwap.sol\":3954:3962  deadline */\n      sload(0x07)\n        /* \"contracts/FunSwap.sol\":3935:3950  block.timestamp */\n      timestamp\n        /* \"contracts/FunSwap.sol\":3935:3962  block.timestamp >= deadline */\n      lt\n      iszero\n        /* \"contracts/FunSwap.sol\":3927:3992  require(block.timestamp >= deadline, \"Swap deadline not reached\") */\n      tag_88\n      jumpi\n      mload(0x40)\n      0x08c379a000000000000000000000000000000000000000000000000000000000\n      dup2\n      mstore\n      0x04\n      add\n      tag_89\n      swap1\n      tag_90\n      jump\t// in\n    tag_89:\n      mload(0x40)\n      dup1\n      swap2\n      sub\n      swap1\n      revert\n    tag_88:\n        /* \"contracts/FunSwap.sol\":4164:4165  0 */\n      0x00\n        /* \"contracts/FunSwap.sol\":4155:4160  flags */\n      0x09\n      0x00\n      swap1\n      sload\n      swap1\n      0x0100\n      exp\n      swap1\n      div\n      0xff\n      and\n        /* \"contracts/FunSwap.sol\":4155:4165  flags == 0 */\n      0xff\n      and\n      eq\n        /* \"contracts/FunSwap.sol\":4147:4192  require(flags == 0, \"Swap already completed\") */\n      tag_92\n      jumpi\n      mload(0x40)\n      0x08c379a000000000000000000000000000000000000000000000000000000000\n      dup2\n      mstore\n      0x04\n      add\n      tag_93\n      swap1\n      tag_94\n      jump\t// in\n    tag_93:\n      mload(0x40)\n      dup1\n      swap2\n      sub\n      swap1\n      revert\n    tag_92:\n        /* \"@openzeppelin/contracts/security/ReentrancyGuard.sol\":2261:2282  _nonReentrantBefore() */\n      tag_96\n        /* \"@openzeppelin/contracts/security/ReentrancyGuard.sol\":2261:2280  _nonReentrantBefore */\n      tag_97\n        /* \"@openzeppelin/contracts/security/ReentrancyGuard.sol\":2261:2282  _nonReentrantBefore() */\n      jump\t// in\n    tag_96:\n        /* \"contracts/FunSwap.sol\":7308:7326  SwapStatus.Expired */\n      0x02\n        /* \"contracts/FunSwap.sol\":7298:7326  status == SwapStatus.Expired */\n      dup1\n      dup2\n      gt\n      iszero\n      tag_99\n      jumpi\n      tag_100\n      tag_101\n      jump\t// in\n    tag_100:\n    tag_99:\n        /* \"contracts/FunSwap.sol\":7298:7304  status */\n      0x09\n      0x02\n      swap1\n      sload\n      swap1\n      0x0100\n      exp\n      swap1\n      div\n      0xff\n      and\n        /* \"contracts/FunSwap.sol\":7298:7326  status == SwapStatus.Expired */\n      0x02\n      dup2\n      gt\n      iszero\n      tag_102\n      jumpi\n      tag_103\n      tag_101\n      jump\t// in\n    tag_103:\n    tag_102:\n      eq\n        /* \"contracts/FunSwap.sol\":7290:7347  require(status == SwapStatus.Expired, \"Swap not expired\") */\n      tag_104\n      jumpi\n      mload(0x40)\n      0x08c379a000000000000000000000000000000000000000000000000000000000\n      dup2\n      mstore\n      0x04\n      add\n      tag_105\n      swap1\n      tag_106\n      jump\t// in\n    tag_105:\n      mload(0x40)\n      dup1\n      swap2\n      sub\n      swap1\n      revert\n    tag_104:\n        /* \"contracts/FunSwap.sol\":7374:7380  token1 */\n      0x01\n      0x00\n      swap1\n      sload\n      swap1\n      0x0100\n      exp\n      swap1\n      div\n      0xffffffffffffffffffffffffffffffffffffffff\n      and\n        /* \"contracts/FunSwap.sol\":7365:7380  token == token1 */\n      0xffffffffffffffffffffffffffffffffffffffff\n      and\n        /* \"contracts/FunSwap.sol\":7365:7370  token */\n      dup2\n        /* \"contracts/FunSwap.sol\":7365:7380  token == token1 */\n      0xffffffffffffffffffffffffffffffffffffffff\n      and\n      eq\n        /* \"contracts/FunSwap.sol\":7365:7399  token == token1 || token == token2 */\n      dup1\n      tag_107\n      jumpi\n      pop\n        /* \"contracts/FunSwap.sol\":7393:7399  token2 */\n      0x02\n      0x00\n      swap1\n      sload\n      swap1\n      0x0100\n      exp\n      swap1\n      div\n      0xffffffffffffffffffffffffffffffffffffffff\n      and\n        /* \"contracts/FunSwap.sol\":7384:7399  token == token2 */\n      0xffffffffffffffffffffffffffffffffffffffff\n      and\n        /* \"contracts/FunSwap.sol\":7384:7389  token */\n      dup2\n        /* \"contracts/FunSwap.sol\":7384:7399  token == token2 */\n      0xffffffffffffffffffffffffffffffffffffffff\n      and\n      eq\n        /* \"contracts/FunSwap.sol\":7365:7399  token == token1 || token == token2 */\n    tag_107:\n        /* \"contracts/FunSwap.sol\":7357:7430  require(token == token1 || token == token2, \"Invalid token for recovery\") */\n      tag_108\n      jumpi\n      mload(0x40)\n      0x08c379a000000000000000000000000000000000000000000000000000000000\n      dup2\n      mstore\n      0x04\n      add\n      tag_109\n      swap1\n      tag_110\n      jump\t// in\n    tag_109:\n      mload(0x40)\n      dup1\n      swap2\n      sub\n      swap1\n      revert\n    tag_108:\n        /* \"contracts/FunSwap.sol\":7441:7456  uint256 balance */\n      0x00\n        /* \"contracts/FunSwap.sol\":7466:7471  token */\n      dup2\n        /* \"contracts/FunSwap.sol\":7459:7482  IERC20(token).balanceOf */\n      0xffffffffffffffffffffffffffffffffffffffff\n      and\n      0x70a08231\n        /* \"contracts/FunSwap.sol\":7491:7495  this */\n      address\n        /* \"contracts/FunSwap.sol\":7459:7497  IERC20(token).balanceOf(address(this)) */\n      mload(0x40)\n      dup3\n      0xffffffff\n      and\n      0xe0\n      shl\n      dup2\n      mstore\n      0x04\n      add\n      tag_111\n      swap2\n      swap1\n      tag_31\n      jump\t// in\n    tag_111:\n      0x20\n      mload(0x40)\n      dup1\n      dup4\n      sub\n      dup2\n      dup7\n      gas\n      staticcall\n      iszero\n      dup1\n      iszero\n      tag_113\n      jumpi\n      returndatasize\n      0x00\n      dup1\n      returndatacopy\n      revert(0x00, returndatasize)\n    tag_113:\n      pop\n      pop\n      pop\n      pop\n      mload(0x40)\n      returndatasize\n      not(0x1f)\n      0x1f\n      dup3\n      add\n      and\n      dup3\n      add\n      dup1\n      0x40\n      mstore\n      pop\n      dup2\n      add\n      swap1\n      tag_114\n      swap2\n      swap1\n      tag_115\n      jump\t// in\n    tag_114:\n        /* \"contracts/FunSwap.sol\":7441:7497  uint256 balance = IERC20(token).balanceOf(address(this)) */\n      swap1\n      pop\n        /* \"contracts/FunSwap.sol\":7525:7526  0 */\n      0x00\n        /* \"contracts/FunSwap.sol\":7515:7522  balance */\n      dup2\n        /* \"contracts/FunSwap.sol\":7515:7526  balance > 0 */\n      gt\n        /* \"contracts/FunSwap.sol\":7507:7551  require(balance > 0, \"No tokens to recover\") */\n      tag_116\n      jumpi\n      mload(0x40)\n      0x08c379a000000000000000000000000000000000000000000000000000000000\n      dup2\n      mstore\n      0x04\n      add\n      tag_117\n      swap1\n      tag_118\n      jump\t// in\n    tag_117:\n      mload(0x40)\n      dup1\n      swap2\n      sub\n      swap1\n      revert\n    tag_116:\n        /* \"contracts/FunSwap.sol\":7575:7581  token1 */\n      0x01\n      0x00\n      swap1\n      sload\n      swap1\n      0x0100\n      exp\n      swap1\n      div\n      0xffffffffffffffffffffffffffffffffffffffff\n      and\n        /* \"contracts/FunSwap.sol\":7566:7581  token == token1 */\n      0xffffffffffffffffffffffffffffffffffffffff\n      and\n        /* \"contracts/FunSwap.sol\":7566:7571  token */\n      dup3\n        /* \"contracts/FunSwap.sol\":7566:7581  token == token1 */\n      0xffffffffffffffffffffffffffffffffffffffff\n      and\n      sub\n        /* \"contracts/FunSwap.sol\":7562:7810  if (token == token1) {... */\n      tag_119\n      jumpi\n        /* \"contracts/FunSwap.sol\":7612:7618  token1 */\n      0x01\n      0x00\n      swap1\n      sload\n      swap1\n      0x0100\n      exp\n      swap1\n      div\n      0xffffffffffffffffffffffffffffffffffffffff\n      and\n        /* \"contracts/FunSwap.sol\":7605:7628  IERC20(token1).transfer */\n      0xffffffffffffffffffffffffffffffffffffffff\n      and\n      0xa9059cbb\n        /* \"contracts/FunSwap.sol\":7629:7635  partyA */\n      0x03\n      0x00\n      swap1\n      sload\n      swap1\n      0x0100\n      exp\n      swap1\n      div\n      0xffffffffffffffffffffffffffffffffffffffff\n      and\n        /* \"contracts/FunSwap.sol\":7637:7644  balance */\n      dup4\n        /* \"contracts/FunSwap.sol\":7605:7645  IERC20(token1).transfer(partyA, balance) */\n      mload(0x40)\n      dup4\n      0xffffffff\n      and\n      0xe0\n      shl\n      dup2\n      mstore\n      0x04\n      add\n      tag_120\n      swap3\n      swap2\n      swap1\n      tag_121\n      jump\t// in\n    tag_120:\n      0x20\n      mload(0x40)\n      dup1\n      dup4\n      sub\n      dup2\n      0x00\n      dup8\n      gas\n      call\n      iszero\n      dup1\n      iszero\n      tag_123\n      jumpi\n      returndatasize\n      0x00\n      dup1\n      returndatacopy\n      revert(0x00, returndatasize)\n    tag_123:\n      pop\n      pop\n      pop\n      pop\n      mload(0x40)\n      returndatasize\n      not(0x1f)\n      0x1f\n      dup3\n      add\n      and\n      dup3\n      add\n      dup1\n      0x40\n      mstore\n      pop\n      dup2\n      add\n      swap1\n      tag_124\n      swap2\n      swap1\n      tag_125\n      jump\t// in\n    tag_124:\n        /* \"contracts/FunSwap.sol\":7597:7672  require(IERC20(token1).transfer(partyA, balance), \"Token1 transfer failed\") */\n      tag_126\n      jumpi\n      mload(0x40)\n      0x08c379a000000000000000000000000000000000000000000000000000000000\n      dup2\n      mstore\n      0x04\n      add\n      tag_127\n      swap1\n      tag_128\n      jump\t// in\n    tag_127:\n      mload(0x40)\n      dup1\n      swap2\n      sub\n      swap1\n      revert\n    tag_126:\n        /* \"contracts/FunSwap.sol\":7562:7810  if (token == token1) {... */\n      jump(tag_129)\n    tag_119:\n        /* \"contracts/FunSwap.sol\":7702:7708  token2 */\n      0x02\n      0x00\n      swap1\n      sload\n      swap1\n      0x0100\n      exp\n      swap1\n      div\n      0xffffffffffffffffffffffffffffffffffffffff\n      and\n        /* \"contracts/FunSwap.sol\":7693:7708  token == token2 */\n      0xffffffffffffffffffffffffffffffffffffffff\n      and\n        /* \"contracts/FunSwap.sol\":7693:7698  token */\n      dup3\n        /* \"contracts/FunSwap.sol\":7693:7708  token == token2 */\n      0xffffffffffffffffffffffffffffffffffffffff\n      and\n      sub\n        /* \"contracts/FunSwap.sol\":7689:7810  if (token == token2) {... */\n      tag_130\n      jumpi\n        /* \"contracts/FunSwap.sol\":7739:7745  token2 */\n      0x02\n      0x00\n      swap1\n      sload\n      swap1\n      0x0100\n      exp\n      swap1\n      div\n      0xffffffffffffffffffffffffffffffffffffffff\n      and\n        /* \"contracts/FunSwap.sol\":7732:7755  IERC20(token2).transfer */\n      0xffffffffffffffffffffffffffffffffffffffff\n      and\n      0xa9059cbb\n        /* \"contracts/FunSwap.sol\":7756:7762  partyB */\n      0x04\n      0x00\n      swap1\n      sload\n      swap1\n      0x0100\n      exp\n      swap1\n      div\n      0xffffffffffffffffffffffffffffffffffffffff\n      and\n        /* \"contracts/FunSwap.sol\":7764:7771  balance */\n      dup4\n        /* \"contracts/FunSwap.sol\":7732:7772  IERC20(token2).transfer(partyB, balance) */\n      mload(0x40)\n      dup4\n      0xffffffff\n      and\n      0xe0\n      shl\n      dup2\n      mstore\n      0x04\n      add\n      tag_131\n      swap3\n      swap2\n      swap1\n      tag_121\n      jump\t// in\n    tag_131:\n      0x20\n      mload(0x40)\n      dup1\n      dup4\n      sub\n      dup2\n      0x00\n      dup8\n      gas\n      call\n      iszero\n      dup1\n      iszero\n      tag_133\n      jumpi\n      returndatasize\n      0x00\n      dup1\n      returndatacopy\n      revert(0x00, returndatasize)\n    tag_133:\n      pop\n      pop\n      pop\n      pop\n      mload(0x40)\n      returndatasize\n      not(0x1f)\n      0x1f\n      dup3\n      add\n      and\n      dup3\n      add\n      dup1\n      0x40\n      mstore\n      pop\n      dup2\n      add\n      swap1\n      tag_134\n      swap2\n      swap1\n      tag_125\n      jump\t// in\n    tag_134:\n        /* \"contracts/FunSwap.sol\":7724:7799  require(IERC20(token2).transfer(partyB, balance), \"Token2 transfer failed\") */\n      tag_135\n      jumpi\n      mload(0x40)\n      0x08c379a000000000000000000000000000000000000000000000000000000000\n      dup2\n      mstore\n      0x04\n      add\n      tag_136\n      swap1\n      tag_137\n      jump\t// in\n    tag_136:\n      mload(0x40)\n      dup1\n      swap2\n      sub\n      swap1\n      revert\n    tag_135:\n        /* \"contracts/FunSwap.sol\":7689:7810  if (token == token2) {... */\n    tag_130:\n        /* \"contracts/FunSwap.sol\":7562:7810  if (token == token1) {... */\n    tag_129:\n        /* \"contracts/FunSwap.sol\":7847:7857  msg.sender */\n      caller\n        /* \"contracts/FunSwap.sol\":7825:7867  TokenRecovered(token, msg.sender, balance) */\n      0xffffffffffffffffffffffffffffffffffffffff\n      and\n        /* \"contracts/FunSwap.sol\":7840:7845  token */\n      dup3\n        /* \"contracts/FunSwap.sol\":7825:7867  TokenRecovered(token, msg.sender, balance) */\n      0xffffffffffffffffffffffffffffffffffffffff\n      and\n      0x879f92dded0f26b83c3e00b12e0395dc72cfc3077343d1854ed6988edd1f9096\n        /* \"contracts/FunSwap.sol\":7859:7866  balance */\n      dup4\n        /* \"contracts/FunSwap.sol\":7825:7867  TokenRecovered(token, msg.sender, balance) */\n      mload(0x40)\n      tag_138\n      swap2\n      swap1\n      tag_41\n      jump\t// in\n    tag_138:\n      mload(0x40)\n      dup1\n      swap2\n      sub\n      swap1\n      log3\n        /* \"contracts/FunSwap.sol\":7280:7874  {... */\n      pop\n        /* \"@openzeppelin/contracts/security/ReentrancyGuard.sol\":2303:2323  _nonReentrantAfter() */\n      tag_139\n        /* \"@openzeppelin/contracts/security/ReentrancyGuard.sol\":2303:2321  _nonReentrantAfter */\n      tag_140\n        /* \"@openzeppelin/contracts/security/ReentrancyGuard.sol\":2303:2323  _nonReentrantAfter() */\n      jump\t// in\n    tag_139:\n        /* \"contracts/FunSwap.sol\":7183:7874  function recoverTokens(address token) external onlyAfterDeadline onlyIfNotCompleted nonReentrant {... */\n      pop\n      jump\t// out\n        /* \"contracts/FunSwap.sol\":991:1018  uint256 public amountToken2 */\n    tag_39:\n      sload(0x06)\n      dup2\n      jump\t// out\n        /* \"contracts/FunSwap.sol\":1573:1597  SwapStatus public status */\n    tag_44:\n      0x09\n      0x02\n      swap1\n      sload\n      swap1\n      0x0100\n      exp\n      swap1\n      div\n      0xff\n      and\n      dup2\n      jump\t// out\n        /* \"contracts/FunSwap.sol\":653:674  address public token2 */\n    tag_49:\n      0x02\n      0x00\n      swap1\n      sload\n      swap1\n      0x0100\n      exp\n      swap1\n      div\n      0xffffffffffffffffffffffffffffffffffffffff\n      and\n      dup2\n      jump\t// out\n        /* \"contracts/FunSwap.sol\":825:846  address public partyB */\n    tag_53:\n      0x04\n      0x00\n      swap1\n      sload\n      swap1\n      0x0100\n      exp\n      swap1\n      div\n      0xffffffffffffffffffffffffffffffffffffffff\n      and\n      dup2\n      jump\t// out\n        /* \"contracts/FunSwap.sol\":1090:1113  uint256 public deadline */\n    tag_57:\n      sload(0x07)\n      dup2\n      jump\t// out\n        /* \"contracts/FunSwap.sol\":7987:8247  function extendDeadline(uint256 newDeadline) external onlyPartyA onlyBeforeDeadline {... */\n    tag_63:\n        /* \"contracts/FunSwap.sol\":3164:3170  partyA */\n      0x03\n      0x00\n      swap1\n      sload\n      swap1\n      0x0100\n      exp\n      swap1\n      div\n      0xffffffffffffffffffffffffffffffffffffffff\n      and\n        /* \"contracts/FunSwap.sol\":3150:3170  msg.sender == partyA */\n      0xffffffffffffffffffffffffffffffffffffffff\n      and\n        /* \"contracts/FunSwap.sol\":3150:3160  msg.sender */\n      caller\n        /* \"contracts/FunSwap.sol\":3150:3170  msg.sender == partyA */\n      0xffffffffffffffffffffffffffffffffffffffff\n      and\n      eq\n        /* \"contracts/FunSwap.sol\":3142:3189  require(msg.sender == partyA, \"Not authorized\") */\n      tag_142\n      jumpi\n      mload(0x40)\n      0x08c379a000000000000000000000000000000000000000000000000000000000\n      dup2\n      mstore\n      0x04\n      add\n      tag_143\n      swap1\n      tag_144\n      jump\t// in\n    tag_143:\n      mload(0x40)\n      dup1\n      swap2\n      sub\n      swap1\n      revert\n    tag_142:\n        /* \"contracts/FunSwap.sol\":3522:3530  deadline */\n      sload(0x07)\n        /* \"contracts/FunSwap.sol\":3504:3519  block.timestamp */\n      timestamp\n        /* \"contracts/FunSwap.sol\":3504:3530  block.timestamp < deadline */\n      lt\n        /* \"contracts/FunSwap.sol\":3496:3555  require(block.timestamp < deadline, \"Swap deadline passed\") */\n      tag_146\n      jumpi\n      mload(0x40)\n      0x08c379a000000000000000000000000000000000000000000000000000000000\n      dup2\n      mstore\n      0x04\n      add\n      tag_147\n      swap1\n      tag_148\n      jump\t// in\n    tag_147:\n      mload(0x40)\n      dup1\n      swap2\n      sub\n      swap1\n      revert\n    tag_146:\n        /* \"contracts/FunSwap.sol\":8103:8111  deadline */\n      sload(0x07)\n        /* \"contracts/FunSwap.sol\":8089:8100  newDeadline */\n      dup2\n        /* \"contracts/FunSwap.sol\":8089:8111  newDeadline > deadline */\n      gt\n        /* \"contracts/FunSwap.sol\":8081:8164  require(newDeadline > deadline, \"New deadline must be later than current deadline\") */\n      tag_150\n      jumpi\n      mload(0x40)\n      0x08c379a000000000000000000000000000000000000000000000000000000000\n      dup2\n      mstore\n      0x04\n      add\n      tag_151\n      swap1\n      tag_152\n      jump\t// in\n    tag_151:\n      mload(0x40)\n      dup1\n      swap2\n      sub\n      swap1\n      revert\n    tag_150:\n        /* \"contracts/FunSwap.sol\":8185:8196  newDeadline */\n      dup1\n        /* \"contracts/FunSwap.sol\":8174:8182  deadline */\n      0x07\n        /* \"contracts/FunSwap.sol\":8174:8196  deadline = newDeadline */\n      dup2\n      swap1\n      sstore\n      pop\n        /* \"contracts/FunSwap.sol\":8211:8240  DeadlineExtended(newDeadline) */\n      0xc7f2746aefc0d137a95df385581a90d8b73240b3e6724f8ecb10b58e88f0fb8b\n        /* \"contracts/FunSwap.sol\":8228:8239  newDeadline */\n      dup2\n        /* \"contracts/FunSwap.sol\":8211:8240  DeadlineExtended(newDeadline) */\n      mload(0x40)\n      tag_153\n      swap2\n      swap1\n      tag_41\n      jump\t// in\n    tag_153:\n      mload(0x40)\n      dup1\n      swap2\n      sub\n      swap1\n      log1\n        /* \"contracts/FunSwap.sol\":7987:8247  function extendDeadline(uint256 newDeadline) external onlyPartyA onlyBeforeDeadline {... */\n      pop\n      jump\t// out\n        /* \"contracts/FunSwap.sol\":5970:6717  function approveSwap() external onlyBeforeDeadline onlyIfNotCompleted nonReentrant {... */\n    tag_66:\n        /* \"contracts/FunSwap.sol\":3522:3530  deadline */\n      sload(0x07)\n        /* \"contracts/FunSwap.sol\":3504:3519  block.timestamp */\n      timestamp\n        /* \"contracts/FunSwap.sol\":3504:3530  block.timestamp < deadline */\n      lt\n        /* \"contracts/FunSwap.sol\":3496:3555  require(block.timestamp < deadline, \"Swap deadline passed\") */\n      tag_155\n      jumpi\n      mload(0x40)\n      0x08c379a000000000000000000000000000000000000000000000000000000000\n      dup2\n      mstore\n      0x04\n      add\n      tag_156\n      swap1\n      tag_148\n      jump\t// in\n    tag_156:\n      mload(0x40)\n      dup1\n      swap2\n      sub\n      swap1\n      revert\n    tag_155:\n        /* \"contracts/FunSwap.sol\":4164:4165  0 */\n      0x00\n        /* \"contracts/FunSwap.sol\":4155:4160  flags */\n      0x09\n      0x00\n      swap1\n      sload\n      swap1\n      0x0100\n      exp\n      swap1\n      div\n      0xff\n      and\n        /* \"contracts/FunSwap.sol\":4155:4165  flags == 0 */\n      0xff\n      and\n      eq\n        /* \"contracts/FunSwap.sol\":4147:4192  require(flags == 0, \"Swap already completed\") */\n      tag_158\n      jumpi\n      mload(0x40)\n      0x08c379a000000000000000000000000000000000000000000000000000000000\n      dup2\n      mstore\n      0x04\n      add\n      tag_159\n      swap1\n      tag_94\n      jump\t// in\n    tag_159:\n      mload(0x40)\n      dup1\n      swap2\n      sub\n      swap1\n      revert\n    tag_158:\n        /* \"@openzeppelin/contracts/security/ReentrancyGuard.sol\":2261:2282  _nonReentrantBefore() */\n      tag_161\n        /* \"@openzeppelin/contracts/security/ReentrancyGuard.sol\":2261:2280  _nonReentrantBefore */\n      tag_97\n        /* \"@openzeppelin/contracts/security/ReentrancyGuard.sol\":2261:2282  _nonReentrantBefore() */\n      jump\t// in\n    tag_161:\n        /* \"contracts/FunSwap.sol\":6081:6087  partyA */\n      0x03\n      0x00\n      swap1\n      sload\n      swap1\n      0x0100\n      exp\n      swap1\n      div\n      0xffffffffffffffffffffffffffffffffffffffff\n      and\n        /* \"contracts/FunSwap.sol\":6067:6087  msg.sender == partyA */\n      0xffffffffffffffffffffffffffffffffffffffff\n      and\n        /* \"contracts/FunSwap.sol\":6067:6077  msg.sender */\n      caller\n        /* \"contracts/FunSwap.sol\":6067:6087  msg.sender == partyA */\n      0xffffffffffffffffffffffffffffffffffffffff\n      and\n      sub\n        /* \"contracts/FunSwap.sol\":6063:6424  if (msg.sender == partyA) {... */\n      tag_163\n      jumpi\n        /* \"contracts/FunSwap.sol\":6118:6124  token1 */\n      0x01\n      0x00\n      swap1\n      sload\n      swap1\n      0x0100\n      exp\n      swap1\n      div\n      0xffffffffffffffffffffffffffffffffffffffff\n      and\n        /* \"contracts/FunSwap.sol\":6111:6138  IERC20(token1).transferFrom */\n      0xffffffffffffffffffffffffffffffffffffffff\n      and\n      0x23b872dd\n        /* \"contracts/FunSwap.sol\":6139:6145  partyA */\n      0x03\n      0x00\n      swap1\n      sload\n      swap1\n      0x0100\n      exp\n      swap1\n      div\n      0xffffffffffffffffffffffffffffffffffffffff\n      and\n        /* \"contracts/FunSwap.sol\":6155:6159  this */\n      address\n        /* \"contracts/FunSwap.sol\":6162:6174  amountToken1 */\n      sload(0x05)\n        /* \"contracts/FunSwap.sol\":6111:6175  IERC20(token1).transferFrom(partyA, address(this), amountToken1) */\n      mload(0x40)\n      dup5\n      0xffffffff\n      and\n      0xe0\n      shl\n      dup2\n      mstore\n      0x04\n      add\n      tag_164\n      swap4\n      swap3\n      swap2\n      swap1\n      tag_165\n      jump\t// in\n    tag_164:\n      0x20\n      mload(0x40)\n      dup1\n      dup4\n      sub\n      dup2\n      0x00\n      dup8\n      gas\n      call\n      iszero\n      dup1\n      iszero\n      tag_167\n      jumpi\n      returndatasize\n      0x00\n      dup1\n      returndatacopy\n      revert(0x00, returndatasize)\n    tag_167:\n      pop\n      pop\n      pop\n      pop\n      mload(0x40)\n      returndatasize\n      not(0x1f)\n      0x1f\n      dup3\n      add\n      and\n      dup3\n      add\n      dup1\n      0x40\n      mstore\n      pop\n      dup2\n      add\n      swap1\n      tag_168\n      swap2\n      swap1\n      tag_125\n      jump\t// in\n    tag_168:\n        /* \"contracts/FunSwap.sol\":6103:6202  require(IERC20(token1).transferFrom(partyA, address(this), amountToken1), \"Token1 transfer failed\") */\n      tag_169\n      jumpi\n      mload(0x40)\n      0x08c379a000000000000000000000000000000000000000000000000000000000\n      dup2\n      mstore\n      0x04\n      add\n      tag_170\n      swap1\n      tag_128\n      jump\t// in\n    tag_170:\n      mload(0x40)\n      dup1\n      swap2\n      sub\n      swap1\n      revert\n    tag_169:\n        /* \"contracts/FunSwap.sol\":6063:6424  if (msg.sender == partyA) {... */\n      jump(tag_171)\n    tag_163:\n        /* \"contracts/FunSwap.sol\":6237:6243  partyB */\n      0x04\n      0x00\n      swap1\n      sload\n      swap1\n      0x0100\n      exp\n      swap1\n      div\n      0xffffffffffffffffffffffffffffffffffffffff\n      and\n        /* \"contracts/FunSwap.sol\":6223:6243  msg.sender == partyB */\n      0xffffffffffffffffffffffffffffffffffffffff\n      and\n        /* \"contracts/FunSwap.sol\":6223:6233  msg.sender */\n      caller\n        /* \"contracts/FunSwap.sol\":6223:6243  msg.sender == partyB */\n      0xffffffffffffffffffffffffffffffffffffffff\n      and\n      sub\n        /* \"contracts/FunSwap.sol\":6219:6424  if (msg.sender == partyB) {... */\n      tag_172\n      jumpi\n        /* \"contracts/FunSwap.sol\":6274:6280  token2 */\n      0x02\n      0x00\n      swap1\n      sload\n      swap1\n      0x0100\n      exp\n      swap1\n      div\n      0xffffffffffffffffffffffffffffffffffffffff\n      and\n        /* \"contracts/FunSwap.sol\":6267:6294  IERC20(token2).transferFrom */\n      0xffffffffffffffffffffffffffffffffffffffff\n      and\n      0x23b872dd\n        /* \"contracts/FunSwap.sol\":6295:6301  partyB */\n      0x04\n      0x00\n      swap1\n      sload\n      swap1\n      0x0100\n      exp\n      swap1\n      div\n      0xffffffffffffffffffffffffffffffffffffffff\n      and\n        /* \"contracts/FunSwap.sol\":6311:6315  this */\n      address\n        /* \"contracts/FunSwap.sol\":6318:6330  amountToken2 */\n      sload(0x06)\n        /* \"contracts/FunSwap.sol\":6267:6331  IERC20(token2).transferFrom(partyB, address(this), amountToken2) */\n      mload(0x40)\n      dup5\n      0xffffffff\n      and\n      0xe0\n      shl\n      dup2\n      mstore\n      0x04\n      add\n      tag_173\n      swap4\n      swap3\n      swap2\n      swap1\n      tag_165\n      jump\t// in\n    tag_173:\n      0x20\n      mload(0x40)\n      dup1\n      dup4\n      sub\n      dup2\n      0x00\n      dup8\n      gas\n      call\n      iszero\n      dup1\n      iszero\n      tag_175\n      jumpi\n      returndatasize\n      0x00\n      dup1\n      returndatacopy\n      revert(0x00, returndatasize)\n    tag_175:\n      pop\n      pop\n      pop\n      pop\n      mload(0x40)\n      returndatasize\n      not(0x1f)\n      0x1f\n      dup3\n      add\n      and\n      dup3\n      add\n      dup1\n      0x40\n      mstore\n      pop\n      dup2\n      add\n      swap1\n      tag_176\n      swap2\n      swap1\n      tag_125\n      jump\t// in\n    tag_176:\n        /* \"contracts/FunSwap.sol\":6259:6358  require(IERC20(token2).transferFrom(partyB, address(this), amountToken2), \"Token2 transfer failed\") */\n      tag_177\n      jumpi\n      mload(0x40)\n      0x08c379a000000000000000000000000000000000000000000000000000000000\n      dup2\n      mstore\n      0x04\n      add\n      tag_178\n      swap1\n      tag_137\n      jump\t// in\n    tag_178:\n      mload(0x40)\n      dup1\n      swap2\n      sub\n      swap1\n      revert\n    tag_177:\n        /* \"contracts/FunSwap.sol\":6219:6424  if (msg.sender == partyB) {... */\n      jump(tag_179)\n    tag_172:\n        /* \"contracts/FunSwap.sol\":6389:6413  revert(\"Not authorized\") */\n      mload(0x40)\n      0x08c379a000000000000000000000000000000000000000000000000000000000\n      dup2\n      mstore\n      0x04\n      add\n      tag_180\n      swap1\n      tag_144\n      jump\t// in\n    tag_180:\n      mload(0x40)\n      dup1\n      swap2\n      sub\n      swap1\n      revert\n        /* \"contracts/FunSwap.sol\":6219:6424  if (msg.sender == partyB) {... */\n    tag_179:\n        /* \"contracts/FunSwap.sol\":6063:6424  if (msg.sender == partyA) {... */\n    tag_171:\n        /* \"contracts/FunSwap.sol\":6481:6493  amountToken1 */\n      sload(0x05)\n        /* \"contracts/FunSwap.sol\":6445:6451  token1 */\n      0x01\n      0x00\n      swap1\n      sload\n      swap1\n      0x0100\n      exp\n      swap1\n      div\n      0xffffffffffffffffffffffffffffffffffffffff\n      and\n        /* \"contracts/FunSwap.sol\":6438:6462  IERC20(token1).balanceOf */\n      0xffffffffffffffffffffffffffffffffffffffff\n      and\n      0x70a08231\n        /* \"contracts/FunSwap.sol\":6471:6475  this */\n      address\n        /* \"contracts/FunSwap.sol\":6438:6477  IERC20(token1).balanceOf(address(this)) */\n      mload(0x40)\n      dup3\n      0xffffffff\n      and\n      0xe0\n      shl\n      dup2\n      mstore\n      0x04\n      add\n      tag_181\n      swap2\n      swap1\n      tag_31\n      jump\t// in\n    tag_181:\n      0x20\n      mload(0x40)\n      dup1\n      dup4\n      sub\n      dup2\n      dup7\n      gas\n      staticcall\n      iszero\n      dup1\n      iszero\n      tag_183\n      jumpi\n      returndatasize\n      0x00\n      dup1\n      returndatacopy\n      revert(0x00, returndatasize)\n    tag_183:\n      pop\n      pop\n      pop\n      pop\n      mload(0x40)\n      returndatasize\n      not(0x1f)\n      0x1f\n      dup3\n      add\n      and\n      dup3\n      add\n      dup1\n      0x40\n      mstore\n      pop\n      dup2\n      add\n      swap1\n      tag_184\n      swap2\n      swap1\n      tag_115\n      jump\t// in\n    tag_184:\n        /* \"contracts/FunSwap.sol\":6438:6493  IERC20(token1).balanceOf(address(this)) >= amountToken1 */\n      lt\n      iszero\n        /* \"contracts/FunSwap.sol\":6438:6552  IERC20(token1).balanceOf(address(this)) >= amountToken1 && IERC20(token2).balanceOf(address(this)) >= amountToken2 */\n      dup1\n      iszero\n      tag_185\n      jumpi\n      pop\n        /* \"contracts/FunSwap.sol\":6540:6552  amountToken2 */\n      sload(0x06)\n        /* \"contracts/FunSwap.sol\":6504:6510  token2 */\n      0x02\n      0x00\n      swap1\n      sload\n      swap1\n      0x0100\n      exp\n      swap1\n      div\n      0xffffffffffffffffffffffffffffffffffffffff\n      and\n        /* \"contracts/FunSwap.sol\":6497:6521  IERC20(token2).balanceOf */\n      0xffffffffffffffffffffffffffffffffffffffff\n      and\n      0x70a08231\n        /* \"contracts/FunSwap.sol\":6530:6534  this */\n      address\n        /* \"contracts/FunSwap.sol\":6497:6536  IERC20(token2).balanceOf(address(this)) */\n      mload(0x40)\n      dup3\n      0xffffffff\n      and\n      0xe0\n      shl\n      dup2\n      mstore\n      0x04\n      add\n      tag_186\n      swap2\n      swap1\n      tag_31\n      jump\t// in\n    tag_186:\n      0x20\n      mload(0x40)\n      dup1\n      dup4\n      sub\n      dup2\n      dup7\n      gas\n      staticcall\n      iszero\n      dup1\n      iszero\n      tag_188\n      jumpi\n      returndatasize\n      0x00\n      dup1\n      returndatacopy\n      revert(0x00, returndatasize)\n    tag_188:\n      pop\n      pop\n      pop\n      pop\n      mload(0x40)\n      returndatasize\n      not(0x1f)\n      0x1f\n      dup3\n      add\n      and\n      dup3\n      add\n      dup1\n      0x40\n      mstore\n      pop\n      dup2\n      add\n      swap1\n      tag_189\n      swap2\n      swap1\n      tag_115\n      jump\t// in\n    tag_189:\n        /* \"contracts/FunSwap.sol\":6497:6552  IERC20(token2).balanceOf(address(this)) >= amountToken2 */\n      lt\n      iszero\n        /* \"contracts/FunSwap.sol\":6438:6552  IERC20(token1).balanceOf(address(this)) >= amountToken1 && IERC20(token2).balanceOf(address(this)) >= amountToken2 */\n    tag_185:\n        /* \"contracts/FunSwap.sol\":6434:6711  if (IERC20(token1).balanceOf(address(this)) >= amountToken1 && IERC20(token2).balanceOf(address(this)) >= amountToken2) {... */\n      iszero\n      tag_190\n      jumpi\n        /* \"contracts/FunSwap.sol\":6577:6597  SwapStatus.Completed */\n      0x01\n        /* \"contracts/FunSwap.sol\":6568:6574  status */\n      0x09\n      0x02\n        /* \"contracts/FunSwap.sol\":6568:6597  status = SwapStatus.Completed */\n      0x0100\n      exp\n      dup2\n      sload\n      dup2\n      0xff\n      mul\n      not\n      and\n      swap1\n      dup4\n      0x02\n      dup2\n      gt\n      iszero\n      tag_191\n      jumpi\n      tag_192\n      tag_101\n      jump\t// in\n    tag_192:\n    tag_191:\n      mul\n      or\n      swap1\n      sstore\n      pop\n        /* \"contracts/FunSwap.sol\":6619:6620  1 */\n      0x01\n        /* \"contracts/FunSwap.sol\":6611:6616  flags */\n      0x09\n      0x00\n        /* \"contracts/FunSwap.sol\":6611:6620  flags = 1 */\n      0x0100\n      exp\n      dup2\n      sload\n      dup2\n      0xff\n      mul\n      not\n      and\n      swap1\n      dup4\n      0xff\n      and\n      mul\n      or\n      swap1\n      sstore\n      pop\n        /* \"contracts/FunSwap.sol\":6648:6652  true */\n      0x01\n        /* \"contracts/FunSwap.sol\":6634:6645  isCompleted */\n      0x09\n      0x01\n        /* \"contracts/FunSwap.sol\":6634:6652  isCompleted = true */\n      0x0100\n      exp\n      dup2\n      sload\n      dup2\n      0xff\n      mul\n      not\n      and\n      swap1\n      dup4\n      iszero\n      iszero\n      mul\n      or\n      swap1\n      sstore\n      pop\n        /* \"contracts/FunSwap.sol\":6693:6699  partyB */\n      0x04\n      0x00\n      swap1\n      sload\n      swap1\n      0x0100\n      exp\n      swap1\n      div\n      0xffffffffffffffffffffffffffffffffffffffff\n      and\n        /* \"contracts/FunSwap.sol\":6671:6700  SwapCompleted(partyA, partyB) */\n      0xffffffffffffffffffffffffffffffffffffffff\n      and\n        /* \"contracts/FunSwap.sol\":6685:6691  partyA */\n      0x03\n      0x00\n      swap1\n      sload\n      swap1\n      0x0100\n      exp\n      swap1\n      div\n      0xffffffffffffffffffffffffffffffffffffffff\n      and\n        /* \"contracts/FunSwap.sol\":6671:6700  SwapCompleted(partyA, partyB) */\n      0xffffffffffffffffffffffffffffffffffffffff\n      and\n      0x5878c0a795154a8aa084d028e758e18fcaa2abdabdba704774a01f35e105ff67\n      mload(0x40)\n      mload(0x40)\n      dup1\n      swap2\n      sub\n      swap1\n      log3\n        /* \"contracts/FunSwap.sol\":6434:6711  if (IERC20(token1).balanceOf(address(this)) >= amountToken1 && IERC20(token2).balanceOf(address(this)) >= amountToken2) {... */\n    tag_190:\n        /* \"@openzeppelin/contracts/security/ReentrancyGuard.sol\":2303:2323  _nonReentrantAfter() */\n      tag_193\n        /* \"@openzeppelin/contracts/security/ReentrancyGuard.sol\":2303:2321  _nonReentrantAfter */\n      tag_140\n        /* \"@openzeppelin/contracts/security/ReentrancyGuard.sol\":2303:2323  _nonReentrantAfter() */\n      jump\t// in\n    tag_193:\n        /* \"contracts/FunSwap.sol\":5970:6717  function approveSwap() external onlyBeforeDeadline onlyIfNotCompleted nonReentrant {... */\n      jump\t// out\n        /* \"contracts/FunSwap.sol\":1208:1244  uint256 public gracePeriod = 1 hours */\n    tag_69:\n      sload(0x08)\n      dup2\n      jump\t// out\n        /* \"contracts/FunSwap.sol\":6824:7060  function expireSwap() external onlyAfterDeadline onlyBeforeGracePeriod onlyIfNotCompleted nonReentrant {... */\n    tag_73:\n        /* \"contracts/FunSwap.sol\":3954:3962  deadline */\n      sload(0x07)\n        /* \"contracts/FunSwap.sol\":3935:3950  block.timestamp */\n      timestamp\n        /* \"contracts/FunSwap.sol\":3935:3962  block.timestamp >= deadline */\n      lt\n      iszero\n        /* \"contracts/FunSwap.sol\":3927:3992  require(block.timestamp >= deadline, \"Swap deadline not reached\") */\n      tag_195\n      jumpi\n      mload(0x40)\n      0x08c379a000000000000000000000000000000000000000000000000000000000\n      dup2\n      mstore\n      0x04\n      add\n      tag_196\n      swap1\n      tag_90\n      jump\t// in\n    tag_196:\n      mload(0x40)\n      dup1\n      swap2\n      sub\n      swap1\n      revert\n    tag_195:\n        /* \"contracts/FunSwap.sol\":3744:3755  gracePeriod */\n      sload(0x08)\n        /* \"contracts/FunSwap.sol\":3733:3741  deadline */\n      sload(0x07)\n        /* \"contracts/FunSwap.sol\":3733:3755  deadline + gracePeriod */\n      tag_198\n      swap2\n      swap1\n      tag_199\n      jump\t// in\n    tag_198:\n        /* \"contracts/FunSwap.sol\":3715:3730  block.timestamp */\n      timestamp\n        /* \"contracts/FunSwap.sol\":3715:3755  block.timestamp < deadline + gracePeriod */\n      lt\n        /* \"contracts/FunSwap.sol\":3707:3784  require(block.timestamp < deadline + gracePeriod, \"Swap grace period passed\") */\n      tag_200\n      jumpi\n      mload(0x40)\n      0x08c379a000000000000000000000000000000000000000000000000000000000\n      dup2\n      mstore\n      0x04\n      add\n      tag_201\n      swap1\n      tag_202\n      jump\t// in\n    tag_201:\n      mload(0x40)\n      dup1\n      swap2\n      sub\n      swap1\n      revert\n    tag_200:\n        /* \"contracts/FunSwap.sol\":4164:4165  0 */\n      0x00\n        /* \"contracts/FunSwap.sol\":4155:4160  flags */\n      0x09\n      0x00\n      swap1\n      sload\n      swap1\n      0x0100\n      exp\n      swap1\n      div\n      0xff\n      and\n        /* \"contracts/FunSwap.sol\":4155:4165  flags == 0 */\n      0xff\n      and\n      eq\n        /* \"contracts/FunSwap.sol\":4147:4192  require(flags == 0, \"Swap already completed\") */\n      tag_204\n      jumpi\n      mload(0x40)\n      0x08c379a000000000000000000000000000000000000000000000000000000000\n      dup2\n      mstore\n      0x04\n      add\n      tag_205\n      swap1\n      tag_94\n      jump\t// in\n    tag_205:\n      mload(0x40)\n      dup1\n      swap2\n      sub\n      swap1\n      revert\n    tag_204:\n        /* \"@openzeppelin/contracts/security/ReentrancyGuard.sol\":2261:2282  _nonReentrantBefore() */\n      tag_207\n        /* \"@openzeppelin/contracts/security/ReentrancyGuard.sol\":2261:2280  _nonReentrantBefore */\n      tag_97\n        /* \"@openzeppelin/contracts/security/ReentrancyGuard.sol\":2261:2282  _nonReentrantBefore() */\n      jump\t// in\n    tag_207:\n        /* \"contracts/FunSwap.sol\":6946:6964  SwapStatus.Expired */\n      0x02\n        /* \"contracts/FunSwap.sol\":6937:6943  status */\n      0x09\n      0x02\n        /* \"contracts/FunSwap.sol\":6937:6964  status = SwapStatus.Expired */\n      0x0100\n      exp\n      dup2\n      sload\n      dup2\n      0xff\n      mul\n      not\n      and\n      swap1\n      dup4\n      0x02\n      dup2\n      gt\n      iszero\n      tag_209\n      jumpi\n      tag_210\n      tag_101\n      jump\t// in\n    tag_210:\n    tag_209:\n      mul\n      or\n      swap1\n      sstore\n      pop\n        /* \"contracts/FunSwap.sol\":6982:6983  1 */\n      0x01\n        /* \"contracts/FunSwap.sol\":6974:6979  flags */\n      0x09\n      0x00\n        /* \"contracts/FunSwap.sol\":6974:6983  flags = 1 */\n      0x0100\n      exp\n      dup2\n      sload\n      dup2\n      0xff\n      mul\n      not\n      and\n      swap1\n      dup4\n      0xff\n      and\n      mul\n      or\n      swap1\n      sstore\n      pop\n        /* \"contracts/FunSwap.sol\":7007:7011  true */\n      0x01\n        /* \"contracts/FunSwap.sol\":6993:7004  isCompleted */\n      0x09\n      0x01\n        /* \"contracts/FunSwap.sol\":6993:7011  isCompleted = true */\n      0x0100\n      exp\n      dup2\n      sload\n      dup2\n      0xff\n      mul\n      not\n      and\n      swap1\n      dup4\n      iszero\n      iszero\n      mul\n      or\n      swap1\n      sstore\n      pop\n        /* \"contracts/FunSwap.sol\":7046:7052  partyB */\n      0x04\n      0x00\n      swap1\n      sload\n      swap1\n      0x0100\n      exp\n      swap1\n      div\n      0xffffffffffffffffffffffffffffffffffffffff\n      and\n        /* \"contracts/FunSwap.sol\":7026:7053  SwapExpired(partyA, partyB) */\n      0xffffffffffffffffffffffffffffffffffffffff\n      and\n        /* \"contracts/FunSwap.sol\":7038:7044  partyA */\n      0x03\n      0x00\n      swap1\n      sload\n      swap1\n      0x0100\n      exp\n      swap1\n      div\n      0xffffffffffffffffffffffffffffffffffffffff\n      and\n        /* \"contracts/FunSwap.sol\":7026:7053  SwapExpired(partyA, partyB) */\n      0xffffffffffffffffffffffffffffffffffffffff\n      and\n      0xa431e31006ba6ba15dff355126708becfe5d1c60d1b1e171c1bd7961dbb1d9b5\n      mload(0x40)\n      mload(0x40)\n      dup1\n      swap2\n      sub\n      swap1\n      log3\n        /* \"@openzeppelin/contracts/security/ReentrancyGuard.sol\":2303:2323  _nonReentrantAfter() */\n      tag_211\n        /* \"@openzeppelin/contracts/security/ReentrancyGuard.sol\":2303:2321  _nonReentrantAfter */\n      tag_140\n        /* \"@openzeppelin/contracts/security/ReentrancyGuard.sol\":2303:2323  _nonReentrantAfter() */\n      jump\t// in\n    tag_211:\n        /* \"contracts/FunSwap.sol\":6824:7060  function expireSwap() external onlyAfterDeadline onlyBeforeGracePeriod onlyIfNotCompleted nonReentrant {... */\n      jump\t// out\n        /* \"contracts/FunSwap.sol\":555:576  address public token1 */\n    tag_76:\n      0x01\n      0x00\n      swap1\n      sload\n      swap1\n      0x0100\n      exp\n      swap1\n      div\n      0xffffffffffffffffffffffffffffffffffffffff\n      and\n      dup2\n      jump\t// out\n        /* \"contracts/FunSwap.sol\":905:932  uint256 public amountToken1 */\n    tag_80:\n      sload(0x05)\n      dup2\n      jump\t// out\n        /* \"contracts/FunSwap.sol\":1433:1456  bool public isCompleted */\n    tag_84:\n      0x09\n      0x01\n      swap1\n      sload\n      swap1\n      0x0100\n      exp\n      swap1\n      div\n      0xff\n      and\n      dup2\n      jump\t// out\n        /* \"@openzeppelin/contracts/security/ReentrancyGuard.sol\":2336:2623  function _nonReentrantBefore() private {... */\n    tag_97:\n        /* \"@openzeppelin/contracts/security/ReentrancyGuard.sol\":1759:1760  2 */\n      0x02\n        /* \"@openzeppelin/contracts/security/ReentrancyGuard.sol\":2468:2475  _status */\n      sload(0x00)\n        /* \"@openzeppelin/contracts/security/ReentrancyGuard.sol\":2468:2487  _status != _ENTERED */\n      sub\n        /* \"@openzeppelin/contracts/security/ReentrancyGuard.sol\":2460:2523  require(_status != _ENTERED, \"ReentrancyGuard: reentrant call\") */\n      tag_213\n      jumpi\n      mload(0x40)\n      0x08c379a000000000000000000000000000000000000000000000000000000000\n      dup2\n      mstore\n      0x04\n      add\n      tag_214\n      swap1\n      tag_215\n      jump\t// in\n    tag_214:\n      mload(0x40)\n      dup1\n      swap2\n      sub\n      swap1\n      revert\n    tag_213:\n        /* \"@openzeppelin/contracts/security/ReentrancyGuard.sol\":1759:1760  2 */\n      0x02\n        /* \"@openzeppelin/contracts/security/ReentrancyGuard.sol\":2598:2605  _status */\n      0x00\n        /* \"@openzeppelin/contracts/security/ReentrancyGuard.sol\":2598:2616  _status = _ENTERED */\n      dup2\n      swap1\n      sstore\n      pop\n        /* \"@openzeppelin/contracts/security/ReentrancyGuard.sol\":2336:2623  function _nonReentrantBefore() private {... */\n      jump\t// out\n        /* \"@openzeppelin/contracts/security/ReentrancyGuard.sol\":2629:2838  function _nonReentrantAfter() private {... */\n    tag_140:\n        /* \"@openzeppelin/contracts/security/ReentrancyGuard.sol\":1716:1717  1 */\n      0x01\n        /* \"@openzeppelin/contracts/security/ReentrancyGuard.sol\":2809:2816  _status */\n      0x00\n        /* \"@openzeppelin/contracts/security/ReentrancyGuard.sol\":2809:2831  _status = _NOT_ENTERED */\n      dup2\n      swap1\n      sstore\n      pop\n        /* \"@openzeppelin/contracts/security/ReentrancyGuard.sol\":2629:2838  function _nonReentrantAfter() private {... */\n      jump\t// out\n        /* \"#utility.yul\":7:176   */\n    tag_217:\n        /* \"#utility.yul\":91:102   */\n      0x00\n        /* \"#utility.yul\":125:131   */\n      dup3\n        /* \"#utility.yul\":120:123   */\n      dup3\n        /* \"#utility.yul\":113:132   */\n      mstore\n        /* \"#utility.yul\":165:169   */\n      0x20\n        /* \"#utility.yul\":160:163   */\n      dup3\n        /* \"#utility.yul\":156:170   */\n      add\n        /* \"#utility.yul\":141:170   */\n      swap1\n      pop\n        /* \"#utility.yul\":7:176   */\n      swap3\n      swap2\n      pop\n      pop\n      jump\t// out\n        /* \"#utility.yul\":182:356   */\n    tag_218:\n        /* \"#utility.yul\":322:348   */\n      0x4e6f20455448207472616e736665727320616c6c6f7765640000000000000000\n        /* \"#utility.yul\":318:319   */\n      0x00\n        /* \"#utility.yul\":310:316   */\n      dup3\n        /* \"#utility.yul\":306:320   */\n      add\n        /* \"#utility.yul\":299:349   */\n      mstore\n        /* \"#utility.yul\":182:356   */\n      pop\n      jump\t// out\n        /* \"#utility.yul\":362:728   */\n    tag_219:\n        /* \"#utility.yul\":504:507   */\n      0x00\n        /* \"#utility.yul\":525:592   */\n      tag_270\n        /* \"#utility.yul\":589:591   */\n      0x18\n        /* \"#utility.yul\":584:587   */\n      dup4\n        /* \"#utility.yul\":525:592   */\n      tag_217\n      jump\t// in\n    tag_270:\n        /* \"#utility.yul\":518:592   */\n      swap2\n      pop\n        /* \"#utility.yul\":601:694   */\n      tag_271\n        /* \"#utility.yul\":690:693   */\n      dup3\n        /* \"#utility.yul\":601:694   */\n      tag_218\n      jump\t// in\n    tag_271:\n        /* \"#utility.yul\":719:721   */\n      0x20\n        /* \"#utility.yul\":714:717   */\n      dup3\n        /* \"#utility.yul\":710:722   */\n      add\n        /* \"#utility.yul\":703:722   */\n      swap1\n      pop\n        /* \"#utility.yul\":362:728   */\n      swap2\n      swap1\n      pop\n      jump\t// out\n        /* \"#utility.yul\":734:1153   */\n    tag_26:\n        /* \"#utility.yul\":900:904   */\n      0x00\n        /* \"#utility.yul\":938:940   */\n      0x20\n        /* \"#utility.yul\":927:936   */\n      dup3\n        /* \"#utility.yul\":923:941   */\n      add\n        /* \"#utility.yul\":915:941   */\n      swap1\n      pop\n        /* \"#utility.yul\":987:996   */\n      dup2\n        /* \"#utility.yul\":981:985   */\n      dup2\n        /* \"#utility.yul\":977:997   */\n      sub\n        /* \"#utility.yul\":973:974   */\n      0x00\n        /* \"#utility.yul\":962:971   */\n      dup4\n        /* \"#utility.yul\":958:975   */\n      add\n        /* \"#utility.yul\":951:998   */\n      mstore\n        /* \"#utility.yul\":1015:1146   */\n      tag_273\n        /* \"#utility.yul\":1141:1145   */\n      dup2\n        /* \"#utility.yul\":1015:1146   */\n      tag_219\n      jump\t// in\n    tag_273:\n        /* \"#utility.yul\":1007:1146   */\n      swap1\n      pop\n        /* \"#utility.yul\":734:1153   */\n      swap2\n      swap1\n      pop\n      jump\t// out\n        /* \"#utility.yul\":1159:1285   */\n    tag_220:\n        /* \"#utility.yul\":1196:1203   */\n      0x00\n        /* \"#utility.yul\":1236:1278   */\n      0xffffffffffffffffffffffffffffffffffffffff\n        /* \"#utility.yul\":1229:1234   */\n      dup3\n        /* \"#utility.yul\":1225:1279   */\n      and\n        /* \"#utility.yul\":1214:1279   */\n      swap1\n      pop\n        /* \"#utility.yul\":1159:1285   */\n      swap2\n      swap1\n      pop\n      jump\t// out\n        /* \"#utility.yul\":1291:1387   */\n    tag_221:\n        /* \"#utility.yul\":1328:1335   */\n      0x00\n        /* \"#utility.yul\":1357:1381   */\n      tag_276\n        /* \"#utility.yul\":1375:1380   */\n      dup3\n        /* \"#utility.yul\":1357:1381   */\n      tag_220\n      jump\t// in\n    tag_276:\n        /* \"#utility.yul\":1346:1381   */\n      swap1\n      pop\n        /* \"#utility.yul\":1291:1387   */\n      swap2\n      swap1\n      pop\n      jump\t// out\n        /* \"#utility.yul\":1393:1511   */\n    tag_222:\n        /* \"#utility.yul\":1480:1504   */\n      tag_278\n        /* \"#utility.yul\":1498:1503   */\n      dup2\n        /* \"#utility.yul\":1480:1504   */\n      tag_221\n      jump\t// in\n    tag_278:\n        /* \"#utility.yul\":1475:1478   */\n      dup3\n        /* \"#utility.yul\":1468:1505   */\n      mstore\n        /* \"#utility.yul\":1393:1511   */\n      pop\n      pop\n      jump\t// out\n        /* \"#utility.yul\":1517:1739   */\n    tag_31:\n        /* \"#utility.yul\":1610:1614   */\n      0x00\n        /* \"#utility.yul\":1648:1650   */\n      0x20\n        /* \"#utility.yul\":1637:1646   */\n      dup3\n        /* \"#utility.yul\":1633:1651   */\n      add\n        /* \"#utility.yul\":1625:1651   */\n      swap1\n      pop\n        /* \"#utility.yul\":1661:1732   */\n      tag_280\n        /* \"#utility.yul\":1729:1730   */\n      0x00\n        /* \"#utility.yul\":1718:1727   */\n      dup4\n        /* \"#utility.yul\":1714:1731   */\n      add\n        /* \"#utility.yul\":1705:1711   */\n      dup5\n        /* \"#utility.yul\":1661:1732   */\n      tag_222\n      jump\t// in\n    tag_280:\n        /* \"#utility.yul\":1517:1739   */\n      swap3\n      swap2\n      pop\n      pop\n      jump\t// out\n        /* \"#utility.yul\":1826:1943   */\n    tag_224:\n        /* \"#utility.yul\":1935:1936   */\n      0x00\n        /* \"#utility.yul\":1932:1933   */\n      dup1\n        /* \"#utility.yul\":1925:1937   */\n      revert\n        /* \"#utility.yul\":2072:2194   */\n    tag_226:\n        /* \"#utility.yul\":2145:2169   */\n      tag_285\n        /* \"#utility.yul\":2163:2168   */\n      dup2\n        /* \"#utility.yul\":2145:2169   */\n      tag_221\n      jump\t// in\n    tag_285:\n        /* \"#utility.yul\":2138:2143   */\n      dup2\n        /* \"#utility.yul\":2135:2170   */\n      eq\n        /* \"#utility.yul\":2125:2188   */\n      tag_286\n      jumpi\n        /* \"#utility.yul\":2184:2185   */\n      0x00\n        /* \"#utility.yul\":2181:2182   */\n      dup1\n        /* \"#utility.yul\":2174:2186   */\n      revert\n        /* \"#utility.yul\":2125:2188   */\n    tag_286:\n        /* \"#utility.yul\":2072:2194   */\n      pop\n      jump\t// out\n        /* \"#utility.yul\":2200:2339   */\n    tag_227:\n        /* \"#utility.yul\":2246:2251   */\n      0x00\n        /* \"#utility.yul\":2284:2290   */\n      dup2\n        /* \"#utility.yul\":2271:2291   */\n      calldataload\n        /* \"#utility.yul\":2262:2291   */\n      swap1\n      pop\n        /* \"#utility.yul\":2300:2333   */\n      tag_288\n        /* \"#utility.yul\":2327:2332   */\n      dup2\n        /* \"#utility.yul\":2300:2333   */\n      tag_226\n      jump\t// in\n    tag_288:\n        /* \"#utility.yul\":2200:2339   */\n      swap3\n      swap2\n      pop\n      pop\n      jump\t// out\n        /* \"#utility.yul\":2345:2674   */\n    tag_35:\n        /* \"#utility.yul\":2404:2410   */\n      0x00\n        /* \"#utility.yul\":2453:2455   */\n      0x20\n        /* \"#utility.yul\":2441:2450   */\n      dup3\n        /* \"#utility.yul\":2432:2439   */\n      dup5\n        /* \"#utility.yul\":2428:2451   */\n      sub\n        /* \"#utility.yul\":2424:2456   */\n      slt\n        /* \"#utility.yul\":2421:2540   */\n      iszero\n      tag_290\n      jumpi\n        /* \"#utility.yul\":2459:2538   */\n      tag_291\n      tag_224\n      jump\t// in\n    tag_291:\n        /* \"#utility.yul\":2421:2540   */\n    tag_290:\n        /* \"#utility.yul\":2579:2580   */\n      0x00\n        /* \"#utility.yul\":2604:2657   */\n      tag_292\n        /* \"#utility.yul\":2649:2656   */\n      dup5\n        /* \"#utility.yul\":2640:2646   */\n      dup3\n        /* \"#utility.yul\":2629:2638   */\n      dup6\n        /* \"#utility.yul\":2625:2647   */\n      add\n        /* \"#utility.yul\":2604:2657   */\n      tag_227\n      jump\t// in\n    tag_292:\n        /* \"#utility.yul\":2594:2657   */\n      swap2\n      pop\n        /* \"#utility.yul\":2550:2667   */\n      pop\n        /* \"#utility.yul\":2345:2674   */\n      swap3\n      swap2\n      pop\n      pop\n      jump\t// out\n        /* \"#utility.yul\":2680:2757   */\n    tag_228:\n        /* \"#utility.yul\":2717:2724   */\n      0x00\n        /* \"#utility.yul\":2746:2751   */\n      dup2\n        /* \"#utility.yul\":2735:2751   */\n      swap1\n      pop\n        /* \"#utility.yul\":2680:2757   */\n      swap2\n      swap1\n      pop\n      jump\t// out\n        /* \"#utility.yul\":2763:2881   */\n    tag_229:\n        /* \"#utility.yul\":2850:2874   */\n      tag_295\n        /* \"#utility.yul\":2868:2873   */\n      dup2\n        /* \"#utility.yul\":2850:2874   */\n      tag_228\n      jump\t// in\n    tag_295:\n        /* \"#utility.yul\":2845:2848   */\n      dup3\n        /* \"#utility.yul\":2838:2875   */\n      mstore\n        /* \"#utility.yul\":2763:2881   */\n      pop\n      pop\n      jump\t// out\n        /* \"#utility.yul\":2887:3109   */\n    tag_41:\n        /* \"#utility.yul\":2980:2984   */\n      0x00\n        /* \"#utility.yul\":3018:3020   */\n      0x20\n        /* \"#utility.yul\":3007:3016   */\n      dup3\n        /* \"#utility.yul\":3003:3021   */\n      add\n        /* \"#utility.yul\":2995:3021   */\n      swap1\n      pop\n        /* \"#utility.yul\":3031:3102   */\n      tag_297\n        /* \"#utility.yul\":3099:3100   */\n      0x00\n        /* \"#utility.yul\":3088:3097   */\n      dup4\n        /* \"#utility.yul\":3084:3101   */\n      add\n        /* \"#utility.yul\":3075:3081   */\n      dup5\n        /* \"#utility.yul\":3031:3102   */\n      tag_229\n      jump\t// in\n    tag_297:\n        /* \"#utility.yul\":2887:3109   */\n      swap3\n      swap2\n      pop\n      pop\n      jump\t// out\n        /* \"#utility.yul\":3115:3295   */\n    tag_101:\n        /* \"#utility.yul\":3163:3240   */\n      0x4e487b7100000000000000000000000000000000000000000000000000000000\n        /* \"#utility.yul\":3160:3161   */\n      0x00\n        /* \"#utility.yul\":3153:3241   */\n      mstore\n        /* \"#utility.yul\":3260:3264   */\n      0x21\n        /* \"#utility.yul\":3257:3258   */\n      0x04\n        /* \"#utility.yul\":3250:3265   */\n      mstore\n        /* \"#utility.yul\":3284:3288   */\n      0x24\n        /* \"#utility.yul\":3281:3282   */\n      0x00\n        /* \"#utility.yul\":3274:3289   */\n      revert\n        /* \"#utility.yul\":3301:3420   */\n    tag_230:\n        /* \"#utility.yul\":3388:3389   */\n      0x03\n        /* \"#utility.yul\":3381:3386   */\n      dup2\n        /* \"#utility.yul\":3378:3390   */\n      lt\n        /* \"#utility.yul\":3368:3414   */\n      tag_300\n      jumpi\n        /* \"#utility.yul\":3394:3412   */\n      tag_301\n      tag_101\n      jump\t// in\n    tag_301:\n        /* \"#utility.yul\":3368:3414   */\n    tag_300:\n        /* \"#utility.yul\":3301:3420   */\n      pop\n      jump\t// out\n        /* \"#utility.yul\":3426:3565   */\n    tag_231:\n        /* \"#utility.yul\":3477:3484   */\n      0x00\n        /* \"#utility.yul\":3506:3511   */\n      dup2\n        /* \"#utility.yul\":3495:3511   */\n      swap1\n      pop\n        /* \"#utility.yul\":3512:3559   */\n      tag_303\n        /* \"#utility.yul\":3553:3558   */\n      dup3\n        /* \"#utility.yul\":3512:3559   */\n      tag_230\n      jump\t// in\n    tag_303:\n        /* \"#utility.yul\":3426:3565   */\n      swap2\n      swap1\n      pop\n      jump\t// out\n        /* \"#utility.yul\":3571:3710   */\n    tag_232:\n        /* \"#utility.yul\":3633:3642   */\n      0x00\n        /* \"#utility.yul\":3666:3704   */\n      tag_305\n        /* \"#utility.yul\":3698:3703   */\n      dup3\n        /* \"#utility.yul\":3666:3704   */\n      tag_231\n      jump\t// in\n    tag_305:\n        /* \"#utility.yul\":3653:3704   */\n      swap1\n      pop\n        /* \"#utility.yul\":3571:3710   */\n      swap2\n      swap1\n      pop\n      jump\t// out\n        /* \"#utility.yul\":3716:3871   */\n    tag_233:\n        /* \"#utility.yul\":3815:3864   */\n      tag_307\n        /* \"#utility.yul\":3858:3863   */\n      dup2\n        /* \"#utility.yul\":3815:3864   */\n      tag_232\n      jump\t// in\n    tag_307:\n        /* \"#utility.yul\":3810:3813   */\n      dup3\n        /* \"#utility.yul\":3803:3865   */\n      mstore\n        /* \"#utility.yul\":3716:3871   */\n      pop\n      pop\n      jump\t// out\n        /* \"#utility.yul\":3877:4123   */\n    tag_46:\n        /* \"#utility.yul\":3982:3986   */\n      0x00\n        /* \"#utility.yul\":4020:4022   */\n      0x20\n        /* \"#utility.yul\":4009:4018   */\n      dup3\n        /* \"#utility.yul\":4005:4023   */\n      add\n        /* \"#utility.yul\":3997:4023   */\n      swap1\n      pop\n        /* \"#utility.yul\":4033:4116   */\n      tag_309\n        /* \"#utility.yul\":4113:4114   */\n      0x00\n        /* \"#utility.yul\":4102:4111   */\n      dup4\n        /* \"#utility.yul\":4098:4115   */\n      add\n        /* \"#utility.yul\":4089:4095   */\n      dup5\n        /* \"#utility.yul\":4033:4116   */\n      tag_233\n      jump\t// in\n    tag_309:\n        /* \"#utility.yul\":3877:4123   */\n      swap3\n      swap2\n      pop\n      pop\n      jump\t// out\n        /* \"#utility.yul\":4129:4251   */\n    tag_234:\n        /* \"#utility.yul\":4202:4226   */\n      tag_311\n        /* \"#utility.yul\":4220:4225   */\n      dup2\n        /* \"#utility.yul\":4202:4226   */\n      tag_228\n      jump\t// in\n    tag_311:\n        /* \"#utility.yul\":4195:4200   */\n      dup2\n        /* \"#utility.yul\":4192:4227   */\n      eq\n        /* \"#utility.yul\":4182:4245   */\n      tag_312\n      jumpi\n        /* \"#utility.yul\":4241:4242   */\n      0x00\n        /* \"#utility.yul\":4238:4239   */\n      dup1\n        /* \"#utility.yul\":4231:4243   */\n      revert\n        /* \"#utility.yul\":4182:4245   */\n    tag_312:\n        /* \"#utility.yul\":4129:4251   */\n      pop\n      jump\t// out\n        /* \"#utility.yul\":4257:4396   */\n    tag_235:\n        /* \"#utility.yul\":4303:4308   */\n      0x00\n        /* \"#utility.yul\":4341:4347   */\n      dup2\n        /* \"#utility.yul\":4328:4348   */\n      calldataload\n        /* \"#utility.yul\":4319:4348   */\n      swap1\n      pop\n        /* \"#utility.yul\":4357:4390   */\n      tag_314\n        /* \"#utility.yul\":4384:4389   */\n      dup2\n        /* \"#utility.yul\":4357:4390   */\n      tag_234\n      jump\t// in\n    tag_314:\n        /* \"#utility.yul\":4257:4396   */\n      swap3\n      swap2\n      pop\n      pop\n      jump\t// out\n        /* \"#utility.yul\":4402:4731   */\n    tag_62:\n        /* \"#utility.yul\":4461:4467   */\n      0x00\n        /* \"#utility.yul\":4510:4512   */\n      0x20\n        /* \"#utility.yul\":4498:4507   */\n      dup3\n        /* \"#utility.yul\":4489:4496   */\n      dup5\n        /* \"#utility.yul\":4485:4508   */\n      sub\n        /* \"#utility.yul\":4481:4513   */\n      slt\n        /* \"#utility.yul\":4478:4597   */\n      iszero\n      tag_316\n      jumpi\n        /* \"#utility.yul\":4516:4595   */\n      tag_317\n      tag_224\n      jump\t// in\n    tag_317:\n        /* \"#utility.yul\":4478:4597   */\n    tag_316:\n        /* \"#utility.yul\":4636:4637   */\n      0x00\n        /* \"#utility.yul\":4661:4714   */\n      tag_318\n        /* \"#utility.yul\":4706:4713   */\n      dup5\n        /* \"#utility.yul\":4697:4703   */\n      dup3\n        /* \"#utility.yul\":4686:4695   */\n      dup6\n        /* \"#utility.yul\":4682:4704   */\n      add\n        /* \"#utility.yul\":4661:4714   */\n      tag_235\n      jump\t// in\n    tag_318:\n        /* \"#utility.yul\":4651:4714   */\n      swap2\n      pop\n        /* \"#utility.yul\":4607:4724   */\n      pop\n        /* \"#utility.yul\":4402:4731   */\n      swap3\n      swap2\n      pop\n      pop\n      jump\t// out\n        /* \"#utility.yul\":4737:4827   */\n    tag_236:\n        /* \"#utility.yul\":4771:4778   */\n      0x00\n        /* \"#utility.yul\":4814:4819   */\n      dup2\n        /* \"#utility.yul\":4807:4820   */\n      iszero\n        /* \"#utility.yul\":4800:4821   */\n      iszero\n        /* \"#utility.yul\":4789:4821   */\n      swap1\n      pop\n        /* \"#utility.yul\":4737:4827   */\n      swap2\n      swap1\n      pop\n      jump\t// out\n        /* \"#utility.yul\":4833:4942   */\n    tag_237:\n        /* \"#utility.yul\":4914:4935   */\n      tag_321\n        /* \"#utility.yul\":4929:4934   */\n      dup2\n        /* \"#utility.yul\":4914:4935   */\n      tag_236\n      jump\t// in\n    tag_321:\n        /* \"#utility.yul\":4909:4912   */\n      dup3\n        /* \"#utility.yul\":4902:4936   */\n      mstore\n        /* \"#utility.yul\":4833:4942   */\n      pop\n      pop\n      jump\t// out\n        /* \"#utility.yul\":4948:5158   */\n    tag_86:\n        /* \"#utility.yul\":5035:5039   */\n      0x00\n        /* \"#utility.yul\":5073:5075   */\n      0x20\n        /* \"#utility.yul\":5062:5071   */\n      dup3\n        /* \"#utility.yul\":5058:5076   */\n      add\n        /* \"#utility.yul\":5050:5076   */\n      swap1\n      pop\n        /* \"#utility.yul\":5086:5151   */\n      tag_323\n        /* \"#utility.yul\":5148:5149   */\n      0x00\n        /* \"#utility.yul\":5137:5146   */\n      dup4\n        /* \"#utility.yul\":5133:5150   */\n      add\n        /* \"#utility.yul\":5124:5130   */\n      dup5\n        /* \"#utility.yul\":5086:5151   */\n      tag_237\n      jump\t// in\n    tag_323:\n        /* \"#utility.yul\":4948:5158   */\n      swap3\n      swap2\n      pop\n      pop\n      jump\t// out\n        /* \"#utility.yul\":5164:5339   */\n    tag_238:\n        /* \"#utility.yul\":5304:5331   */\n      0x5377617020646561646c696e65206e6f74207265616368656400000000000000\n        /* \"#utility.yul\":5300:5301   */\n      0x00\n        /* \"#utility.yul\":5292:5298   */\n      dup3\n        /* \"#utility.yul\":5288:5302   */\n      add\n        /* \"#utility.yul\":5281:5332   */\n      mstore\n        /* \"#utility.yul\":5164:5339   */\n      pop\n      jump\t// out\n        /* \"#utility.yul\":5345:5711   */\n    tag_239:\n        /* \"#utility.yul\":5487:5490   */\n      0x00\n        /* \"#utility.yul\":5508:5575   */\n      tag_326\n        /* \"#utility.yul\":5572:5574   */\n      0x19\n        /* \"#utility.yul\":5567:5570   */\n      dup4\n        /* \"#utility.yul\":5508:5575   */\n      tag_217\n      jump\t// in\n    tag_326:\n        /* \"#utility.yul\":5501:5575   */\n      swap2\n      pop\n        /* \"#utility.yul\":5584:5677   */\n      tag_327\n        /* \"#utility.yul\":5673:5676   */\n      dup3\n        /* \"#utility.yul\":5584:5677   */\n      tag_238\n      jump\t// in\n    tag_327:\n        /* \"#utility.yul\":5702:5704   */\n      0x20\n        /* \"#utility.yul\":5697:5700   */\n      dup3\n        /* \"#utility.yul\":5693:5705   */\n      add\n        /* \"#utility.yul\":5686:5705   */\n      swap1\n      pop\n        /* \"#utility.yul\":5345:5711   */\n      swap2\n      swap1\n      pop\n      jump\t// out\n        /* \"#utility.yul\":5717:6136   */\n    tag_90:\n        /* \"#utility.yul\":5883:5887   */\n      0x00\n        /* \"#utility.yul\":5921:5923   */\n      0x20\n        /* \"#utility.yul\":5910:5919   */\n      dup3\n        /* \"#utility.yul\":5906:5924   */\n      add\n        /* \"#utility.yul\":5898:5924   */\n      swap1\n      pop\n        /* \"#utility.yul\":5970:5979   */\n      dup2\n        /* \"#utility.yul\":5964:5968   */\n      dup2\n        /* \"#utility.yul\":5960:5980   */\n      sub\n        /* \"#utility.yul\":5956:5957   */\n      0x00\n        /* \"#utility.yul\":5945:5954   */\n      dup4\n        /* \"#utility.yul\":5941:5958   */\n      add\n        /* \"#utility.yul\":5934:5981   */\n      mstore\n        /* \"#utility.yul\":5998:6129   */\n      tag_329\n        /* \"#utility.yul\":6124:6128   */\n      dup2\n        /* \"#utility.yul\":5998:6129   */\n      tag_239\n      jump\t// in\n    tag_329:\n        /* \"#utility.yul\":5990:6129   */\n      swap1\n      pop\n        /* \"#utility.yul\":5717:6136   */\n      swap2\n      swap1\n      pop\n      jump\t// out\n        /* \"#utility.yul\":6142:6314   */\n    tag_240:\n        /* \"#utility.yul\":6282:6306   */\n      0x5377617020616c726561647920636f6d706c6574656400000000000000000000\n        /* \"#utility.yul\":6278:6279   */\n      0x00\n        /* \"#utility.yul\":6270:6276   */\n      dup3\n        /* \"#utility.yul\":6266:6280   */\n      add\n        /* \"#utility.yul\":6259:6307   */\n      mstore\n        /* \"#utility.yul\":6142:6314   */\n      pop\n      jump\t// out\n        /* \"#utility.yul\":6320:6686   */\n    tag_241:\n        /* \"#utility.yul\":6462:6465   */\n      0x00\n        /* \"#utility.yul\":6483:6550   */\n      tag_332\n        /* \"#utility.yul\":6547:6549   */\n      0x16\n        /* \"#utility.yul\":6542:6545   */\n      dup4\n        /* \"#utility.yul\":6483:6550   */\n      tag_217\n      jump\t// in\n    tag_332:\n        /* \"#utility.yul\":6476:6550   */\n      swap2\n      pop\n        /* \"#utility.yul\":6559:6652   */\n      tag_333\n        /* \"#utility.yul\":6648:6651   */\n      dup3\n        /* \"#utility.yul\":6559:6652   */\n      tag_240\n      jump\t// in\n    tag_333:\n        /* \"#utility.yul\":6677:6679   */\n      0x20\n        /* \"#utility.yul\":6672:6675   */\n      dup3\n        /* \"#utility.yul\":6668:6680   */\n      add\n        /* \"#utility.yul\":6661:6680   */\n      swap1\n      pop\n        /* \"#utility.yul\":6320:6686   */\n      swap2\n      swap1\n      pop\n      jump\t// out\n        /* \"#utility.yul\":6692:7111   */\n    tag_94:\n        /* \"#utility.yul\":6858:6862   */\n      0x00\n        /* \"#utility.yul\":6896:6898   */\n      0x20\n        /* \"#utility.yul\":6885:6894   */\n      dup3\n        /* \"#utility.yul\":6881:6899   */\n      add\n        /* \"#utility.yul\":6873:6899   */\n      swap1\n      pop\n        /* \"#utility.yul\":6945:6954   */\n      dup2\n        /* \"#utility.yul\":6939:6943   */\n      dup2\n        /* \"#utility.yul\":6935:6955   */\n      sub\n        /* \"#utility.yul\":6931:6932   */\n      0x00\n        /* \"#utility.yul\":6920:6929   */\n      dup4\n        /* \"#utility.yul\":6916:6933   */\n      add\n        /* \"#utility.yul\":6909:6956   */\n      mstore\n        /* \"#utility.yul\":6973:7104   */\n      tag_335\n        /* \"#utility.yul\":7099:7103   */\n      dup2\n        /* \"#utility.yul\":6973:7104   */\n      tag_241\n      jump\t// in\n    tag_335:\n        /* \"#utility.yul\":6965:7104   */\n      swap1\n      pop\n        /* \"#utility.yul\":6692:7111   */\n      swap2\n      swap1\n      pop\n      jump\t// out\n        /* \"#utility.yul\":7117:7283   */\n    tag_242:\n        /* \"#utility.yul\":7257:7275   */\n      0x53776170206e6f74206578706972656400000000000000000000000000000000\n        /* \"#utility.yul\":7253:7254   */\n      0x00\n        /* \"#utility.yul\":7245:7251   */\n      dup3\n        /* \"#utility.yul\":7241:7255   */\n      add\n        /* \"#utility.yul\":7234:7276   */\n      mstore\n        /* \"#utility.yul\":7117:7283   */\n      pop\n      jump\t// out\n        /* \"#utility.yul\":7289:7655   */\n    tag_243:\n        /* \"#utility.yul\":7431:7434   */\n      0x00\n        /* \"#utility.yul\":7452:7519   */\n      tag_338\n        /* \"#utility.yul\":7516:7518   */\n      0x10\n        /* \"#utility.yul\":7511:7514   */\n      dup4\n        /* \"#utility.yul\":7452:7519   */\n      tag_217\n      jump\t// in\n    tag_338:\n        /* \"#utility.yul\":7445:7519   */\n      swap2\n      pop\n        /* \"#utility.yul\":7528:7621   */\n      tag_339\n        /* \"#utility.yul\":7617:7620   */\n      dup3\n        /* \"#utility.yul\":7528:7621   */\n      tag_242\n      jump\t// in\n    tag_339:\n        /* \"#utility.yul\":7646:7648   */\n      0x20\n        /* \"#utility.yul\":7641:7644   */\n      dup3\n        /* \"#utility.yul\":7637:7649   */\n      add\n        /* \"#utility.yul\":7630:7649   */\n      swap1\n      pop\n        /* \"#utility.yul\":7289:7655   */\n      swap2\n      swap1\n      pop\n      jump\t// out\n        /* \"#utility.yul\":7661:8080   */\n    tag_106:\n        /* \"#utility.yul\":7827:7831   */\n      0x00\n        /* \"#utility.yul\":7865:7867   */\n      0x20\n        /* \"#utility.yul\":7854:7863   */\n      dup3\n        /* \"#utility.yul\":7850:7868   */\n      add\n        /* \"#utility.yul\":7842:7868   */\n      swap1\n      pop\n        /* \"#utility.yul\":7914:7923   */\n      dup2\n        /* \"#utility.yul\":7908:7912   */\n      dup2\n        /* \"#utility.yul\":7904:7924   */\n      sub\n        /* \"#utility.yul\":7900:7901   */\n      0x00\n        /* \"#utility.yul\":7889:7898   */\n      dup4\n        /* \"#utility.yul\":7885:7902   */\n      add\n        /* \"#utility.yul\":7878:7925   */\n      mstore\n        /* \"#utility.yul\":7942:8073   */\n      tag_341\n        /* \"#utility.yul\":8068:8072   */\n      dup2\n        /* \"#utility.yul\":7942:8073   */\n      tag_243\n      jump\t// in\n    tag_341:\n        /* \"#utility.yul\":7934:8073   */\n      swap1\n      pop\n        /* \"#utility.yul\":7661:8080   */\n      swap2\n      swap1\n      pop\n      jump\t// out\n        /* \"#utility.yul\":8086:8262   */\n    tag_244:\n        /* \"#utility.yul\":8226:8254   */\n      0x496e76616c696420746f6b656e20666f72207265636f76657279000000000000\n        /* \"#utility.yul\":8222:8223   */\n      0x00\n        /* \"#utility.yul\":8214:8220   */\n      dup3\n        /* \"#utility.yul\":8210:8224   */\n      add\n        /* \"#utility.yul\":8203:8255   */\n      mstore\n        /* \"#utility.yul\":8086:8262   */\n      pop\n      jump\t// out\n        /* \"#utility.yul\":8268:8634   */\n    tag_245:\n        /* \"#utility.yul\":8410:8413   */\n      0x00\n        /* \"#utility.yul\":8431:8498   */\n      tag_344\n        /* \"#utility.yul\":8495:8497   */\n      0x1a\n        /* \"#utility.yul\":8490:8493   */\n      dup4\n        /* \"#utility.yul\":8431:8498   */\n      tag_217\n      jump\t// in\n    tag_344:\n        /* \"#utility.yul\":8424:8498   */\n      swap2\n      pop\n        /* \"#utility.yul\":8507:8600   */\n      tag_345\n        /* \"#utility.yul\":8596:8599   */\n      dup3\n        /* \"#utility.yul\":8507:8600   */\n      tag_244\n      jump\t// in\n    tag_345:\n        /* \"#utility.yul\":8625:8627   */\n      0x20\n        /* \"#utility.yul\":8620:8623   */\n      dup3\n        /* \"#utility.yul\":8616:8628   */\n      add\n        /* \"#utility.yul\":8609:8628   */\n      swap1\n      pop\n        /* \"#utility.yul\":8268:8634   */\n      swap2\n      swap1\n      pop\n      jump\t// out\n        /* \"#utility.yul\":8640:9059   */\n    tag_110:\n        /* \"#utility.yul\":8806:8810   */\n      0x00\n        /* \"#utility.yul\":8844:8846   */\n      0x20\n        /* \"#utility.yul\":8833:8842   */\n      dup3\n        /* \"#utility.yul\":8829:8847   */\n      add\n        /* \"#utility.yul\":8821:8847   */\n      swap1\n      pop\n        /* \"#utility.yul\":8893:8902   */\n      dup2\n        /* \"#utility.yul\":8887:8891   */\n      dup2\n        /* \"#utility.yul\":8883:8903   */\n      sub\n        /* \"#utility.yul\":8879:8880   */\n      0x00\n        /* \"#utility.yul\":8868:8877   */\n      dup4\n        /* \"#utility.yul\":8864:8881   */\n      add\n        /* \"#utility.yul\":8857:8904   */\n      mstore\n        /* \"#utility.yul\":8921:9052   */\n      tag_347\n        /* \"#utility.yul\":9047:9051   */\n      dup2\n        /* \"#utility.yul\":8921:9052   */\n      tag_245\n      jump\t// in\n    tag_347:\n        /* \"#utility.yul\":8913:9052   */\n      swap1\n      pop\n        /* \"#utility.yul\":8640:9059   */\n      swap2\n      swap1\n      pop\n      jump\t// out\n        /* \"#utility.yul\":9065:9208   */\n    tag_246:\n        /* \"#utility.yul\":9122:9127   */\n      0x00\n        /* \"#utility.yul\":9153:9159   */\n      dup2\n        /* \"#utility.yul\":9147:9160   */\n      mload\n        /* \"#utility.yul\":9138:9160   */\n      swap1\n      pop\n        /* \"#utility.yul\":9169:9202   */\n      tag_349\n        /* \"#utility.yul\":9196:9201   */\n      dup2\n        /* \"#utility.yul\":9169:9202   */\n      tag_234\n      jump\t// in\n    tag_349:\n        /* \"#utility.yul\":9065:9208   */\n      swap3\n      swap2\n      pop\n      pop\n      jump\t// out\n        /* \"#utility.yul\":9214:9565   */\n    tag_115:\n        /* \"#utility.yul\":9284:9290   */\n      0x00\n        /* \"#utility.yul\":9333:9335   */\n      0x20\n        /* \"#utility.yul\":9321:9330   */\n      dup3\n        /* \"#utility.yul\":9312:9319   */\n      dup5\n        /* \"#utility.yul\":9308:9331   */\n      sub\n        /* \"#utility.yul\":9304:9336   */\n      slt\n        /* \"#utility.yul\":9301:9420   */\n      iszero\n      tag_351\n      jumpi\n        /* \"#utility.yul\":9339:9418   */\n      tag_352\n      tag_224\n      jump\t// in\n    tag_352:\n        /* \"#utility.yul\":9301:9420   */\n    tag_351:\n        /* \"#utility.yul\":9459:9460   */\n      0x00\n        /* \"#utility.yul\":9484:9548   */\n      tag_353\n        /* \"#utility.yul\":9540:9547   */\n      dup5\n        /* \"#utility.yul\":9531:9537   */\n      dup3\n        /* \"#utility.yul\":9520:9529   */\n      dup6\n        /* \"#utility.yul\":9516:9538   */\n      add\n        /* \"#utility.yul\":9484:9548   */\n      tag_246\n      jump\t// in\n    tag_353:\n        /* \"#utility.yul\":9474:9548   */\n      swap2\n      pop\n        /* \"#utility.yul\":9430:9558   */\n      pop\n        /* \"#utility.yul\":9214:9565   */\n      swap3\n      swap2\n      pop\n      pop\n      jump\t// out\n        /* \"#utility.yul\":9571:9741   */\n    tag_247:\n        /* \"#utility.yul\":9711:9733   */\n      0x4e6f20746f6b656e7320746f207265636f766572000000000000000000000000\n        /* \"#utility.yul\":9707:9708   */\n      0x00\n        /* \"#utility.yul\":9699:9705   */\n      dup3\n        /* \"#utility.yul\":9695:9709   */\n      add\n        /* \"#utility.yul\":9688:9734   */\n      mstore\n        /* \"#utility.yul\":9571:9741   */\n      pop\n      jump\t// out\n        /* \"#utility.yul\":9747:10113   */\n    tag_248:\n        /* \"#utility.yul\":9889:9892   */\n      0x00\n        /* \"#utility.yul\":9910:9977   */\n      tag_356\n        /* \"#utility.yul\":9974:9976   */\n      0x14\n        /* \"#utility.yul\":9969:9972   */\n      dup4\n        /* \"#utility.yul\":9910:9977   */\n      tag_217\n      jump\t// in\n    tag_356:\n        /* \"#utility.yul\":9903:9977   */\n      swap2\n      pop\n        /* \"#utility.yul\":9986:10079   */\n      tag_357\n        /* \"#utility.yul\":10075:10078   */\n      dup3\n        /* \"#utility.yul\":9986:10079   */\n      tag_247\n      jump\t// in\n    tag_357:\n        /* \"#utility.yul\":10104:10106   */\n      0x20\n        /* \"#utility.yul\":10099:10102   */\n      dup3\n        /* \"#utility.yul\":10095:10107   */\n      add\n        /* \"#utility.yul\":10088:10107   */\n      swap1\n      pop\n        /* \"#utility.yul\":9747:10113   */\n      swap2\n      swap1\n      pop\n      jump\t// out\n        /* \"#utility.yul\":10119:10538   */\n    tag_118:\n        /* \"#utility.yul\":10285:10289   */\n      0x00\n        /* \"#utility.yul\":10323:10325   */\n      0x20\n        /* \"#utility.yul\":10312:10321   */\n      dup3\n        /* \"#utility.yul\":10308:10326   */\n      add\n        /* \"#utility.yul\":10300:10326   */\n      swap1\n      pop\n        /* \"#utility.yul\":10372:10381   */\n      dup2\n        /* \"#utility.yul\":10366:10370   */\n      dup2\n        /* \"#utility.yul\":10362:10382   */\n      sub\n        /* \"#utility.yul\":10358:10359   */\n      0x00\n        /* \"#utility.yul\":10347:10356   */\n      dup4\n        /* \"#utility.yul\":10343:10360   */\n      add\n        /* \"#utility.yul\":10336:10383   */\n      mstore\n        /* \"#utility.yul\":10400:10531   */\n      tag_359\n        /* \"#utility.yul\":10526:10530   */\n      dup2\n        /* \"#utility.yul\":10400:10531   */\n      tag_248\n      jump\t// in\n    tag_359:\n        /* \"#utility.yul\":10392:10531   */\n      swap1\n      pop\n        /* \"#utility.yul\":10119:10538   */\n      swap2\n      swap1\n      pop\n      jump\t// out\n        /* \"#utility.yul\":10544:10876   */\n    tag_121:\n        /* \"#utility.yul\":10665:10669   */\n      0x00\n        /* \"#utility.yul\":10703:10705   */\n      0x40\n        /* \"#utility.yul\":10692:10701   */\n      dup3\n        /* \"#utility.yul\":10688:10706   */\n      add\n        /* \"#utility.yul\":10680:10706   */\n      swap1\n      pop\n        /* \"#utility.yul\":10716:10787   */\n      tag_361\n        /* \"#utility.yul\":10784:10785   */\n      0x00\n        /* \"#utility.yul\":10773:10782   */\n      dup4\n        /* \"#utility.yul\":10769:10786   */\n      add\n        /* \"#utility.yul\":10760:10766   */\n      dup6\n        /* \"#utility.yul\":10716:10787   */\n      tag_222\n      jump\t// in\n    tag_361:\n        /* \"#utility.yul\":10797:10869   */\n      tag_362\n        /* \"#utility.yul\":10865:10867   */\n      0x20\n        /* \"#utility.yul\":10854:10863   */\n      dup4\n        /* \"#utility.yul\":10850:10868   */\n      add\n        /* \"#utility.yul\":10841:10847   */\n      dup5\n        /* \"#utility.yul\":10797:10869   */\n      tag_229\n      jump\t// in\n    tag_362:\n        /* \"#utility.yul\":10544:10876   */\n      swap4\n      swap3\n      pop\n      pop\n      pop\n      jump\t// out\n        /* \"#utility.yul\":10882:10998   */\n    tag_249:\n        /* \"#utility.yul\":10952:10973   */\n      tag_364\n        /* \"#utility.yul\":10967:10972   */\n      dup2\n        /* \"#utility.yul\":10952:10973   */\n      tag_236\n      jump\t// in\n    tag_364:\n        /* \"#utility.yul\":10945:10950   */\n      dup2\n        /* \"#utility.yul\":10942:10974   */\n      eq\n        /* \"#utility.yul\":10932:10992   */\n      tag_365\n      jumpi\n        /* \"#utility.yul\":10988:10989   */\n      0x00\n        /* \"#utility.yul\":10985:10986   */\n      dup1\n        /* \"#utility.yul\":10978:10990   */\n      revert\n        /* \"#utility.yul\":10932:10992   */\n    tag_365:\n        /* \"#utility.yul\":10882:10998   */\n      pop\n      jump\t// out\n        /* \"#utility.yul\":11004:11141   */\n    tag_250:\n        /* \"#utility.yul\":11058:11063   */\n      0x00\n        /* \"#utility.yul\":11089:11095   */\n      dup2\n        /* \"#utility.yul\":11083:11096   */\n      mload\n        /* \"#utility.yul\":11074:11096   */\n      swap1\n      pop\n        /* \"#utility.yul\":11105:11135   */\n      tag_367\n        /* \"#utility.yul\":11129:11134   */\n      dup2\n        /* \"#utility.yul\":11105:11135   */\n      tag_249\n      jump\t// in\n    tag_367:\n        /* \"#utility.yul\":11004:11141   */\n      swap3\n      swap2\n      pop\n      pop\n      jump\t// out\n        /* \"#utility.yul\":11147:11492   */\n    tag_125:\n        /* \"#utility.yul\":11214:11220   */\n      0x00\n        /* \"#utility.yul\":11263:11265   */\n      0x20\n        /* \"#utility.yul\":11251:11260   */\n      dup3\n        /* \"#utility.yul\":11242:11249   */\n      dup5\n        /* \"#utility.yul\":11238:11261   */\n      sub\n        /* \"#utility.yul\":11234:11266   */\n      slt\n        /* \"#utility.yul\":11231:11350   */\n      iszero\n      tag_369\n      jumpi\n        /* \"#utility.yul\":11269:11348   */\n      tag_370\n      tag_224\n      jump\t// in\n    tag_370:\n        /* \"#utility.yul\":11231:11350   */\n    tag_369:\n        /* \"#utility.yul\":11389:11390   */\n      0x00\n        /* \"#utility.yul\":11414:11475   */\n      tag_371\n        /* \"#utility.yul\":11467:11474   */\n      dup5\n        /* \"#utility.yul\":11458:11464   */\n      dup3\n        /* \"#utility.yul\":11447:11456   */\n      dup6\n        /* \"#utility.yul\":11443:11465   */\n      add\n        /* \"#utility.yul\":11414:11475   */\n      tag_250\n      jump\t// in\n    tag_371:\n        /* \"#utility.yul\":11404:11475   */\n      swap2\n      pop\n        /* \"#utility.yul\":11360:11485   */\n      pop\n        /* \"#utility.yul\":11147:11492   */\n      swap3\n      swap2\n      pop\n      pop\n      jump\t// out\n        /* \"#utility.yul\":11498:11670   */\n    tag_251:\n        /* \"#utility.yul\":11638:11662   */\n      0x546f6b656e31207472616e73666572206661696c656400000000000000000000\n        /* \"#utility.yul\":11634:11635   */\n      0x00\n        /* \"#utility.yul\":11626:11632   */\n      dup3\n        /* \"#utility.yul\":11622:11636   */\n      add\n        /* \"#utility.yul\":11615:11663   */\n      mstore\n        /* \"#utility.yul\":11498:11670   */\n      pop\n      jump\t// out\n        /* \"#utility.yul\":11676:12042   */\n    tag_252:\n        /* \"#utility.yul\":11818:11821   */\n      0x00\n        /* \"#utility.yul\":11839:11906   */\n      tag_374\n        /* \"#utility.yul\":11903:11905   */\n      0x16\n        /* \"#utility.yul\":11898:11901   */\n      dup4\n        /* \"#utility.yul\":11839:11906   */\n      tag_217\n      jump\t// in\n    tag_374:\n        /* \"#utility.yul\":11832:11906   */\n      swap2\n      pop\n        /* \"#utility.yul\":11915:12008   */\n      tag_375\n        /* \"#utility.yul\":12004:12007   */\n      dup3\n        /* \"#utility.yul\":11915:12008   */\n      tag_251\n      jump\t// in\n    tag_375:\n        /* \"#utility.yul\":12033:12035   */\n      0x20\n        /* \"#utility.yul\":12028:12031   */\n      dup3\n        /* \"#utility.yul\":12024:12036   */\n      add\n        /* \"#utility.yul\":12017:12036   */\n      swap1\n      pop\n        /* \"#utility.yul\":11676:12042   */\n      swap2\n      swap1\n      pop\n      jump\t// out\n        /* \"#utility.yul\":12048:12467   */\n    tag_128:\n        /* \"#utility.yul\":12214:12218   */\n      0x00\n        /* \"#utility.yul\":12252:12254   */\n      0x20\n        /* \"#utility.yul\":12241:12250   */\n      dup3\n        /* \"#utility.yul\":12237:12255   */\n      add\n        /* \"#utility.yul\":12229:12255   */\n      swap1\n      pop\n        /* \"#utility.yul\":12301:12310   */\n      dup2\n        /* \"#utility.yul\":12295:12299   */\n      dup2\n        /* \"#utility.yul\":12291:12311   */\n      sub\n        /* \"#utility.yul\":12287:12288   */\n      0x00\n        /* \"#utility.yul\":12276:12285   */\n      dup4\n        /* \"#utility.yul\":12272:12289   */\n      add\n        /* \"#utility.yul\":12265:12312   */\n      mstore\n        /* \"#utility.yul\":12329:12460   */\n      tag_377\n        /* \"#utility.yul\":12455:12459   */\n      dup2\n        /* \"#utility.yul\":12329:12460   */\n      tag_252\n      jump\t// in\n    tag_377:\n        /* \"#utility.yul\":12321:12460   */\n      swap1\n      pop\n        /* \"#utility.yul\":12048:12467   */\n      swap2\n      swap1\n      pop\n      jump\t// out\n        /* \"#utility.yul\":12473:12645   */\n    tag_253:\n        /* \"#utility.yul\":12613:12637   */\n      0x546f6b656e32207472616e73666572206661696c656400000000000000000000\n        /* \"#utility.yul\":12609:12610   */\n      0x00\n        /* \"#utility.yul\":12601:12607   */\n      dup3\n        /* \"#utility.yul\":12597:12611   */\n      add\n        /* \"#utility.yul\":12590:12638   */\n      mstore\n        /* \"#utility.yul\":12473:12645   */\n      pop\n      jump\t// out\n        /* \"#utility.yul\":12651:13017   */\n    tag_254:\n        /* \"#utility.yul\":12793:12796   */\n      0x00\n        /* \"#utility.yul\":12814:12881   */\n      tag_380\n        /* \"#utility.yul\":12878:12880   */\n      0x16\n        /* \"#utility.yul\":12873:12876   */\n      dup4\n        /* \"#utility.yul\":12814:12881   */\n      tag_217\n      jump\t// in\n    tag_380:\n        /* \"#utility.yul\":12807:12881   */\n      swap2\n      pop\n        /* \"#utility.yul\":12890:12983   */\n      tag_381\n        /* \"#utility.yul\":12979:12982   */\n      dup3\n        /* \"#utility.yul\":12890:12983   */\n      tag_253\n      jump\t// in\n    tag_381:\n        /* \"#utility.yul\":13008:13010   */\n      0x20\n        /* \"#utility.yul\":13003:13006   */\n      dup3\n        /* \"#utility.yul\":12999:13011   */\n      add\n        /* \"#utility.yul\":12992:13011   */\n      swap1\n      pop\n        /* \"#utility.yul\":12651:13017   */\n      swap2\n      swap1\n      pop\n      jump\t// out\n        /* \"#utility.yul\":13023:13442   */\n    tag_137:\n        /* \"#utility.yul\":13189:13193   */\n      0x00\n        /* \"#utility.yul\":13227:13229   */\n      0x20\n        /* \"#utility.yul\":13216:13225   */\n      dup3\n        /* \"#utility.yul\":13212:13230   */\n      add\n        /* \"#utility.yul\":13204:13230   */\n      swap1\n      pop\n        /* \"#utility.yul\":13276:13285   */\n      dup2\n        /* \"#utility.yul\":13270:13274   */\n      dup2\n        /* \"#utility.yul\":13266:13286   */\n      sub\n        /* \"#utility.yul\":13262:13263   */\n      0x00\n        /* \"#utility.yul\":13251:13260   */\n      dup4\n        /* \"#utility.yul\":13247:13264   */\n      add\n        /* \"#utility.yul\":13240:13287   */\n      mstore\n        /* \"#utility.yul\":13304:13435   */\n      tag_383\n        /* \"#utility.yul\":13430:13434   */\n      dup2\n        /* \"#utility.yul\":13304:13435   */\n      tag_254\n      jump\t// in\n    tag_383:\n        /* \"#utility.yul\":13296:13435   */\n      swap1\n      pop\n        /* \"#utility.yul\":13023:13442   */\n      swap2\n      swap1\n      pop\n      jump\t// out\n        /* \"#utility.yul\":13448:13612   */\n    tag_255:\n        /* \"#utility.yul\":13588:13604   */\n      0x4e6f7420617574686f72697a6564000000000000000000000000000000000000\n        /* \"#utility.yul\":13584:13585   */\n      0x00\n        /* \"#utility.yul\":13576:13582   */\n      dup3\n        /* \"#utility.yul\":13572:13586   */\n      add\n        /* \"#utility.yul\":13565:13605   */\n      mstore\n        /* \"#utility.yul\":13448:13612   */\n      pop\n      jump\t// out\n        /* \"#utility.yul\":13618:13984   */\n    tag_256:\n        /* \"#utility.yul\":13760:13763   */\n      0x00\n        /* \"#utility.yul\":13781:13848   */\n      tag_386\n        /* \"#utility.yul\":13845:13847   */\n      0x0e\n        /* \"#utility.yul\":13840:13843   */\n      dup4\n        /* \"#utility.yul\":13781:13848   */\n      tag_217\n      jump\t// in\n    tag_386:\n        /* \"#utility.yul\":13774:13848   */\n      swap2\n      pop\n        /* \"#utility.yul\":13857:13950   */\n      tag_387\n        /* \"#utility.yul\":13946:13949   */\n      dup3\n        /* \"#utility.yul\":13857:13950   */\n      tag_255\n      jump\t// in\n    tag_387:\n        /* \"#utility.yul\":13975:13977   */\n      0x20\n        /* \"#utility.yul\":13970:13973   */\n      dup3\n        /* \"#utility.yul\":13966:13978   */\n      add\n        /* \"#utility.yul\":13959:13978   */\n      swap1\n      pop\n        /* \"#utility.yul\":13618:13984   */\n      swap2\n      swap1\n      pop\n      jump\t// out\n        /* \"#utility.yul\":13990:14409   */\n    tag_144:\n        /* \"#utility.yul\":14156:14160   */\n      0x00\n        /* \"#utility.yul\":14194:14196   */\n      0x20\n        /* \"#utility.yul\":14183:14192   */\n      dup3\n        /* \"#utility.yul\":14179:14197   */\n      add\n        /* \"#utility.yul\":14171:14197   */\n      swap1\n      pop\n        /* \"#utility.yul\":14243:14252   */\n      dup2\n        /* \"#utility.yul\":14237:14241   */\n      dup2\n        /* \"#utility.yul\":14233:14253   */\n      sub\n        /* \"#utility.yul\":14229:14230   */\n      0x00\n        /* \"#utility.yul\":14218:14227   */\n      dup4\n        /* \"#utility.yul\":14214:14231   */\n      add\n        /* \"#utility.yul\":14207:14254   */\n      mstore\n        /* \"#utility.yul\":14271:14402   */\n      tag_389\n        /* \"#utility.yul\":14397:14401   */\n      dup2\n        /* \"#utility.yul\":14271:14402   */\n      tag_256\n      jump\t// in\n    tag_389:\n        /* \"#utility.yul\":14263:14402   */\n      swap1\n      pop\n        /* \"#utility.yul\":13990:14409   */\n      swap2\n      swap1\n      pop\n      jump\t// out\n        /* \"#utility.yul\":14415:14585   */\n    tag_257:\n        /* \"#utility.yul\":14555:14577   */\n      0x5377617020646561646c696e6520706173736564000000000000000000000000\n        /* \"#utility.yul\":14551:14552   */\n      0x00\n        /* \"#utility.yul\":14543:14549   */\n      dup3\n        /* \"#utility.yul\":14539:14553   */\n      add\n        /* \"#utility.yul\":14532:14578   */\n      mstore\n        /* \"#utility.yul\":14415:14585   */\n      pop\n      jump\t// out\n        /* \"#utility.yul\":14591:14957   */\n    tag_258:\n        /* \"#utility.yul\":14733:14736   */\n      0x00\n        /* \"#utility.yul\":14754:14821   */\n      tag_392\n        /* \"#utility.yul\":14818:14820   */\n      0x14\n        /* \"#utility.yul\":14813:14816   */\n      dup4\n        /* \"#utility.yul\":14754:14821   */\n      tag_217\n      jump\t// in\n    tag_392:\n        /* \"#utility.yul\":14747:14821   */\n      swap2\n      pop\n        /* \"#utility.yul\":14830:14923   */\n      tag_393\n        /* \"#utility.yul\":14919:14922   */\n      dup3\n        /* \"#utility.yul\":14830:14923   */\n      tag_257\n      jump\t// in\n    tag_393:\n        /* \"#utility.yul\":14948:14950   */\n      0x20\n        /* \"#utility.yul\":14943:14946   */\n      dup3\n        /* \"#utility.yul\":14939:14951   */\n      add\n        /* \"#utility.yul\":14932:14951   */\n      swap1\n      pop\n        /* \"#utility.yul\":14591:14957   */\n      swap2\n      swap1\n      pop\n      jump\t// out\n        /* \"#utility.yul\":14963:15382   */\n    tag_148:\n        /* \"#utility.yul\":15129:15133   */\n      0x00\n        /* \"#utility.yul\":15167:15169   */\n      0x20\n        /* \"#utility.yul\":15156:15165   */\n      dup3\n        /* \"#utility.yul\":15152:15170   */\n      add\n        /* \"#utility.yul\":15144:15170   */\n      swap1\n      pop\n        /* \"#utility.yul\":15216:15225   */\n      dup2\n        /* \"#utility.yul\":15210:15214   */\n      dup2\n        /* \"#utility.yul\":15206:15226   */\n      sub\n        /* \"#utility.yul\":15202:15203   */\n      0x00\n        /* \"#utility.yul\":15191:15200   */\n      dup4\n        /* \"#utility.yul\":15187:15204   */\n      add\n        /* \"#utility.yul\":15180:15227   */\n      mstore\n        /* \"#utility.yul\":15244:15375   */\n      tag_395\n        /* \"#utility.yul\":15370:15374   */\n      dup2\n        /* \"#utility.yul\":15244:15375   */\n      tag_258\n      jump\t// in\n    tag_395:\n        /* \"#utility.yul\":15236:15375   */\n      swap1\n      pop\n        /* \"#utility.yul\":14963:15382   */\n      swap2\n      swap1\n      pop\n      jump\t// out\n        /* \"#utility.yul\":15388:15623   */\n    tag_259:\n        /* \"#utility.yul\":15528:15562   */\n      0x4e657720646561646c696e65206d757374206265206c61746572207468616e20\n        /* \"#utility.yul\":15524:15525   */\n      0x00\n        /* \"#utility.yul\":15516:15522   */\n      dup3\n        /* \"#utility.yul\":15512:15526   */\n      add\n        /* \"#utility.yul\":15505:15563   */\n      mstore\n        /* \"#utility.yul\":15597:15615   */\n      0x63757272656e7420646561646c696e6500000000000000000000000000000000\n        /* \"#utility.yul\":15592:15594   */\n      0x20\n        /* \"#utility.yul\":15584:15590   */\n      dup3\n        /* \"#utility.yul\":15580:15595   */\n      add\n        /* \"#utility.yul\":15573:15616   */\n      mstore\n        /* \"#utility.yul\":15388:15623   */\n      pop\n      jump\t// out\n        /* \"#utility.yul\":15629:15995   */\n    tag_260:\n        /* \"#utility.yul\":15771:15774   */\n      0x00\n        /* \"#utility.yul\":15792:15859   */\n      tag_398\n        /* \"#utility.yul\":15856:15858   */\n      0x30\n        /* \"#utility.yul\":15851:15854   */\n      dup4\n        /* \"#utility.yul\":15792:15859   */\n      tag_217\n      jump\t// in\n    tag_398:\n        /* \"#utility.yul\":15785:15859   */\n      swap2\n      pop\n        /* \"#utility.yul\":15868:15961   */\n      tag_399\n        /* \"#utility.yul\":15957:15960   */\n      dup3\n        /* \"#utility.yul\":15868:15961   */\n      tag_259\n      jump\t// in\n    tag_399:\n        /* \"#utility.yul\":15986:15988   */\n      0x40\n        /* \"#utility.yul\":15981:15984   */\n      dup3\n        /* \"#utility.yul\":15977:15989   */\n      add\n        /* \"#utility.yul\":15970:15989   */\n      swap1\n      pop\n        /* \"#utility.yul\":15629:15995   */\n      swap2\n      swap1\n      pop\n      jump\t// out\n        /* \"#utility.yul\":16001:16420   */\n    tag_152:\n        /* \"#utility.yul\":16167:16171   */\n      0x00\n        /* \"#utility.yul\":16205:16207   */\n      0x20\n        /* \"#utility.yul\":16194:16203   */\n      dup3\n        /* \"#utility.yul\":16190:16208   */\n      add\n        /* \"#utility.yul\":16182:16208   */\n      swap1\n      pop\n        /* \"#utility.yul\":16254:16263   */\n      dup2\n        /* \"#utility.yul\":16248:16252   */\n      dup2\n        /* \"#utility.yul\":16244:16264   */\n      sub\n        /* \"#utility.yul\":16240:16241   */\n      0x00\n        /* \"#utility.yul\":16229:16238   */\n      dup4\n        /* \"#utility.yul\":16225:16242   */\n      add\n        /* \"#utility.yul\":16218:16265   */\n      mstore\n        /* \"#utility.yul\":16282:16413   */\n      tag_401\n        /* \"#utility.yul\":16408:16412   */\n      dup2\n        /* \"#utility.yul\":16282:16413   */\n      tag_260\n      jump\t// in\n    tag_401:\n        /* \"#utility.yul\":16274:16413   */\n      swap1\n      pop\n        /* \"#utility.yul\":16001:16420   */\n      swap2\n      swap1\n      pop\n      jump\t// out\n        /* \"#utility.yul\":16426:16868   */\n    tag_165:\n        /* \"#utility.yul\":16575:16579   */\n      0x00\n        /* \"#utility.yul\":16613:16615   */\n      0x60\n        /* \"#utility.yul\":16602:16611   */\n      dup3\n        /* \"#utility.yul\":16598:16616   */\n      add\n        /* \"#utility.yul\":16590:16616   */\n      swap1\n      pop\n        /* \"#utility.yul\":16626:16697   */\n      tag_403\n        /* \"#utility.yul\":16694:16695   */\n      0x00\n        /* \"#utility.yul\":16683:16692   */\n      dup4\n        /* \"#utility.yul\":16679:16696   */\n      add\n        /* \"#utility.yul\":16670:16676   */\n      dup7\n        /* \"#utility.yul\":16626:16697   */\n      tag_222\n      jump\t// in\n    tag_403:\n        /* \"#utility.yul\":16707:16779   */\n      tag_404\n        /* \"#utility.yul\":16775:16777   */\n      0x20\n        /* \"#utility.yul\":16764:16773   */\n      dup4\n        /* \"#utility.yul\":16760:16778   */\n      add\n        /* \"#utility.yul\":16751:16757   */\n      dup6\n        /* \"#utility.yul\":16707:16779   */\n      tag_222\n      jump\t// in\n    tag_404:\n        /* \"#utility.yul\":16789:16861   */\n      tag_405\n        /* \"#utility.yul\":16857:16859   */\n      0x40\n        /* \"#utility.yul\":16846:16855   */\n      dup4\n        /* \"#utility.yul\":16842:16860   */\n      add\n        /* \"#utility.yul\":16833:16839   */\n      dup5\n        /* \"#utility.yul\":16789:16861   */\n      tag_229\n      jump\t// in\n    tag_405:\n        /* \"#utility.yul\":16426:16868   */\n      swap5\n      swap4\n      pop\n      pop\n      pop\n      pop\n      jump\t// out\n        /* \"#utility.yul\":16874:17054   */\n    tag_261:\n        /* \"#utility.yul\":16922:16999   */\n      0x4e487b7100000000000000000000000000000000000000000000000000000000\n        /* \"#utility.yul\":16919:16920   */\n      0x00\n        /* \"#utility.yul\":16912:17000   */\n      mstore\n        /* \"#utility.yul\":17019:17023   */\n      0x11\n        /* \"#utility.yul\":17016:17017   */\n      0x04\n        /* \"#utility.yul\":17009:17024   */\n      mstore\n        /* \"#utility.yul\":17043:17047   */\n      0x24\n        /* \"#utility.yul\":17040:17041   */\n      0x00\n        /* \"#utility.yul\":17033:17048   */\n      revert\n        /* \"#utility.yul\":17060:17251   */\n    tag_199:\n        /* \"#utility.yul\":17100:17103   */\n      0x00\n        /* \"#utility.yul\":17119:17139   */\n      tag_408\n        /* \"#utility.yul\":17137:17138   */\n      dup3\n        /* \"#utility.yul\":17119:17139   */\n      tag_228\n      jump\t// in\n    tag_408:\n        /* \"#utility.yul\":17114:17139   */\n      swap2\n      pop\n        /* \"#utility.yul\":17153:17173   */\n      tag_409\n        /* \"#utility.yul\":17171:17172   */\n      dup4\n        /* \"#utility.yul\":17153:17173   */\n      tag_228\n      jump\t// in\n    tag_409:\n        /* \"#utility.yul\":17148:17173   */\n      swap3\n      pop\n        /* \"#utility.yul\":17196:17197   */\n      dup3\n        /* \"#utility.yul\":17193:17194   */\n      dup3\n        /* \"#utility.yul\":17189:17198   */\n      add\n        /* \"#utility.yul\":17182:17198   */\n      swap1\n      pop\n        /* \"#utility.yul\":17217:17220   */\n      dup1\n        /* \"#utility.yul\":17214:17215   */\n      dup3\n        /* \"#utility.yul\":17211:17221   */\n      gt\n        /* \"#utility.yul\":17208:17244   */\n      iszero\n      tag_410\n      jumpi\n        /* \"#utility.yul\":17224:17242   */\n      tag_411\n      tag_261\n      jump\t// in\n    tag_411:\n        /* \"#utility.yul\":17208:17244   */\n    tag_410:\n        /* \"#utility.yul\":17060:17251   */\n      swap3\n      swap2\n      pop\n      pop\n      jump\t// out\n        /* \"#utility.yul\":17257:17431   */\n    tag_262:\n        /* \"#utility.yul\":17397:17423   */\n      0x5377617020677261636520706572696f64207061737365640000000000000000\n        /* \"#utility.yul\":17393:17394   */\n      0x00\n        /* \"#utility.yul\":17385:17391   */\n      dup3\n        /* \"#utility.yul\":17381:17395   */\n      add\n        /* \"#utility.yul\":17374:17424   */\n      mstore\n        /* \"#utility.yul\":17257:17431   */\n      pop\n      jump\t// out\n        /* \"#utility.yul\":17437:17803   */\n    tag_263:\n        /* \"#utility.yul\":17579:17582   */\n      0x00\n        /* \"#utility.yul\":17600:17667   */\n      tag_414\n        /* \"#utility.yul\":17664:17666   */\n      0x18\n        /* \"#utility.yul\":17659:17662   */\n      dup4\n        /* \"#utility.yul\":17600:17667   */\n      tag_217\n      jump\t// in\n    tag_414:\n        /* \"#utility.yul\":17593:17667   */\n      swap2\n      pop\n        /* \"#utility.yul\":17676:17769   */\n      tag_415\n        /* \"#utility.yul\":17765:17768   */\n      dup3\n        /* \"#utility.yul\":17676:17769   */\n      tag_262\n      jump\t// in\n    tag_415:\n        /* \"#utility.yul\":17794:17796   */\n      0x20\n        /* \"#utility.yul\":17789:17792   */\n      dup3\n        /* \"#utility.yul\":17785:17797   */\n      add\n        /* \"#utility.yul\":17778:17797   */\n      swap1\n      pop\n        /* \"#utility.yul\":17437:17803   */\n      swap2\n      swap1\n      pop\n      jump\t// out\n        /* \"#utility.yul\":17809:18228   */\n    tag_202:\n        /* \"#utility.yul\":17975:17979   */\n      0x00\n        /* \"#utility.yul\":18013:18015   */\n      0x20\n        /* \"#utility.yul\":18002:18011   */\n      dup3\n        /* \"#utility.yul\":17998:18016   */\n      add\n        /* \"#utility.yul\":17990:18016   */\n      swap1\n      pop\n        /* \"#utility.yul\":18062:18071   */\n      dup2\n        /* \"#utility.yul\":18056:18060   */\n      dup2\n        /* \"#utility.yul\":18052:18072   */\n      sub\n        /* \"#utility.yul\":18048:18049   */\n      0x00\n        /* \"#utility.yul\":18037:18046   */\n      dup4\n        /* \"#utility.yul\":18033:18050   */\n      add\n        /* \"#utility.yul\":18026:18073   */\n      mstore\n        /* \"#utility.yul\":18090:18221   */\n      tag_417\n        /* \"#utility.yul\":18216:18220   */\n      dup2\n        /* \"#utility.yul\":18090:18221   */\n      tag_263\n      jump\t// in\n    tag_417:\n        /* \"#utility.yul\":18082:18221   */\n      swap1\n      pop\n        /* \"#utility.yul\":17809:18228   */\n      swap2\n      swap1\n      pop\n      jump\t// out\n        /* \"#utility.yul\":18234:18415   */\n    tag_264:\n        /* \"#utility.yul\":18374:18407   */\n      0x5265656e7472616e637947756172643a207265656e7472616e742063616c6c00\n        /* \"#utility.yul\":18370:18371   */\n      0x00\n        /* \"#utility.yul\":18362:18368   */\n      dup3\n        /* \"#utility.yul\":18358:18372   */\n      add\n        /* \"#utility.yul\":18351:18408   */\n      mstore\n        /* \"#utility.yul\":18234:18415   */\n      pop\n      jump\t// out\n        /* \"#utility.yul\":18421:18787   */\n    tag_265:\n        /* \"#utility.yul\":18563:18566   */\n      0x00\n        /* \"#utility.yul\":18584:18651   */\n      tag_420\n        /* \"#utility.yul\":18648:18650   */\n      0x1f\n        /* \"#utility.yul\":18643:18646   */\n      dup4\n        /* \"#utility.yul\":18584:18651   */\n      tag_217\n      jump\t// in\n    tag_420:\n        /* \"#utility.yul\":18577:18651   */\n      swap2\n      pop\n        /* \"#utility.yul\":18660:18753   */\n      tag_421\n        /* \"#utility.yul\":18749:18752   */\n      dup3\n        /* \"#utility.yul\":18660:18753   */\n      tag_264\n      jump\t// in\n    tag_421:\n        /* \"#utility.yul\":18778:18780   */\n      0x20\n        /* \"#utility.yul\":18773:18776   */\n      dup3\n        /* \"#utility.yul\":18769:18781   */\n      add\n        /* \"#utility.yul\":18762:18781   */\n      swap1\n      pop\n        /* \"#utility.yul\":18421:18787   */\n      swap2\n      swap1\n      pop\n      jump\t// out\n        /* \"#utility.yul\":18793:19212   */\n    tag_215:\n        /* \"#utility.yul\":18959:18963   */\n      0x00\n        /* \"#utility.yul\":18997:18999   */\n      0x20\n        /* \"#utility.yul\":18986:18995   */\n      dup3\n        /* \"#utility.yul\":18982:19000   */\n      add\n        /* \"#utility.yul\":18974:19000   */\n      swap1\n      pop\n        /* \"#utility.yul\":19046:19055   */\n      dup2\n        /* \"#utility.yul\":19040:19044   */\n      dup2\n        /* \"#utility.yul\":19036:19056   */\n      sub\n        /* \"#utility.yul\":19032:19033   */\n      0x00\n        /* \"#utility.yul\":19021:19030   */\n      dup4\n        /* \"#utility.yul\":19017:19034   */\n      add\n        /* \"#utility.yul\":19010:19057   */\n      mstore\n        /* \"#utility.yul\":19074:19205   */\n      tag_423\n        /* \"#utility.yul\":19200:19204   */\n      dup2\n        /* \"#utility.yul\":19074:19205   */\n      tag_265\n      jump\t// in\n    tag_423:\n        /* \"#utility.yul\":19066:19205   */\n      swap1\n      pop\n        /* \"#utility.yul\":18793:19212   */\n      swap2\n      swap1\n      pop\n      jump\t// out\n\n    auxdata: 0xa26469706673582212203c2e5f14548af335578e58a6fa74d699f196ff7dd9abd354e0e59742779962ea64736f6c634300081a0033\n}\n",
				"bytecode": {
					"linkReferences": {},
					"object": "6080604052610e10600855348015610015575f80fd5b5060405161206e38038061206e833981810160405281019061003791906102e5565b60015f819055508660015f6101000a81548173ffffffffffffffffffffffffffffffffffffffff021916908373ffffffffffffffffffffffffffffffffffffffff1602179055508560025f6101000a81548173ffffffffffffffffffffffffffffffffffffffff021916908373ffffffffffffffffffffffffffffffffffffffff1602179055508460035f6101000a81548173ffffffffffffffffffffffffffffffffffffffff021916908373ffffffffffffffffffffffffffffffffffffffff1602179055508360045f6101000a81548173ffffffffffffffffffffffffffffffffffffffff021916908373ffffffffffffffffffffffffffffffffffffffff1602179055508260058190555081600681905550806007819055505f600960026101000a81548160ff0219169083600281111561017857610177610382565b5b02179055505f600960016101000a81548160ff02191690831515021790555060045f9054906101000a900473ffffffffffffffffffffffffffffffffffffffff1673ffffffffffffffffffffffffffffffffffffffff1660035f9054906101000a900473ffffffffffffffffffffffffffffffffffffffff1673ffffffffffffffffffffffffffffffffffffffff167ffc3eb8351f9df30f567bb7d6d56b6d7c99971e6b5941492585c7439a895f252c600554600654600754604051610240939291906103be565b60405180910390a3505050505050506103f3565b5f80fd5b5f73ffffffffffffffffffffffffffffffffffffffff82169050919050565b5f61028182610258565b9050919050565b61029181610277565b811461029b575f80fd5b50565b5f815190506102ac81610288565b92915050565b5f819050919050565b6102c4816102b2565b81146102ce575f80fd5b50565b5f815190506102df816102bb565b92915050565b5f805f805f805f60e0888a031215610300576102ff610254565b5b5f61030d8a828b0161029e565b975050602061031e8a828b0161029e565b965050604061032f8a828b0161029e565b95505060606103408a828b0161029e565b94505060806103518a828b016102d1565b93505060a06103628a828b016102d1565b92505060c06103738a828b016102d1565b91505092959891949750929550565b7f4e487b71000000000000000000000000000000000000000000000000000000005f52602160045260245ffd5b6103b8816102b2565b82525050565b5f6060820190506103d15f8301866103af565b6103de60208301856103af565b6103eb60408301846103af565b949350505050565b611c6e806104005f395ff3fe6080604052600436106100e0575f3560e01c8063389b75331161007e578063b17242b511610058578063b17242b5146102ba578063d21220a7146102d0578063ee8c4aca146102fa578063fa391c6414610324576100e7565b8063389b7533146102525780639b18182a1461027a578063a06db7dc14610290576100e7565b8063200d2ed2116100ba578063200d2ed2146101aa57806325be124e146101d457806329040113146101fe57806329dcb0cf14610228576100e7565b806310e1d8ca1461012e57806316114acd146101585780631ae1661d14610180576100e7565b366100e757005b3480156100f2575f80fd5b506040517f08c379a0000000000000000000000000000000000000000000000000000000008152600401610125906113ce565b60405180910390fd5b348015610139575f80fd5b5061014261034e565b60405161014f919061142b565b60405180910390f35b348015610163575f80fd5b5061017e60048036038101906101799190611472565b610373565b005b34801561018b575f80fd5b50610194610943565b6040516101a191906114b5565b60405180910390f35b3480156101b5575f80fd5b506101be610949565b6040516101cb9190611541565b60405180910390f35b3480156101df575f80fd5b506101e861095c565b6040516101f5919061142b565b60405180910390f35b348015610209575f80fd5b50610212610981565b60405161021f919061142b565b60405180910390f35b348015610233575f80fd5b5061023c6109a6565b60405161024991906114b5565b60405180910390f35b34801561025d575f80fd5b5061027860048036038101906102739190611584565b6109ac565b005b348015610285575f80fd5b5061028e610b04565b005b34801561029b575f80fd5b506102a46110e2565b6040516102b191906114b5565b60405180910390f35b3480156102c5575f80fd5b506102ce6110e8565b005b3480156102db575f80fd5b506102e46112e0565b6040516102f1919061142b565b60405180910390f35b348015610305575f80fd5b5061030e611305565b60405161031b91906114b5565b60405180910390f35b34801561032f575f80fd5b5061033861130b565b60405161034591906115c9565b60405180910390f35b60035f9054906101000a900473ffffffffffffffffffffffffffffffffffffffff1681565b6007544210156103b8576040517f08c379a00000000000000000000000000000000000000000000000000000000081526004016103af9061162c565b60405180910390fd5b5f60095f9054906101000a900460ff1660ff161461040b576040517f08c379a000000000000000000000000000000000000000000000000000000000815260040161040290611694565b60405180910390fd5b61041361131e565b600280811115610426576104256114ce565b5b600960029054906101000a900460ff166002811115610448576104476114ce565b5b14610488576040517f08c379a000000000000000000000000000000000000000000000000000000000815260040161047f906116fc565b60405180910390fd5b60015f9054906101000a900473ffffffffffffffffffffffffffffffffffffffff1673ffffffffffffffffffffffffffffffffffffffff168173ffffffffffffffffffffffffffffffffffffffff16148061052f575060025f9054906101000a900473ffffffffffffffffffffffffffffffffffffffff1673ffffffffffffffffffffffffffffffffffffffff168173ffffffffffffffffffffffffffffffffffffffff16145b61056e576040517f08c379a000000000000000000000000000000000000000000000000000000000815260040161056590611764565b60405180910390fd5b5f8173ffffffffffffffffffffffffffffffffffffffff166370a08231306040518263ffffffff1660e01b81526004016105a8919061142b565b602060405180830381865afa1580156105c3573d5f803e3d5ffd5b505050506040513d601f19601f820116820180604052508101906105e79190611796565b90505f811161062b576040517f08c379a00000000000000000000000000000000000000000000000000000000081526004016106229061180b565b60405180910390fd5b60015f9054906101000a900473ffffffffffffffffffffffffffffffffffffffff1673ffffffffffffffffffffffffffffffffffffffff168273ffffffffffffffffffffffffffffffffffffffff16036107805760015f9054906101000a900473ffffffffffffffffffffffffffffffffffffffff1673ffffffffffffffffffffffffffffffffffffffff1663a9059cbb60035f9054906101000a900473ffffffffffffffffffffffffffffffffffffffff16836040518363ffffffff1660e01b81526004016106fc929190611829565b6020604051808303815f875af1158015610718573d5f803e3d5ffd5b505050506040513d601f19601f8201168201806040525081019061073c919061187a565b61077b576040517f08c379a0000000000000000000000000000000000000000000000000000000008152600401610772906118ef565b60405180910390fd5b6108d2565b60025f9054906101000a900473ffffffffffffffffffffffffffffffffffffffff1673ffffffffffffffffffffffffffffffffffffffff168273ffffffffffffffffffffffffffffffffffffffff16036108d15760025f9054906101000a900473ffffffffffffffffffffffffffffffffffffffff1673ffffffffffffffffffffffffffffffffffffffff1663a9059cbb60045f9054906101000a900473ffffffffffffffffffffffffffffffffffffffff16836040518363ffffffff1660e01b8152600401610851929190611829565b6020604051808303815f875af115801561086d573d5f803e3d5ffd5b505050506040513d601f19601f82011682018060405250810190610891919061187a565b6108d0576040517f08c379a00000000000000000000000000000000000000000000000000000000081526004016108c790611957565b60405180910390fd5b5b5b3373ffffffffffffffffffffffffffffffffffffffff168273ffffffffffffffffffffffffffffffffffffffff167f879f92dded0f26b83c3e00b12e0395dc72cfc3077343d1854ed6988edd1f90968360405161092f91906114b5565b60405180910390a35061094061136b565b50565b60065481565b600960029054906101000a900460ff1681565b60025f9054906101000a900473ffffffffffffffffffffffffffffffffffffffff1681565b60045f9054906101000a900473ffffffffffffffffffffffffffffffffffffffff1681565b60075481565b60035f9054906101000a900473ffffffffffffffffffffffffffffffffffffffff1673ffffffffffffffffffffffffffffffffffffffff163373ffffffffffffffffffffffffffffffffffffffff1614610a3b576040517f08c379a0000000000000000000000000000000000000000000000000000000008152600401610a32906119bf565b60405180910390fd5b6007544210610a7f576040517f08c379a0000000000000000000000000000000000000000000000000000000008152600401610a7690611a27565b60405180910390fd5b6007548111610ac3576040517f08c379a0000000000000000000000000000000000000000000000000000000008152600401610aba90611ab5565b60405180910390fd5b806007819055507fc7f2746aefc0d137a95df385581a90d8b73240b3e6724f8ecb10b58e88f0fb8b81604051610af991906114b5565b60405180910390a150565b6007544210610b48576040517f08c379a0000000000000000000000000000000000000000000000000000000008152600401610b3f90611a27565b60405180910390fd5b5f60095f9054906101000a900460ff1660ff1614610b9b576040517f08c379a0000000000000000000000000000000000000000000000000000000008152600401610b9290611694565b60405180910390fd5b610ba361131e565b60035f9054906101000a900473ffffffffffffffffffffffffffffffffffffffff1673ffffffffffffffffffffffffffffffffffffffff163373ffffffffffffffffffffffffffffffffffffffff1603610cfc5760015f9054906101000a900473ffffffffffffffffffffffffffffffffffffffff1673ffffffffffffffffffffffffffffffffffffffff166323b872dd60035f9054906101000a900473ffffffffffffffffffffffffffffffffffffffff16306005546040518463ffffffff1660e01b8152600401610c7893929190611ad3565b6020604051808303815f875af1158015610c94573d5f803e3d5ffd5b505050506040513d601f19601f82011682018060405250810190610cb8919061187a565b610cf7576040517f08c379a0000000000000000000000000000000000000000000000000000000008152600401610cee906118ef565b60405180910390fd5b610e91565b60045f9054906101000a900473ffffffffffffffffffffffffffffffffffffffff1673ffffffffffffffffffffffffffffffffffffffff163373ffffffffffffffffffffffffffffffffffffffff1603610e555760025f9054906101000a900473ffffffffffffffffffffffffffffffffffffffff1673ffffffffffffffffffffffffffffffffffffffff166323b872dd60045f9054906101000a900473ffffffffffffffffffffffffffffffffffffffff16306006546040518463ffffffff1660e01b8152600401610dd193929190611ad3565b6020604051808303815f875af1158015610ded573d5f803e3d5ffd5b505050506040513d601f19601f82011682018060405250810190610e11919061187a565b610e50576040517f08c379a0000000000000000000000000000000000000000000000000000000008152600401610e4790611957565b60405180910390fd5b610e90565b6040517f08c379a0000000000000000000000000000000000000000000000000000000008152600401610e87906119bf565b60405180910390fd5b5b60055460015f9054906101000a900473ffffffffffffffffffffffffffffffffffffffff1673ffffffffffffffffffffffffffffffffffffffff166370a08231306040518263ffffffff1660e01b8152600401610eee919061142b565b602060405180830381865afa158015610f09573d5f803e3d5ffd5b505050506040513d601f19601f82011682018060405250810190610f2d9190611796565b10158015610fd5575060065460025f9054906101000a900473ffffffffffffffffffffffffffffffffffffffff1673ffffffffffffffffffffffffffffffffffffffff166370a08231306040518263ffffffff1660e01b8152600401610f93919061142b565b602060405180830381865afa158015610fae573d5f803e3d5ffd5b505050506040513d601f19601f82011682018060405250810190610fd29190611796565b10155b156110d8576001600960026101000a81548160ff0219169083600281111561100057610fff6114ce565b5b0217905550600160095f6101000a81548160ff021916908360ff1602179055506001600960016101000a81548160ff02191690831515021790555060045f9054906101000a900473ffffffffffffffffffffffffffffffffffffffff1673ffffffffffffffffffffffffffffffffffffffff1660035f9054906101000a900473ffffffffffffffffffffffffffffffffffffffff1673ffffffffffffffffffffffffffffffffffffffff167f5878c0a795154a8aa084d028e758e18fcaa2abdabdba704774a01f35e105ff6760405160405180910390a35b6110e061136b565b565b60085481565b60075442101561112d576040517f08c379a00000000000000000000000000000000000000000000000000000000081526004016111249061162c565b60405180910390fd5b60085460075461113d9190611b35565b421061117e576040517f08c379a000000000000000000000000000000000000000000000000000000000815260040161117590611bb2565b60405180910390fd5b5f60095f9054906101000a900460ff1660ff16146111d1576040517f08c379a00000000000000000000000000000000000000000000000000000000081526004016111c890611694565b60405180910390fd5b6111d961131e565b6002600960026101000a81548160ff021916908360028111156111ff576111fe6114ce565b5b0217905550600160095f6101000a81548160ff021916908360ff1602179055506001600960016101000a81548160ff02191690831515021790555060045f9054906101000a900473ffffffffffffffffffffffffffffffffffffffff1673ffffffffffffffffffffffffffffffffffffffff1660035f9054906101000a900473ffffffffffffffffffffffffffffffffffffffff1673ffffffffffffffffffffffffffffffffffffffff167fa431e31006ba6ba15dff355126708becfe5d1c60d1b1e171c1bd7961dbb1d9b560405160405180910390a36112de61136b565b565b60015f9054906101000a900473ffffffffffffffffffffffffffffffffffffffff1681565b60055481565b600960019054906101000a900460ff1681565b60025f5403611362576040517f08c379a000000000000000000000000000000000000000000000000000000000815260040161135990611c1a565b60405180910390fd5b60025f81905550565b60015f81905550565b5f82825260208201905092915050565b7f4e6f20455448207472616e736665727320616c6c6f77656400000000000000005f82015250565b5f6113b8601883611374565b91506113c382611384565b602082019050919050565b5f6020820190508181035f8301526113e5816113ac565b9050919050565b5f73ffffffffffffffffffffffffffffffffffffffff82169050919050565b5f611415826113ec565b9050919050565b6114258161140b565b82525050565b5f60208201905061143e5f83018461141c565b92915050565b5f80fd5b6114518161140b565b811461145b575f80fd5b50565b5f8135905061146c81611448565b92915050565b5f6020828403121561148757611486611444565b5b5f6114948482850161145e565b91505092915050565b5f819050919050565b6114af8161149d565b82525050565b5f6020820190506114c85f8301846114a6565b92915050565b7f4e487b71000000000000000000000000000000000000000000000000000000005f52602160045260245ffd5b6003811061150c5761150b6114ce565b5b50565b5f81905061151c826114fb565b919050565b5f61152b8261150f565b9050919050565b61153b81611521565b82525050565b5f6020820190506115545f830184611532565b92915050565b6115638161149d565b811461156d575f80fd5b50565b5f8135905061157e8161155a565b92915050565b5f6020828403121561159957611598611444565b5b5f6115a684828501611570565b91505092915050565b5f8115159050919050565b6115c3816115af565b82525050565b5f6020820190506115dc5f8301846115ba565b92915050565b7f5377617020646561646c696e65206e6f742072656163686564000000000000005f82015250565b5f611616601983611374565b9150611621826115e2565b602082019050919050565b5f6020820190508181035f8301526116438161160a565b9050919050565b7f5377617020616c726561647920636f6d706c65746564000000000000000000005f82015250565b5f61167e601683611374565b91506116898261164a565b602082019050919050565b5f6020820190508181035f8301526116ab81611672565b9050919050565b7f53776170206e6f742065787069726564000000000000000000000000000000005f82015250565b5f6116e6601083611374565b91506116f1826116b2565b602082019050919050565b5f6020820190508181035f830152611713816116da565b9050919050565b7f496e76616c696420746f6b656e20666f72207265636f766572790000000000005f82015250565b5f61174e601a83611374565b91506117598261171a565b602082019050919050565b5f6020820190508181035f83015261177b81611742565b9050919050565b5f815190506117908161155a565b92915050565b5f602082840312156117ab576117aa611444565b5b5f6117b884828501611782565b91505092915050565b7f4e6f20746f6b656e7320746f207265636f7665720000000000000000000000005f82015250565b5f6117f5601483611374565b9150611800826117c1565b602082019050919050565b5f6020820190508181035f830152611822816117e9565b9050919050565b5f60408201905061183c5f83018561141c565b61184960208301846114a6565b9392505050565b611859816115af565b8114611863575f80fd5b50565b5f8151905061187481611850565b92915050565b5f6020828403121561188f5761188e611444565b5b5f61189c84828501611866565b91505092915050565b7f546f6b656e31207472616e73666572206661696c6564000000000000000000005f82015250565b5f6118d9601683611374565b91506118e4826118a5565b602082019050919050565b5f6020820190508181035f830152611906816118cd565b9050919050565b7f546f6b656e32207472616e73666572206661696c6564000000000000000000005f82015250565b5f611941601683611374565b915061194c8261190d565b602082019050919050565b5f6020820190508181035f83015261196e81611935565b9050919050565b7f4e6f7420617574686f72697a65640000000000000000000000000000000000005f82015250565b5f6119a9600e83611374565b91506119b482611975565b602082019050919050565b5f6020820190508181035f8301526119d68161199d565b9050919050565b7f5377617020646561646c696e65207061737365640000000000000000000000005f82015250565b5f611a11601483611374565b9150611a1c826119dd565b602082019050919050565b5f6020820190508181035f830152611a3e81611a05565b9050919050565b7f4e657720646561646c696e65206d757374206265206c61746572207468616e205f8201527f63757272656e7420646561646c696e6500000000000000000000000000000000602082015250565b5f611a9f603083611374565b9150611aaa82611a45565b604082019050919050565b5f6020820190508181035f830152611acc81611a93565b9050919050565b5f606082019050611ae65f83018661141c565b611af3602083018561141c565b611b0060408301846114a6565b949350505050565b7f4e487b71000000000000000000000000000000000000000000000000000000005f52601160045260245ffd5b5f611b3f8261149d565b9150611b4a8361149d565b9250828201905080821115611b6257611b61611b08565b5b92915050565b7f5377617020677261636520706572696f642070617373656400000000000000005f82015250565b5f611b9c601883611374565b9150611ba782611b68565b602082019050919050565b5f6020820190508181035f830152611bc981611b90565b9050919050565b7f5265656e7472616e637947756172643a207265656e7472616e742063616c6c005f82015250565b5f611c04601f83611374565b9150611c0f82611bd0565b602082019050919050565b5f6020820190508181035f830152611c3181611bf8565b905091905056fea26469706673582212203c2e5f14548af335578e58a6fa74d699f196ff7dd9abd354e0e59742779962ea64736f6c634300081a0033",
					"opcodes": "PUSH1 0x80 PUSH1 0x40 MSTORE PUSH2 0xE10 PUSH1 0x8 SSTORE CALLVALUE DUP1 ISZERO PUSH2 0x15 JUMPI PUSH0 DUP1 REVERT JUMPDEST POP PUSH1 0x40 MLOAD PUSH2 0x206E CODESIZE SUB DUP1 PUSH2 0x206E DUP4 CODECOPY DUP2 DUP2 ADD PUSH1 0x40 MSTORE DUP2 ADD SWAP1 PUSH2 0x37 SWAP2 SWAP1 PUSH2 0x2E5 JUMP JUMPDEST PUSH1 0x1 PUSH0 DUP2 SWAP1 SSTORE POP DUP7 PUSH1 0x1 PUSH0 PUSH2 0x100 EXP DUP2 SLOAD DUP2 PUSH20 0xFFFFFFFFFFFFFFFFFFFFFFFFFFFFFFFFFFFFFFFF MUL NOT AND SWAP1 DUP4 PUSH20 0xFFFFFFFFFFFFFFFFFFFFFFFFFFFFFFFFFFFFFFFF AND MUL OR SWAP1 SSTORE POP DUP6 PUSH1 0x2 PUSH0 PUSH2 0x100 EXP DUP2 SLOAD DUP2 PUSH20 0xFFFFFFFFFFFFFFFFFFFFFFFFFFFFFFFFFFFFFFFF MUL NOT AND SWAP1 DUP4 PUSH20 0xFFFFFFFFFFFFFFFFFFFFFFFFFFFFFFFFFFFFFFFF AND MUL OR SWAP1 SSTORE POP DUP5 PUSH1 0x3 PUSH0 PUSH2 0x100 EXP DUP2 SLOAD DUP2 PUSH20 0xFFFFFFFFFFFFFFFFFFFFFFFFFFFFFFFFFFFFFFFF MUL NOT AND SWAP1 DUP4 PUSH20 0xFFFFFFFFFFFFFFFFFFFFFFFFFFFFFFFFFFFFFFFF AND MUL OR SWAP1 SSTORE POP DUP4 PUSH1 0x4 PUSH0 PUSH2 0x100 EXP DUP2 SLOAD DUP2 PUSH20 0xFFFFFFFFFFFFFFFFFFFFFFFFFFFFFFFFFFFFFFFF MUL NOT AND SWAP1 DUP4 PUSH20 0xFFFFFFFFFFFFFFFFFFFFFFFFFFFFFFFFFFFFFFFF AND MUL OR SWAP1 SSTORE POP DUP3 PUSH1 0x5 DUP2 SWAP1 SSTORE POP DUP2 PUSH1 0x6 DUP2 SWAP1 SSTORE POP DUP1 PUSH1 0x7 DUP2 SWAP1 SSTORE POP PUSH0 PUSH1 0x9 PUSH1 0x2 PUSH2 0x100 EXP DUP2 SLOAD DUP2 PUSH1 0xFF MUL NOT AND SWAP1 DUP4 PUSH1 0x2 DUP2 GT ISZERO PUSH2 0x178 JUMPI PUSH2 0x177 PUSH2 0x382 JUMP JUMPDEST JUMPDEST MUL OR SWAP1 SSTORE POP PUSH0 PUSH1 0x9 PUSH1 0x1 PUSH2 0x100 EXP DUP2 SLOAD DUP2 PUSH1 0xFF MUL NOT AND SWAP1 DUP4 ISZERO ISZERO MUL OR SWAP1 SSTORE POP PUSH1 0x4 PUSH0 SWAP1 SLOAD SWAP1 PUSH2 0x100 EXP SWAP1 DIV PUSH20 0xFFFFFFFFFFFFFFFFFFFFFFFFFFFFFFFFFFFFFFFF AND PUSH20 0xFFFFFFFFFFFFFFFFFFFFFFFFFFFFFFFFFFFFFFFF AND PUSH1 0x3 PUSH0 SWAP1 SLOAD SWAP1 PUSH2 0x100 EXP SWAP1 DIV PUSH20 0xFFFFFFFFFFFFFFFFFFFFFFFFFFFFFFFFFFFFFFFF AND PUSH20 0xFFFFFFFFFFFFFFFFFFFFFFFFFFFFFFFFFFFFFFFF AND PUSH32 0xFC3EB8351F9DF30F567BB7D6D56B6D7C99971E6B5941492585C7439A895F252C PUSH1 0x5 SLOAD PUSH1 0x6 SLOAD PUSH1 0x7 SLOAD PUSH1 0x40 MLOAD PUSH2 0x240 SWAP4 SWAP3 SWAP2 SWAP1 PUSH2 0x3BE JUMP JUMPDEST PUSH1 0x40 MLOAD DUP1 SWAP2 SUB SWAP1 LOG3 POP POP POP POP POP POP POP PUSH2 0x3F3 JUMP JUMPDEST PUSH0 DUP1 REVERT JUMPDEST PUSH0 PUSH20 0xFFFFFFFFFFFFFFFFFFFFFFFFFFFFFFFFFFFFFFFF DUP3 AND SWAP1 POP SWAP2 SWAP1 POP JUMP JUMPDEST PUSH0 PUSH2 0x281 DUP3 PUSH2 0x258 JUMP JUMPDEST SWAP1 POP SWAP2 SWAP1 POP JUMP JUMPDEST PUSH2 0x291 DUP2 PUSH2 0x277 JUMP JUMPDEST DUP2 EQ PUSH2 0x29B JUMPI PUSH0 DUP1 REVERT JUMPDEST POP JUMP JUMPDEST PUSH0 DUP2 MLOAD SWAP1 POP PUSH2 0x2AC DUP2 PUSH2 0x288 JUMP JUMPDEST SWAP3 SWAP2 POP POP JUMP JUMPDEST PUSH0 DUP2 SWAP1 POP SWAP2 SWAP1 POP JUMP JUMPDEST PUSH2 0x2C4 DUP2 PUSH2 0x2B2 JUMP JUMPDEST DUP2 EQ PUSH2 0x2CE JUMPI PUSH0 DUP1 REVERT JUMPDEST POP JUMP JUMPDEST PUSH0 DUP2 MLOAD SWAP1 POP PUSH2 0x2DF DUP2 PUSH2 0x2BB JUMP JUMPDEST SWAP3 SWAP2 POP POP JUMP JUMPDEST PUSH0 DUP1 PUSH0 DUP1 PUSH0 DUP1 PUSH0 PUSH1 0xE0 DUP9 DUP11 SUB SLT ISZERO PUSH2 0x300 JUMPI PUSH2 0x2FF PUSH2 0x254 JUMP JUMPDEST JUMPDEST PUSH0 PUSH2 0x30D DUP11 DUP3 DUP12 ADD PUSH2 0x29E JUMP JUMPDEST SWAP8 POP POP PUSH1 0x20 PUSH2 0x31E DUP11 DUP3 DUP12 ADD PUSH2 0x29E JUMP JUMPDEST SWAP7 POP POP PUSH1 0x40 PUSH2 0x32F DUP11 DUP3 DUP12 ADD PUSH2 0x29E JUMP JUMPDEST SWAP6 POP POP PUSH1 0x60 PUSH2 0x340 DUP11 DUP3 DUP12 ADD PUSH2 0x29E JUMP JUMPDEST SWAP5 POP POP PUSH1 0x80 PUSH2 0x351 DUP11 DUP3 DUP12 ADD PUSH2 0x2D1 JUMP JUMPDEST SWAP4 POP POP PUSH1 0xA0 PUSH2 0x362 DUP11 DUP3 DUP12 ADD PUSH2 0x2D1 JUMP JUMPDEST SWAP3 POP POP PUSH1 0xC0 PUSH2 0x373 DUP11 DUP3 DUP12 ADD PUSH2 0x2D1 JUMP JUMPDEST SWAP2 POP POP SWAP3 SWAP6 SWAP9 SWAP2 SWAP5 SWAP8 POP SWAP3 SWAP6 POP JUMP JUMPDEST PUSH32 0x4E487B7100000000000000000000000000000000000000000000000000000000 PUSH0 MSTORE PUSH1 0x21 PUSH1 0x4 MSTORE PUSH1 0x24 PUSH0 REVERT JUMPDEST PUSH2 0x3B8 DUP2 PUSH2 0x2B2 JUMP JUMPDEST DUP3 MSTORE POP POP JUMP JUMPDEST PUSH0 PUSH1 0x60 DUP3 ADD SWAP1 POP PUSH2 0x3D1 PUSH0 DUP4 ADD DUP7 PUSH2 0x3AF JUMP JUMPDEST PUSH2 0x3DE PUSH1 0x20 DUP4 ADD DUP6 PUSH2 0x3AF JUMP JUMPDEST PUSH2 0x3EB PUSH1 0x40 DUP4 ADD DUP5 PUSH2 0x3AF JUMP JUMPDEST SWAP5 SWAP4 POP POP POP POP JUMP JUMPDEST PUSH2 0x1C6E DUP1 PUSH2 0x400 PUSH0 CODECOPY PUSH0 RETURN INVALID PUSH1 0x80 PUSH1 0x40 MSTORE PUSH1 0x4 CALLDATASIZE LT PUSH2 0xE0 JUMPI PUSH0 CALLDATALOAD PUSH1 0xE0 SHR DUP1 PUSH4 0x389B7533 GT PUSH2 0x7E JUMPI DUP1 PUSH4 0xB17242B5 GT PUSH2 0x58 JUMPI DUP1 PUSH4 0xB17242B5 EQ PUSH2 0x2BA JUMPI DUP1 PUSH4 0xD21220A7 EQ PUSH2 0x2D0 JUMPI DUP1 PUSH4 0xEE8C4ACA EQ PUSH2 0x2FA JUMPI DUP1 PUSH4 0xFA391C64 EQ PUSH2 0x324 JUMPI PUSH2 0xE7 JUMP JUMPDEST DUP1 PUSH4 0x389B7533 EQ PUSH2 0x252 JUMPI DUP1 PUSH4 0x9B18182A EQ PUSH2 0x27A JUMPI DUP1 PUSH4 0xA06DB7DC EQ PUSH2 0x290 JUMPI PUSH2 0xE7 JUMP JUMPDEST DUP1 PUSH4 0x200D2ED2 GT PUSH2 0xBA JUMPI DUP1 PUSH4 0x200D2ED2 EQ PUSH2 0x1AA JUMPI DUP1 PUSH4 0x25BE124E EQ PUSH2 0x1D4 JUMPI DUP1 PUSH4 0x29040113 EQ PUSH2 0x1FE JUMPI DUP1 PUSH4 0x29DCB0CF EQ PUSH2 0x228 JUMPI PUSH2 0xE7 JUMP JUMPDEST DUP1 PUSH4 0x10E1D8CA EQ PUSH2 0x12E JUMPI DUP1 PUSH4 0x16114ACD EQ PUSH2 0x158 JUMPI DUP1 PUSH4 0x1AE1661D EQ PUSH2 0x180 JUMPI PUSH2 0xE7 JUMP JUMPDEST CALLDATASIZE PUSH2 0xE7 JUMPI STOP JUMPDEST CALLVALUE DUP1 ISZERO PUSH2 0xF2 JUMPI PUSH0 DUP1 REVERT JUMPDEST POP PUSH1 0x40 MLOAD PUSH32 0x8C379A000000000000000000000000000000000000000000000000000000000 DUP2 MSTORE PUSH1 0x4 ADD PUSH2 0x125 SWAP1 PUSH2 0x13CE JUMP JUMPDEST PUSH1 0x40 MLOAD DUP1 SWAP2 SUB SWAP1 REVERT JUMPDEST CALLVALUE DUP1 ISZERO PUSH2 0x139 JUMPI PUSH0 DUP1 REVERT JUMPDEST POP PUSH2 0x142 PUSH2 0x34E JUMP JUMPDEST PUSH1 0x40 MLOAD PUSH2 0x14F SWAP2 SWAP1 PUSH2 0x142B JUMP JUMPDEST PUSH1 0x40 MLOAD DUP1 SWAP2 SUB SWAP1 RETURN JUMPDEST CALLVALUE DUP1 ISZERO PUSH2 0x163 JUMPI PUSH0 DUP1 REVERT JUMPDEST POP PUSH2 0x17E PUSH1 0x4 DUP1 CALLDATASIZE SUB DUP2 ADD SWAP1 PUSH2 0x179 SWAP2 SWAP1 PUSH2 0x1472 JUMP JUMPDEST PUSH2 0x373 JUMP JUMPDEST STOP JUMPDEST CALLVALUE DUP1 ISZERO PUSH2 0x18B JUMPI PUSH0 DUP1 REVERT JUMPDEST POP PUSH2 0x194 PUSH2 0x943 JUMP JUMPDEST PUSH1 0x40 MLOAD PUSH2 0x1A1 SWAP2 SWAP1 PUSH2 0x14B5 JUMP JUMPDEST PUSH1 0x40 MLOAD DUP1 SWAP2 SUB SWAP1 RETURN JUMPDEST CALLVALUE DUP1 ISZERO PUSH2 0x1B5 JUMPI PUSH0 DUP1 REVERT JUMPDEST POP PUSH2 0x1BE PUSH2 0x949 JUMP JUMPDEST PUSH1 0x40 MLOAD PUSH2 0x1CB SWAP2 SWAP1 PUSH2 0x1541 JUMP JUMPDEST PUSH1 0x40 MLOAD DUP1 SWAP2 SUB SWAP1 RETURN JUMPDEST CALLVALUE DUP1 ISZERO PUSH2 0x1DF JUMPI PUSH0 DUP1 REVERT JUMPDEST POP PUSH2 0x1E8 PUSH2 0x95C JUMP JUMPDEST PUSH1 0x40 MLOAD PUSH2 0x1F5 SWAP2 SWAP1 PUSH2 0x142B JUMP JUMPDEST PUSH1 0x40 MLOAD DUP1 SWAP2 SUB SWAP1 RETURN JUMPDEST CALLVALUE DUP1 ISZERO PUSH2 0x209 JUMPI PUSH0 DUP1 REVERT JUMPDEST POP PUSH2 0x212 PUSH2 0x981 JUMP JUMPDEST PUSH1 0x40 MLOAD PUSH2 0x21F SWAP2 SWAP1 PUSH2 0x142B JUMP JUMPDEST PUSH1 0x40 MLOAD DUP1 SWAP2 SUB SWAP1 RETURN JUMPDEST CALLVALUE DUP1 ISZERO PUSH2 0x233 JUMPI PUSH0 DUP1 REVERT JUMPDEST POP PUSH2 0x23C PUSH2 0x9A6 JUMP JUMPDEST PUSH1 0x40 MLOAD PUSH2 0x249 SWAP2 SWAP1 PUSH2 0x14B5 JUMP JUMPDEST PUSH1 0x40 MLOAD DUP1 SWAP2 SUB SWAP1 RETURN JUMPDEST CALLVALUE DUP1 ISZERO PUSH2 0x25D JUMPI PUSH0 DUP1 REVERT JUMPDEST POP PUSH2 0x278 PUSH1 0x4 DUP1 CALLDATASIZE SUB DUP2 ADD SWAP1 PUSH2 0x273 SWAP2 SWAP1 PUSH2 0x1584 JUMP JUMPDEST PUSH2 0x9AC JUMP JUMPDEST STOP JUMPDEST CALLVALUE DUP1 ISZERO PUSH2 0x285 JUMPI PUSH0 DUP1 REVERT JUMPDEST POP PUSH2 0x28E PUSH2 0xB04 JUMP JUMPDEST STOP JUMPDEST CALLVALUE DUP1 ISZERO PUSH2 0x29B JUMPI PUSH0 DUP1 REVERT JUMPDEST POP PUSH2 0x2A4 PUSH2 0x10E2 JUMP JUMPDEST PUSH1 0x40 MLOAD PUSH2 0x2B1 SWAP2 SWAP1 PUSH2 0x14B5 JUMP JUMPDEST PUSH1 0x40 MLOAD DUP1 SWAP2 SUB SWAP1 RETURN JUMPDEST CALLVALUE DUP1 ISZERO PUSH2 0x2C5 JUMPI PUSH0 DUP1 REVERT JUMPDEST POP PUSH2 0x2CE PUSH2 0x10E8 JUMP JUMPDEST STOP JUMPDEST CALLVALUE DUP1 ISZERO PUSH2 0x2DB JUMPI PUSH0 DUP1 REVERT JUMPDEST POP PUSH2 0x2E4 PUSH2 0x12E0 JUMP JUMPDEST PUSH1 0x40 MLOAD PUSH2 0x2F1 SWAP2 SWAP1 PUSH2 0x142B JUMP JUMPDEST PUSH1 0x40 MLOAD DUP1 SWAP2 SUB SWAP1 RETURN JUMPDEST CALLVALUE DUP1 ISZERO PUSH2 0x305 JUMPI PUSH0 DUP1 REVERT JUMPDEST POP PUSH2 0x30E PUSH2 0x1305 JUMP JUMPDEST PUSH1 0x40 MLOAD PUSH2 0x31B SWAP2 SWAP1 PUSH2 0x14B5 JUMP JUMPDEST PUSH1 0x40 MLOAD DUP1 SWAP2 SUB SWAP1 RETURN JUMPDEST CALLVALUE DUP1 ISZERO PUSH2 0x32F JUMPI PUSH0 DUP1 REVERT JUMPDEST POP PUSH2 0x338 PUSH2 0x130B JUMP JUMPDEST PUSH1 0x40 MLOAD PUSH2 0x345 SWAP2 SWAP1 PUSH2 0x15C9 JUMP JUMPDEST PUSH1 0x40 MLOAD DUP1 SWAP2 SUB SWAP1 RETURN JUMPDEST PUSH1 0x3 PUSH0 SWAP1 SLOAD SWAP1 PUSH2 0x100 EXP SWAP1 DIV PUSH20 0xFFFFFFFFFFFFFFFFFFFFFFFFFFFFFFFFFFFFFFFF AND DUP2 JUMP JUMPDEST PUSH1 0x7 SLOAD TIMESTAMP LT ISZERO PUSH2 0x3B8 JUMPI PUSH1 0x40 MLOAD PUSH32 0x8C379A000000000000000000000000000000000000000000000000000000000 DUP2 MSTORE PUSH1 0x4 ADD PUSH2 0x3AF SWAP1 PUSH2 0x162C JUMP JUMPDEST PUSH1 0x40 MLOAD DUP1 SWAP2 SUB SWAP1 REVERT JUMPDEST PUSH0 PUSH1 0x9 PUSH0 SWAP1 SLOAD SWAP1 PUSH2 0x100 EXP SWAP1 DIV PUSH1 0xFF AND PUSH1 0xFF AND EQ PUSH2 0x40B JUMPI PUSH1 0x40 MLOAD PUSH32 0x8C379A000000000000000000000000000000000000000000000000000000000 DUP2 MSTORE PUSH1 0x4 ADD PUSH2 0x402 SWAP1 PUSH2 0x1694 JUMP JUMPDEST PUSH1 0x40 MLOAD DUP1 SWAP2 SUB SWAP1 REVERT JUMPDEST PUSH2 0x413 PUSH2 0x131E JUMP JUMPDEST PUSH1 0x2 DUP1 DUP2 GT ISZERO PUSH2 0x426 JUMPI PUSH2 0x425 PUSH2 0x14CE JUMP JUMPDEST JUMPDEST PUSH1 0x9 PUSH1 0x2 SWAP1 SLOAD SWAP1 PUSH2 0x100 EXP SWAP1 DIV PUSH1 0xFF AND PUSH1 0x2 DUP2 GT ISZERO PUSH2 0x448 JUMPI PUSH2 0x447 PUSH2 0x14CE JUMP JUMPDEST JUMPDEST EQ PUSH2 0x488 JUMPI PUSH1 0x40 MLOAD PUSH32 0x8C379A000000000000000000000000000000000000000000000000000000000 DUP2 MSTORE PUSH1 0x4 ADD PUSH2 0x47F SWAP1 PUSH2 0x16FC JUMP JUMPDEST PUSH1 0x40 MLOAD DUP1 SWAP2 SUB SWAP1 REVERT JUMPDEST PUSH1 0x1 PUSH0 SWAP1 SLOAD SWAP1 PUSH2 0x100 EXP SWAP1 DIV PUSH20 0xFFFFFFFFFFFFFFFFFFFFFFFFFFFFFFFFFFFFFFFF AND PUSH20 0xFFFFFFFFFFFFFFFFFFFFFFFFFFFFFFFFFFFFFFFF AND DUP2 PUSH20 0xFFFFFFFFFFFFFFFFFFFFFFFFFFFFFFFFFFFFFFFF AND EQ DUP1 PUSH2 0x52F JUMPI POP PUSH1 0x2 PUSH0 SWAP1 SLOAD SWAP1 PUSH2 0x100 EXP SWAP1 DIV PUSH20 0xFFFFFFFFFFFFFFFFFFFFFFFFFFFFFFFFFFFFFFFF AND PUSH20 0xFFFFFFFFFFFFFFFFFFFFFFFFFFFFFFFFFFFFFFFF AND DUP2 PUSH20 0xFFFFFFFFFFFFFFFFFFFFFFFFFFFFFFFFFFFFFFFF AND EQ JUMPDEST PUSH2 0x56E JUMPI PUSH1 0x40 MLOAD PUSH32 0x8C379A000000000000000000000000000000000000000000000000000000000 DUP2 MSTORE PUSH1 0x4 ADD PUSH2 0x565 SWAP1 PUSH2 0x1764 JUMP JUMPDEST PUSH1 0x40 MLOAD DUP1 SWAP2 SUB SWAP1 REVERT JUMPDEST PUSH0 DUP2 PUSH20 0xFFFFFFFFFFFFFFFFFFFFFFFFFFFFFFFFFFFFFFFF AND PUSH4 0x70A08231 ADDRESS PUSH1 0x40 MLOAD DUP3 PUSH4 0xFFFFFFFF AND PUSH1 0xE0 SHL DUP2 MSTORE PUSH1 0x4 ADD PUSH2 0x5A8 SWAP2 SWAP1 PUSH2 0x142B JUMP JUMPDEST PUSH1 0x20 PUSH1 0x40 MLOAD DUP1 DUP4 SUB DUP2 DUP7 GAS STATICCALL ISZERO DUP1 ISZERO PUSH2 0x5C3 JUMPI RETURNDATASIZE PUSH0 DUP1 RETURNDATACOPY RETURNDATASIZE PUSH0 REVERT JUMPDEST POP POP POP POP PUSH1 0x40 MLOAD RETURNDATASIZE PUSH1 0x1F NOT PUSH1 0x1F DUP3 ADD AND DUP3 ADD DUP1 PUSH1 0x40 MSTORE POP DUP2 ADD SWAP1 PUSH2 0x5E7 SWAP2 SWAP1 PUSH2 0x1796 JUMP JUMPDEST SWAP1 POP PUSH0 DUP2 GT PUSH2 0x62B JUMPI PUSH1 0x40 MLOAD PUSH32 0x8C379A000000000000000000000000000000000000000000000000000000000 DUP2 MSTORE PUSH1 0x4 ADD PUSH2 0x622 SWAP1 PUSH2 0x180B JUMP JUMPDEST PUSH1 0x40 MLOAD DUP1 SWAP2 SUB SWAP1 REVERT JUMPDEST PUSH1 0x1 PUSH0 SWAP1 SLOAD SWAP1 PUSH2 0x100 EXP SWAP1 DIV PUSH20 0xFFFFFFFFFFFFFFFFFFFFFFFFFFFFFFFFFFFFFFFF AND PUSH20 0xFFFFFFFFFFFFFFFFFFFFFFFFFFFFFFFFFFFFFFFF AND DUP3 PUSH20 0xFFFFFFFFFFFFFFFFFFFFFFFFFFFFFFFFFFFFFFFF AND SUB PUSH2 0x780 JUMPI PUSH1 0x1 PUSH0 SWAP1 SLOAD SWAP1 PUSH2 0x100 EXP SWAP1 DIV PUSH20 0xFFFFFFFFFFFFFFFFFFFFFFFFFFFFFFFFFFFFFFFF AND PUSH20 0xFFFFFFFFFFFFFFFFFFFFFFFFFFFFFFFFFFFFFFFF AND PUSH4 0xA9059CBB PUSH1 0x3 PUSH0 SWAP1 SLOAD SWAP1 PUSH2 0x100 EXP SWAP1 DIV PUSH20 0xFFFFFFFFFFFFFFFFFFFFFFFFFFFFFFFFFFFFFFFF AND DUP4 PUSH1 0x40 MLOAD DUP4 PUSH4 0xFFFFFFFF AND PUSH1 0xE0 SHL DUP2 MSTORE PUSH1 0x4 ADD PUSH2 0x6FC SWAP3 SWAP2 SWAP1 PUSH2 0x1829 JUMP JUMPDEST PUSH1 0x20 PUSH1 0x40 MLOAD DUP1 DUP4 SUB DUP2 PUSH0 DUP8 GAS CALL ISZERO DUP1 ISZERO PUSH2 0x718 JUMPI RETURNDATASIZE PUSH0 DUP1 RETURNDATACOPY RETURNDATASIZE PUSH0 REVERT JUMPDEST POP POP POP POP PUSH1 0x40 MLOAD RETURNDATASIZE PUSH1 0x1F NOT PUSH1 0x1F DUP3 ADD AND DUP3 ADD DUP1 PUSH1 0x40 MSTORE POP DUP2 ADD SWAP1 PUSH2 0x73C SWAP2 SWAP1 PUSH2 0x187A JUMP JUMPDEST PUSH2 0x77B JUMPI PUSH1 0x40 MLOAD PUSH32 0x8C379A000000000000000000000000000000000000000000000000000000000 DUP2 MSTORE PUSH1 0x4 ADD PUSH2 0x772 SWAP1 PUSH2 0x18EF JUMP JUMPDEST PUSH1 0x40 MLOAD DUP1 SWAP2 SUB SWAP1 REVERT JUMPDEST PUSH2 0x8D2 JUMP JUMPDEST PUSH1 0x2 PUSH0 SWAP1 SLOAD SWAP1 PUSH2 0x100 EXP SWAP1 DIV PUSH20 0xFFFFFFFFFFFFFFFFFFFFFFFFFFFFFFFFFFFFFFFF AND PUSH20 0xFFFFFFFFFFFFFFFFFFFFFFFFFFFFFFFFFFFFFFFF AND DUP3 PUSH20 0xFFFFFFFFFFFFFFFFFFFFFFFFFFFFFFFFFFFFFFFF AND SUB PUSH2 0x8D1 JUMPI PUSH1 0x2 PUSH0 SWAP1 SLOAD SWAP1 PUSH2 0x100 EXP SWAP1 DIV PUSH20 0xFFFFFFFFFFFFFFFFFFFFFFFFFFFFFFFFFFFFFFFF AND PUSH20 0xFFFFFFFFFFFFFFFFFFFFFFFFFFFFFFFFFFFFFFFF AND PUSH4 0xA9059CBB PUSH1 0x4 PUSH0 SWAP1 SLOAD SWAP1 PUSH2 0x100 EXP SWAP1 DIV PUSH20 0xFFFFFFFFFFFFFFFFFFFFFFFFFFFFFFFFFFFFFFFF AND DUP4 PUSH1 0x40 MLOAD DUP4 PUSH4 0xFFFFFFFF AND PUSH1 0xE0 SHL DUP2 MSTORE PUSH1 0x4 ADD PUSH2 0x851 SWAP3 SWAP2 SWAP1 PUSH2 0x1829 JUMP JUMPDEST PUSH1 0x20 PUSH1 0x40 MLOAD DUP1 DUP4 SUB DUP2 PUSH0 DUP8 GAS CALL ISZERO DUP1 ISZERO PUSH2 0x86D JUMPI RETURNDATASIZE PUSH0 DUP1 RETURNDATACOPY RETURNDATASIZE PUSH0 REVERT JUMPDEST POP POP POP POP PUSH1 0x40 MLOAD RETURNDATASIZE PUSH1 0x1F NOT PUSH1 0x1F DUP3 ADD AND DUP3 ADD DUP1 PUSH1 0x40 MSTORE POP DUP2 ADD SWAP1 PUSH2 0x891 SWAP2 SWAP1 PUSH2 0x187A JUMP JUMPDEST PUSH2 0x8D0 JUMPI PUSH1 0x40 MLOAD PUSH32 0x8C379A000000000000000000000000000000000000000000000000000000000 DUP2 MSTORE PUSH1 0x4 ADD PUSH2 0x8C7 SWAP1 PUSH2 0x1957 JUMP JUMPDEST PUSH1 0x40 MLOAD DUP1 SWAP2 SUB SWAP1 REVERT JUMPDEST JUMPDEST JUMPDEST CALLER PUSH20 0xFFFFFFFFFFFFFFFFFFFFFFFFFFFFFFFFFFFFFFFF AND DUP3 PUSH20 0xFFFFFFFFFFFFFFFFFFFFFFFFFFFFFFFFFFFFFFFF AND PUSH32 0x879F92DDED0F26B83C3E00B12E0395DC72CFC3077343D1854ED6988EDD1F9096 DUP4 PUSH1 0x40 MLOAD PUSH2 0x92F SWAP2 SWAP1 PUSH2 0x14B5 JUMP JUMPDEST PUSH1 0x40 MLOAD DUP1 SWAP2 SUB SWAP1 LOG3 POP PUSH2 0x940 PUSH2 0x136B JUMP JUMPDEST POP JUMP JUMPDEST PUSH1 0x6 SLOAD DUP2 JUMP JUMPDEST PUSH1 0x9 PUSH1 0x2 SWAP1 SLOAD SWAP1 PUSH2 0x100 EXP SWAP1 DIV PUSH1 0xFF AND DUP2 JUMP JUMPDEST PUSH1 0x2 PUSH0 SWAP1 SLOAD SWAP1 PUSH2 0x100 EXP SWAP1 DIV PUSH20 0xFFFFFFFFFFFFFFFFFFFFFFFFFFFFFFFFFFFFFFFF AND DUP2 JUMP JUMPDEST PUSH1 0x4 PUSH0 SWAP1 SLOAD SWAP1 PUSH2 0x100 EXP SWAP1 DIV PUSH20 0xFFFFFFFFFFFFFFFFFFFFFFFFFFFFFFFFFFFFFFFF AND DUP2 JUMP JUMPDEST PUSH1 0x7 SLOAD DUP2 JUMP JUMPDEST PUSH1 0x3 PUSH0 SWAP1 SLOAD SWAP1 PUSH2 0x100 EXP SWAP1 DIV PUSH20 0xFFFFFFFFFFFFFFFFFFFFFFFFFFFFFFFFFFFFFFFF AND PUSH20 0xFFFFFFFFFFFFFFFFFFFFFFFFFFFFFFFFFFFFFFFF AND CALLER PUSH20 0xFFFFFFFFFFFFFFFFFFFFFFFFFFFFFFFFFFFFFFFF AND EQ PUSH2 0xA3B JUMPI PUSH1 0x40 MLOAD PUSH32 0x8C379A000000000000000000000000000000000000000000000000000000000 DUP2 MSTORE PUSH1 0x4 ADD PUSH2 0xA32 SWAP1 PUSH2 0x19BF JUMP JUMPDEST PUSH1 0x40 MLOAD DUP1 SWAP2 SUB SWAP1 REVERT JUMPDEST PUSH1 0x7 SLOAD TIMESTAMP LT PUSH2 0xA7F JUMPI PUSH1 0x40 MLOAD PUSH32 0x8C379A000000000000000000000000000000000000000000000000000000000 DUP2 MSTORE PUSH1 0x4 ADD PUSH2 0xA76 SWAP1 PUSH2 0x1A27 JUMP JUMPDEST PUSH1 0x40 MLOAD DUP1 SWAP2 SUB SWAP1 REVERT JUMPDEST PUSH1 0x7 SLOAD DUP2 GT PUSH2 0xAC3 JUMPI PUSH1 0x40 MLOAD PUSH32 0x8C379A000000000000000000000000000000000000000000000000000000000 DUP2 MSTORE PUSH1 0x4 ADD PUSH2 0xABA SWAP1 PUSH2 0x1AB5 JUMP JUMPDEST PUSH1 0x40 MLOAD DUP1 SWAP2 SUB SWAP1 REVERT JUMPDEST DUP1 PUSH1 0x7 DUP2 SWAP1 SSTORE POP PUSH32 0xC7F2746AEFC0D137A95DF385581A90D8B73240B3E6724F8ECB10B58E88F0FB8B DUP2 PUSH1 0x40 MLOAD PUSH2 0xAF9 SWAP2 SWAP1 PUSH2 0x14B5 JUMP JUMPDEST PUSH1 0x40 MLOAD DUP1 SWAP2 SUB SWAP1 LOG1 POP JUMP JUMPDEST PUSH1 0x7 SLOAD TIMESTAMP LT PUSH2 0xB48 JUMPI PUSH1 0x40 MLOAD PUSH32 0x8C379A000000000000000000000000000000000000000000000000000000000 DUP2 MSTORE PUSH1 0x4 ADD PUSH2 0xB3F SWAP1 PUSH2 0x1A27 JUMP JUMPDEST PUSH1 0x40 MLOAD DUP1 SWAP2 SUB SWAP1 REVERT JUMPDEST PUSH0 PUSH1 0x9 PUSH0 SWAP1 SLOAD SWAP1 PUSH2 0x100 EXP SWAP1 DIV PUSH1 0xFF AND PUSH1 0xFF AND EQ PUSH2 0xB9B JUMPI PUSH1 0x40 MLOAD PUSH32 0x8C379A000000000000000000000000000000000000000000000000000000000 DUP2 MSTORE PUSH1 0x4 ADD PUSH2 0xB92 SWAP1 PUSH2 0x1694 JUMP JUMPDEST PUSH1 0x40 MLOAD DUP1 SWAP2 SUB SWAP1 REVERT JUMPDEST PUSH2 0xBA3 PUSH2 0x131E JUMP JUMPDEST PUSH1 0x3 PUSH0 SWAP1 SLOAD SWAP1 PUSH2 0x100 EXP SWAP1 DIV PUSH20 0xFFFFFFFFFFFFFFFFFFFFFFFFFFFFFFFFFFFFFFFF AND PUSH20 0xFFFFFFFFFFFFFFFFFFFFFFFFFFFFFFFFFFFFFFFF AND CALLER PUSH20 0xFFFFFFFFFFFFFFFFFFFFFFFFFFFFFFFFFFFFFFFF AND SUB PUSH2 0xCFC JUMPI PUSH1 0x1 PUSH0 SWAP1 SLOAD SWAP1 PUSH2 0x100 EXP SWAP1 DIV PUSH20 0xFFFFFFFFFFFFFFFFFFFFFFFFFFFFFFFFFFFFFFFF AND PUSH20 0xFFFFFFFFFFFFFFFFFFFFFFFFFFFFFFFFFFFFFFFF AND PUSH4 0x23B872DD PUSH1 0x3 PUSH0 SWAP1 SLOAD SWAP1 PUSH2 0x100 EXP SWAP1 DIV PUSH20 0xFFFFFFFFFFFFFFFFFFFFFFFFFFFFFFFFFFFFFFFF AND ADDRESS PUSH1 0x5 SLOAD PUSH1 0x40 MLOAD DUP5 PUSH4 0xFFFFFFFF AND PUSH1 0xE0 SHL DUP2 MSTORE PUSH1 0x4 ADD PUSH2 0xC78 SWAP4 SWAP3 SWAP2 SWAP1 PUSH2 0x1AD3 JUMP JUMPDEST PUSH1 0x20 PUSH1 0x40 MLOAD DUP1 DUP4 SUB DUP2 PUSH0 DUP8 GAS CALL ISZERO DUP1 ISZERO PUSH2 0xC94 JUMPI RETURNDATASIZE PUSH0 DUP1 RETURNDATACOPY RETURNDATASIZE PUSH0 REVERT JUMPDEST POP POP POP POP PUSH1 0x40 MLOAD RETURNDATASIZE PUSH1 0x1F NOT PUSH1 0x1F DUP3 ADD AND DUP3 ADD DUP1 PUSH1 0x40 MSTORE POP DUP2 ADD SWAP1 PUSH2 0xCB8 SWAP2 SWAP1 PUSH2 0x187A JUMP JUMPDEST PUSH2 0xCF7 JUMPI PUSH1 0x40 MLOAD PUSH32 0x8C379A000000000000000000000000000000000000000000000000000000000 DUP2 MSTORE PUSH1 0x4 ADD PUSH2 0xCEE SWAP1 PUSH2 0x18EF JUMP JUMPDEST PUSH1 0x40 MLOAD DUP1 SWAP2 SUB SWAP1 REVERT JUMPDEST PUSH2 0xE91 JUMP JUMPDEST PUSH1 0x4 PUSH0 SWAP1 SLOAD SWAP1 PUSH2 0x100 EXP SWAP1 DIV PUSH20 0xFFFFFFFFFFFFFFFFFFFFFFFFFFFFFFFFFFFFFFFF AND PUSH20 0xFFFFFFFFFFFFFFFFFFFFFFFFFFFFFFFFFFFFFFFF AND CALLER PUSH20 0xFFFFFFFFFFFFFFFFFFFFFFFFFFFFFFFFFFFFFFFF AND SUB PUSH2 0xE55 JUMPI PUSH1 0x2 PUSH0 SWAP1 SLOAD SWAP1 PUSH2 0x100 EXP SWAP1 DIV PUSH20 0xFFFFFFFFFFFFFFFFFFFFFFFFFFFFFFFFFFFFFFFF AND PUSH20 0xFFFFFFFFFFFFFFFFFFFFFFFFFFFFFFFFFFFFFFFF AND PUSH4 0x23B872DD PUSH1 0x4 PUSH0 SWAP1 SLOAD SWAP1 PUSH2 0x100 EXP SWAP1 DIV PUSH20 0xFFFFFFFFFFFFFFFFFFFFFFFFFFFFFFFFFFFFFFFF AND ADDRESS PUSH1 0x6 SLOAD PUSH1 0x40 MLOAD DUP5 PUSH4 0xFFFFFFFF AND PUSH1 0xE0 SHL DUP2 MSTORE PUSH1 0x4 ADD PUSH2 0xDD1 SWAP4 SWAP3 SWAP2 SWAP1 PUSH2 0x1AD3 JUMP JUMPDEST PUSH1 0x20 PUSH1 0x40 MLOAD DUP1 DUP4 SUB DUP2 PUSH0 DUP8 GAS CALL ISZERO DUP1 ISZERO PUSH2 0xDED JUMPI RETURNDATASIZE PUSH0 DUP1 RETURNDATACOPY RETURNDATASIZE PUSH0 REVERT JUMPDEST POP POP POP POP PUSH1 0x40 MLOAD RETURNDATASIZE PUSH1 0x1F NOT PUSH1 0x1F DUP3 ADD AND DUP3 ADD DUP1 PUSH1 0x40 MSTORE POP DUP2 ADD SWAP1 PUSH2 0xE11 SWAP2 SWAP1 PUSH2 0x187A JUMP JUMPDEST PUSH2 0xE50 JUMPI PUSH1 0x40 MLOAD PUSH32 0x8C379A000000000000000000000000000000000000000000000000000000000 DUP2 MSTORE PUSH1 0x4 ADD PUSH2 0xE47 SWAP1 PUSH2 0x1957 JUMP JUMPDEST PUSH1 0x40 MLOAD DUP1 SWAP2 SUB SWAP1 REVERT JUMPDEST PUSH2 0xE90 JUMP JUMPDEST PUSH1 0x40 MLOAD PUSH32 0x8C379A000000000000000000000000000000000000000000000000000000000 DUP2 MSTORE PUSH1 0x4 ADD PUSH2 0xE87 SWAP1 PUSH2 0x19BF JUMP JUMPDEST PUSH1 0x40 MLOAD DUP1 SWAP2 SUB SWAP1 REVERT JUMPDEST JUMPDEST PUSH1 0x5 SLOAD PUSH1 0x1 PUSH0 SWAP1 SLOAD SWAP1 PUSH2 0x100 EXP SWAP1 DIV PUSH20 0xFFFFFFFFFFFFFFFFFFFFFFFFFFFFFFFFFFFFFFFF AND PUSH20 0xFFFFFFFFFFFFFFFFFFFFFFFFFFFFFFFFFFFFFFFF AND PUSH4 0x70A08231 ADDRESS PUSH1 0x40 MLOAD DUP3 PUSH4 0xFFFFFFFF AND PUSH1 0xE0 SHL DUP2 MSTORE PUSH1 0x4 ADD PUSH2 0xEEE SWAP2 SWAP1 PUSH2 0x142B JUMP JUMPDEST PUSH1 0x20 PUSH1 0x40 MLOAD DUP1 DUP4 SUB DUP2 DUP7 GAS STATICCALL ISZERO DUP1 ISZERO PUSH2 0xF09 JUMPI RETURNDATASIZE PUSH0 DUP1 RETURNDATACOPY RETURNDATASIZE PUSH0 REVERT JUMPDEST POP POP POP POP PUSH1 0x40 MLOAD RETURNDATASIZE PUSH1 0x1F NOT PUSH1 0x1F DUP3 ADD AND DUP3 ADD DUP1 PUSH1 0x40 MSTORE POP DUP2 ADD SWAP1 PUSH2 0xF2D SWAP2 SWAP1 PUSH2 0x1796 JUMP JUMPDEST LT ISZERO DUP1 ISZERO PUSH2 0xFD5 JUMPI POP PUSH1 0x6 SLOAD PUSH1 0x2 PUSH0 SWAP1 SLOAD SWAP1 PUSH2 0x100 EXP SWAP1 DIV PUSH20 0xFFFFFFFFFFFFFFFFFFFFFFFFFFFFFFFFFFFFFFFF AND PUSH20 0xFFFFFFFFFFFFFFFFFFFFFFFFFFFFFFFFFFFFFFFF AND PUSH4 0x70A08231 ADDRESS PUSH1 0x40 MLOAD DUP3 PUSH4 0xFFFFFFFF AND PUSH1 0xE0 SHL DUP2 MSTORE PUSH1 0x4 ADD PUSH2 0xF93 SWAP2 SWAP1 PUSH2 0x142B JUMP JUMPDEST PUSH1 0x20 PUSH1 0x40 MLOAD DUP1 DUP4 SUB DUP2 DUP7 GAS STATICCALL ISZERO DUP1 ISZERO PUSH2 0xFAE JUMPI RETURNDATASIZE PUSH0 DUP1 RETURNDATACOPY RETURNDATASIZE PUSH0 REVERT JUMPDEST POP POP POP POP PUSH1 0x40 MLOAD RETURNDATASIZE PUSH1 0x1F NOT PUSH1 0x1F DUP3 ADD AND DUP3 ADD DUP1 PUSH1 0x40 MSTORE POP DUP2 ADD SWAP1 PUSH2 0xFD2 SWAP2 SWAP1 PUSH2 0x1796 JUMP JUMPDEST LT ISZERO JUMPDEST ISZERO PUSH2 0x10D8 JUMPI PUSH1 0x1 PUSH1 0x9 PUSH1 0x2 PUSH2 0x100 EXP DUP2 SLOAD DUP2 PUSH1 0xFF MUL NOT AND SWAP1 DUP4 PUSH1 0x2 DUP2 GT ISZERO PUSH2 0x1000 JUMPI PUSH2 0xFFF PUSH2 0x14CE JUMP JUMPDEST JUMPDEST MUL OR SWAP1 SSTORE POP PUSH1 0x1 PUSH1 0x9 PUSH0 PUSH2 0x100 EXP DUP2 SLOAD DUP2 PUSH1 0xFF MUL NOT AND SWAP1 DUP4 PUSH1 0xFF AND MUL OR SWAP1 SSTORE POP PUSH1 0x1 PUSH1 0x9 PUSH1 0x1 PUSH2 0x100 EXP DUP2 SLOAD DUP2 PUSH1 0xFF MUL NOT AND SWAP1 DUP4 ISZERO ISZERO MUL OR SWAP1 SSTORE POP PUSH1 0x4 PUSH0 SWAP1 SLOAD SWAP1 PUSH2 0x100 EXP SWAP1 DIV PUSH20 0xFFFFFFFFFFFFFFFFFFFFFFFFFFFFFFFFFFFFFFFF AND PUSH20 0xFFFFFFFFFFFFFFFFFFFFFFFFFFFFFFFFFFFFFFFF AND PUSH1 0x3 PUSH0 SWAP1 SLOAD SWAP1 PUSH2 0x100 EXP SWAP1 DIV PUSH20 0xFFFFFFFFFFFFFFFFFFFFFFFFFFFFFFFFFFFFFFFF AND PUSH20 0xFFFFFFFFFFFFFFFFFFFFFFFFFFFFFFFFFFFFFFFF AND PUSH32 0x5878C0A795154A8AA084D028E758E18FCAA2ABDABDBA704774A01F35E105FF67 PUSH1 0x40 MLOAD PUSH1 0x40 MLOAD DUP1 SWAP2 SUB SWAP1 LOG3 JUMPDEST PUSH2 0x10E0 PUSH2 0x136B JUMP JUMPDEST JUMP JUMPDEST PUSH1 0x8 SLOAD DUP2 JUMP JUMPDEST PUSH1 0x7 SLOAD TIMESTAMP LT ISZERO PUSH2 0x112D JUMPI PUSH1 0x40 MLOAD PUSH32 0x8C379A000000000000000000000000000000000000000000000000000000000 DUP2 MSTORE PUSH1 0x4 ADD PUSH2 0x1124 SWAP1 PUSH2 0x162C JUMP JUMPDEST PUSH1 0x40 MLOAD DUP1 SWAP2 SUB SWAP1 REVERT JUMPDEST PUSH1 0x8 SLOAD PUSH1 0x7 SLOAD PUSH2 0x113D SWAP2 SWAP1 PUSH2 0x1B35 JUMP JUMPDEST TIMESTAMP LT PUSH2 0x117E JUMPI PUSH1 0x40 MLOAD PUSH32 0x8C379A000000000000000000000000000000000000000000000000000000000 DUP2 MSTORE PUSH1 0x4 ADD PUSH2 0x1175 SWAP1 PUSH2 0x1BB2 JUMP JUMPDEST PUSH1 0x40 MLOAD DUP1 SWAP2 SUB SWAP1 REVERT JUMPDEST PUSH0 PUSH1 0x9 PUSH0 SWAP1 SLOAD SWAP1 PUSH2 0x100 EXP SWAP1 DIV PUSH1 0xFF AND PUSH1 0xFF AND EQ PUSH2 0x11D1 JUMPI PUSH1 0x40 MLOAD PUSH32 0x8C379A000000000000000000000000000000000000000000000000000000000 DUP2 MSTORE PUSH1 0x4 ADD PUSH2 0x11C8 SWAP1 PUSH2 0x1694 JUMP JUMPDEST PUSH1 0x40 MLOAD DUP1 SWAP2 SUB SWAP1 REVERT JUMPDEST PUSH2 0x11D9 PUSH2 0x131E JUMP JUMPDEST PUSH1 0x2 PUSH1 0x9 PUSH1 0x2 PUSH2 0x100 EXP DUP2 SLOAD DUP2 PUSH1 0xFF MUL NOT AND SWAP1 DUP4 PUSH1 0x2 DUP2 GT ISZERO PUSH2 0x11FF JUMPI PUSH2 0x11FE PUSH2 0x14CE JUMP JUMPDEST JUMPDEST MUL OR SWAP1 SSTORE POP PUSH1 0x1 PUSH1 0x9 PUSH0 PUSH2 0x100 EXP DUP2 SLOAD DUP2 PUSH1 0xFF MUL NOT AND SWAP1 DUP4 PUSH1 0xFF AND MUL OR SWAP1 SSTORE POP PUSH1 0x1 PUSH1 0x9 PUSH1 0x1 PUSH2 0x100 EXP DUP2 SLOAD DUP2 PUSH1 0xFF MUL NOT AND SWAP1 DUP4 ISZERO ISZERO MUL OR SWAP1 SSTORE POP PUSH1 0x4 PUSH0 SWAP1 SLOAD SWAP1 PUSH2 0x100 EXP SWAP1 DIV PUSH20 0xFFFFFFFFFFFFFFFFFFFFFFFFFFFFFFFFFFFFFFFF AND PUSH20 0xFFFFFFFFFFFFFFFFFFFFFFFFFFFFFFFFFFFFFFFF AND PUSH1 0x3 PUSH0 SWAP1 SLOAD SWAP1 PUSH2 0x100 EXP SWAP1 DIV PUSH20 0xFFFFFFFFFFFFFFFFFFFFFFFFFFFFFFFFFFFFFFFF AND PUSH20 0xFFFFFFFFFFFFFFFFFFFFFFFFFFFFFFFFFFFFFFFF AND PUSH32 0xA431E31006BA6BA15DFF355126708BECFE5D1C60D1B1E171C1BD7961DBB1D9B5 PUSH1 0x40 MLOAD PUSH1 0x40 MLOAD DUP1 SWAP2 SUB SWAP1 LOG3 PUSH2 0x12DE PUSH2 0x136B JUMP JUMPDEST JUMP JUMPDEST PUSH1 0x1 PUSH0 SWAP1 SLOAD SWAP1 PUSH2 0x100 EXP SWAP1 DIV PUSH20 0xFFFFFFFFFFFFFFFFFFFFFFFFFFFFFFFFFFFFFFFF AND DUP2 JUMP JUMPDEST PUSH1 0x5 SLOAD DUP2 JUMP JUMPDEST PUSH1 0x9 PUSH1 0x1 SWAP1 SLOAD SWAP1 PUSH2 0x100 EXP SWAP1 DIV PUSH1 0xFF AND DUP2 JUMP JUMPDEST PUSH1 0x2 PUSH0 SLOAD SUB PUSH2 0x1362 JUMPI PUSH1 0x40 MLOAD PUSH32 0x8C379A000000000000000000000000000000000000000000000000000000000 DUP2 MSTORE PUSH1 0x4 ADD PUSH2 0x1359 SWAP1 PUSH2 0x1C1A JUMP JUMPDEST PUSH1 0x40 MLOAD DUP1 SWAP2 SUB SWAP1 REVERT JUMPDEST PUSH1 0x2 PUSH0 DUP2 SWAP1 SSTORE POP JUMP JUMPDEST PUSH1 0x1 PUSH0 DUP2 SWAP1 SSTORE POP JUMP JUMPDEST PUSH0 DUP3 DUP3 MSTORE PUSH1 0x20 DUP3 ADD SWAP1 POP SWAP3 SWAP2 POP POP JUMP JUMPDEST PUSH32 0x4E6F20455448207472616E736665727320616C6C6F7765640000000000000000 PUSH0 DUP3 ADD MSTORE POP JUMP JUMPDEST PUSH0 PUSH2 0x13B8 PUSH1 0x18 DUP4 PUSH2 0x1374 JUMP JUMPDEST SWAP2 POP PUSH2 0x13C3 DUP3 PUSH2 0x1384 JUMP JUMPDEST PUSH1 0x20 DUP3 ADD SWAP1 POP SWAP2 SWAP1 POP JUMP JUMPDEST PUSH0 PUSH1 0x20 DUP3 ADD SWAP1 POP DUP2 DUP2 SUB PUSH0 DUP4 ADD MSTORE PUSH2 0x13E5 DUP2 PUSH2 0x13AC JUMP JUMPDEST SWAP1 POP SWAP2 SWAP1 POP JUMP JUMPDEST PUSH0 PUSH20 0xFFFFFFFFFFFFFFFFFFFFFFFFFFFFFFFFFFFFFFFF DUP3 AND SWAP1 POP SWAP2 SWAP1 POP JUMP JUMPDEST PUSH0 PUSH2 0x1415 DUP3 PUSH2 0x13EC JUMP JUMPDEST SWAP1 POP SWAP2 SWAP1 POP JUMP JUMPDEST PUSH2 0x1425 DUP2 PUSH2 0x140B JUMP JUMPDEST DUP3 MSTORE POP POP JUMP JUMPDEST PUSH0 PUSH1 0x20 DUP3 ADD SWAP1 POP PUSH2 0x143E PUSH0 DUP4 ADD DUP5 PUSH2 0x141C JUMP JUMPDEST SWAP3 SWAP2 POP POP JUMP JUMPDEST PUSH0 DUP1 REVERT JUMPDEST PUSH2 0x1451 DUP2 PUSH2 0x140B JUMP JUMPDEST DUP2 EQ PUSH2 0x145B JUMPI PUSH0 DUP1 REVERT JUMPDEST POP JUMP JUMPDEST PUSH0 DUP2 CALLDATALOAD SWAP1 POP PUSH2 0x146C DUP2 PUSH2 0x1448 JUMP JUMPDEST SWAP3 SWAP2 POP POP JUMP JUMPDEST PUSH0 PUSH1 0x20 DUP3 DUP5 SUB SLT ISZERO PUSH2 0x1487 JUMPI PUSH2 0x1486 PUSH2 0x1444 JUMP JUMPDEST JUMPDEST PUSH0 PUSH2 0x1494 DUP5 DUP3 DUP6 ADD PUSH2 0x145E JUMP JUMPDEST SWAP2 POP POP SWAP3 SWAP2 POP POP JUMP JUMPDEST PUSH0 DUP2 SWAP1 POP SWAP2 SWAP1 POP JUMP JUMPDEST PUSH2 0x14AF DUP2 PUSH2 0x149D JUMP JUMPDEST DUP3 MSTORE POP POP JUMP JUMPDEST PUSH0 PUSH1 0x20 DUP3 ADD SWAP1 POP PUSH2 0x14C8 PUSH0 DUP4 ADD DUP5 PUSH2 0x14A6 JUMP JUMPDEST SWAP3 SWAP2 POP POP JUMP JUMPDEST PUSH32 0x4E487B7100000000000000000000000000000000000000000000000000000000 PUSH0 MSTORE PUSH1 0x21 PUSH1 0x4 MSTORE PUSH1 0x24 PUSH0 REVERT JUMPDEST PUSH1 0x3 DUP2 LT PUSH2 0x150C JUMPI PUSH2 0x150B PUSH2 0x14CE JUMP JUMPDEST JUMPDEST POP JUMP JUMPDEST PUSH0 DUP2 SWAP1 POP PUSH2 0x151C DUP3 PUSH2 0x14FB JUMP JUMPDEST SWAP2 SWAP1 POP JUMP JUMPDEST PUSH0 PUSH2 0x152B DUP3 PUSH2 0x150F JUMP JUMPDEST SWAP1 POP SWAP2 SWAP1 POP JUMP JUMPDEST PUSH2 0x153B DUP2 PUSH2 0x1521 JUMP JUMPDEST DUP3 MSTORE POP POP JUMP JUMPDEST PUSH0 PUSH1 0x20 DUP3 ADD SWAP1 POP PUSH2 0x1554 PUSH0 DUP4 ADD DUP5 PUSH2 0x1532 JUMP JUMPDEST SWAP3 SWAP2 POP POP JUMP JUMPDEST PUSH2 0x1563 DUP2 PUSH2 0x149D JUMP JUMPDEST DUP2 EQ PUSH2 0x156D JUMPI PUSH0 DUP1 REVERT JUMPDEST POP JUMP JUMPDEST PUSH0 DUP2 CALLDATALOAD SWAP1 POP PUSH2 0x157E DUP2 PUSH2 0x155A JUMP JUMPDEST SWAP3 SWAP2 POP POP JUMP JUMPDEST PUSH0 PUSH1 0x20 DUP3 DUP5 SUB SLT ISZERO PUSH2 0x1599 JUMPI PUSH2 0x1598 PUSH2 0x1444 JUMP JUMPDEST JUMPDEST PUSH0 PUSH2 0x15A6 DUP5 DUP3 DUP6 ADD PUSH2 0x1570 JUMP JUMPDEST SWAP2 POP POP SWAP3 SWAP2 POP POP JUMP JUMPDEST PUSH0 DUP2 ISZERO ISZERO SWAP1 POP SWAP2 SWAP1 POP JUMP JUMPDEST PUSH2 0x15C3 DUP2 PUSH2 0x15AF JUMP JUMPDEST DUP3 MSTORE POP POP JUMP JUMPDEST PUSH0 PUSH1 0x20 DUP3 ADD SWAP1 POP PUSH2 0x15DC PUSH0 DUP4 ADD DUP5 PUSH2 0x15BA JUMP JUMPDEST SWAP3 SWAP2 POP POP JUMP JUMPDEST PUSH32 0x5377617020646561646C696E65206E6F74207265616368656400000000000000 PUSH0 DUP3 ADD MSTORE POP JUMP JUMPDEST PUSH0 PUSH2 0x1616 PUSH1 0x19 DUP4 PUSH2 0x1374 JUMP JUMPDEST SWAP2 POP PUSH2 0x1621 DUP3 PUSH2 0x15E2 JUMP JUMPDEST PUSH1 0x20 DUP3 ADD SWAP1 POP SWAP2 SWAP1 POP JUMP JUMPDEST PUSH0 PUSH1 0x20 DUP3 ADD SWAP1 POP DUP2 DUP2 SUB PUSH0 DUP4 ADD MSTORE PUSH2 0x1643 DUP2 PUSH2 0x160A JUMP JUMPDEST SWAP1 POP SWAP2 SWAP1 POP JUMP JUMPDEST PUSH32 0x5377617020616C726561647920636F6D706C6574656400000000000000000000 PUSH0 DUP3 ADD MSTORE POP JUMP JUMPDEST PUSH0 PUSH2 0x167E PUSH1 0x16 DUP4 PUSH2 0x1374 JUMP JUMPDEST SWAP2 POP PUSH2 0x1689 DUP3 PUSH2 0x164A JUMP JUMPDEST PUSH1 0x20 DUP3 ADD SWAP1 POP SWAP2 SWAP1 POP JUMP JUMPDEST PUSH0 PUSH1 0x20 DUP3 ADD SWAP1 POP DUP2 DUP2 SUB PUSH0 DUP4 ADD MSTORE PUSH2 0x16AB DUP2 PUSH2 0x1672 JUMP JUMPDEST SWAP1 POP SWAP2 SWAP1 POP JUMP JUMPDEST PUSH32 0x53776170206E6F74206578706972656400000000000000000000000000000000 PUSH0 DUP3 ADD MSTORE POP JUMP JUMPDEST PUSH0 PUSH2 0x16E6 PUSH1 0x10 DUP4 PUSH2 0x1374 JUMP JUMPDEST SWAP2 POP PUSH2 0x16F1 DUP3 PUSH2 0x16B2 JUMP JUMPDEST PUSH1 0x20 DUP3 ADD SWAP1 POP SWAP2 SWAP1 POP JUMP JUMPDEST PUSH0 PUSH1 0x20 DUP3 ADD SWAP1 POP DUP2 DUP2 SUB PUSH0 DUP4 ADD MSTORE PUSH2 0x1713 DUP2 PUSH2 0x16DA JUMP JUMPDEST SWAP1 POP SWAP2 SWAP1 POP JUMP JUMPDEST PUSH32 0x496E76616C696420746F6B656E20666F72207265636F76657279000000000000 PUSH0 DUP3 ADD MSTORE POP JUMP JUMPDEST PUSH0 PUSH2 0x174E PUSH1 0x1A DUP4 PUSH2 0x1374 JUMP JUMPDEST SWAP2 POP PUSH2 0x1759 DUP3 PUSH2 0x171A JUMP JUMPDEST PUSH1 0x20 DUP3 ADD SWAP1 POP SWAP2 SWAP1 POP JUMP JUMPDEST PUSH0 PUSH1 0x20 DUP3 ADD SWAP1 POP DUP2 DUP2 SUB PUSH0 DUP4 ADD MSTORE PUSH2 0x177B DUP2 PUSH2 0x1742 JUMP JUMPDEST SWAP1 POP SWAP2 SWAP1 POP JUMP JUMPDEST PUSH0 DUP2 MLOAD SWAP1 POP PUSH2 0x1790 DUP2 PUSH2 0x155A JUMP JUMPDEST SWAP3 SWAP2 POP POP JUMP JUMPDEST PUSH0 PUSH1 0x20 DUP3 DUP5 SUB SLT ISZERO PUSH2 0x17AB JUMPI PUSH2 0x17AA PUSH2 0x1444 JUMP JUMPDEST JUMPDEST PUSH0 PUSH2 0x17B8 DUP5 DUP3 DUP6 ADD PUSH2 0x1782 JUMP JUMPDEST SWAP2 POP POP SWAP3 SWAP2 POP POP JUMP JUMPDEST PUSH32 0x4E6F20746F6B656E7320746F207265636F766572000000000000000000000000 PUSH0 DUP3 ADD MSTORE POP JUMP JUMPDEST PUSH0 PUSH2 0x17F5 PUSH1 0x14 DUP4 PUSH2 0x1374 JUMP JUMPDEST SWAP2 POP PUSH2 0x1800 DUP3 PUSH2 0x17C1 JUMP JUMPDEST PUSH1 0x20 DUP3 ADD SWAP1 POP SWAP2 SWAP1 POP JUMP JUMPDEST PUSH0 PUSH1 0x20 DUP3 ADD SWAP1 POP DUP2 DUP2 SUB PUSH0 DUP4 ADD MSTORE PUSH2 0x1822 DUP2 PUSH2 0x17E9 JUMP JUMPDEST SWAP1 POP SWAP2 SWAP1 POP JUMP JUMPDEST PUSH0 PUSH1 0x40 DUP3 ADD SWAP1 POP PUSH2 0x183C PUSH0 DUP4 ADD DUP6 PUSH2 0x141C JUMP JUMPDEST PUSH2 0x1849 PUSH1 0x20 DUP4 ADD DUP5 PUSH2 0x14A6 JUMP JUMPDEST SWAP4 SWAP3 POP POP POP JUMP JUMPDEST PUSH2 0x1859 DUP2 PUSH2 0x15AF JUMP JUMPDEST DUP2 EQ PUSH2 0x1863 JUMPI PUSH0 DUP1 REVERT JUMPDEST POP JUMP JUMPDEST PUSH0 DUP2 MLOAD SWAP1 POP PUSH2 0x1874 DUP2 PUSH2 0x1850 JUMP JUMPDEST SWAP3 SWAP2 POP POP JUMP JUMPDEST PUSH0 PUSH1 0x20 DUP3 DUP5 SUB SLT ISZERO PUSH2 0x188F JUMPI PUSH2 0x188E PUSH2 0x1444 JUMP JUMPDEST JUMPDEST PUSH0 PUSH2 0x189C DUP5 DUP3 DUP6 ADD PUSH2 0x1866 JUMP JUMPDEST SWAP2 POP POP SWAP3 SWAP2 POP POP JUMP JUMPDEST PUSH32 0x546F6B656E31207472616E73666572206661696C656400000000000000000000 PUSH0 DUP3 ADD MSTORE POP JUMP JUMPDEST PUSH0 PUSH2 0x18D9 PUSH1 0x16 DUP4 PUSH2 0x1374 JUMP JUMPDEST SWAP2 POP PUSH2 0x18E4 DUP3 PUSH2 0x18A5 JUMP JUMPDEST PUSH1 0x20 DUP3 ADD SWAP1 POP SWAP2 SWAP1 POP JUMP JUMPDEST PUSH0 PUSH1 0x20 DUP3 ADD SWAP1 POP DUP2 DUP2 SUB PUSH0 DUP4 ADD MSTORE PUSH2 0x1906 DUP2 PUSH2 0x18CD JUMP JUMPDEST SWAP1 POP SWAP2 SWAP1 POP JUMP JUMPDEST PUSH32 0x546F6B656E32207472616E73666572206661696C656400000000000000000000 PUSH0 DUP3 ADD MSTORE POP JUMP JUMPDEST PUSH0 PUSH2 0x1941 PUSH1 0x16 DUP4 PUSH2 0x1374 JUMP JUMPDEST SWAP2 POP PUSH2 0x194C DUP3 PUSH2 0x190D JUMP JUMPDEST PUSH1 0x20 DUP3 ADD SWAP1 POP SWAP2 SWAP1 POP JUMP JUMPDEST PUSH0 PUSH1 0x20 DUP3 ADD SWAP1 POP DUP2 DUP2 SUB PUSH0 DUP4 ADD MSTORE PUSH2 0x196E DUP2 PUSH2 0x1935 JUMP JUMPDEST SWAP1 POP SWAP2 SWAP1 POP JUMP JUMPDEST PUSH32 0x4E6F7420617574686F72697A6564000000000000000000000000000000000000 PUSH0 DUP3 ADD MSTORE POP JUMP JUMPDEST PUSH0 PUSH2 0x19A9 PUSH1 0xE DUP4 PUSH2 0x1374 JUMP JUMPDEST SWAP2 POP PUSH2 0x19B4 DUP3 PUSH2 0x1975 JUMP JUMPDEST PUSH1 0x20 DUP3 ADD SWAP1 POP SWAP2 SWAP1 POP JUMP JUMPDEST PUSH0 PUSH1 0x20 DUP3 ADD SWAP1 POP DUP2 DUP2 SUB PUSH0 DUP4 ADD MSTORE PUSH2 0x19D6 DUP2 PUSH2 0x199D JUMP JUMPDEST SWAP1 POP SWAP2 SWAP1 POP JUMP JUMPDEST PUSH32 0x5377617020646561646C696E6520706173736564000000000000000000000000 PUSH0 DUP3 ADD MSTORE POP JUMP JUMPDEST PUSH0 PUSH2 0x1A11 PUSH1 0x14 DUP4 PUSH2 0x1374 JUMP JUMPDEST SWAP2 POP PUSH2 0x1A1C DUP3 PUSH2 0x19DD JUMP JUMPDEST PUSH1 0x20 DUP3 ADD SWAP1 POP SWAP2 SWAP1 POP JUMP JUMPDEST PUSH0 PUSH1 0x20 DUP3 ADD SWAP1 POP DUP2 DUP2 SUB PUSH0 DUP4 ADD MSTORE PUSH2 0x1A3E DUP2 PUSH2 0x1A05 JUMP JUMPDEST SWAP1 POP SWAP2 SWAP1 POP JUMP JUMPDEST PUSH32 0x4E657720646561646C696E65206D757374206265206C61746572207468616E20 PUSH0 DUP3 ADD MSTORE PUSH32 0x63757272656E7420646561646C696E6500000000000000000000000000000000 PUSH1 0x20 DUP3 ADD MSTORE POP JUMP JUMPDEST PUSH0 PUSH2 0x1A9F PUSH1 0x30 DUP4 PUSH2 0x1374 JUMP JUMPDEST SWAP2 POP PUSH2 0x1AAA DUP3 PUSH2 0x1A45 JUMP JUMPDEST PUSH1 0x40 DUP3 ADD SWAP1 POP SWAP2 SWAP1 POP JUMP JUMPDEST PUSH0 PUSH1 0x20 DUP3 ADD SWAP1 POP DUP2 DUP2 SUB PUSH0 DUP4 ADD MSTORE PUSH2 0x1ACC DUP2 PUSH2 0x1A93 JUMP JUMPDEST SWAP1 POP SWAP2 SWAP1 POP JUMP JUMPDEST PUSH0 PUSH1 0x60 DUP3 ADD SWAP1 POP PUSH2 0x1AE6 PUSH0 DUP4 ADD DUP7 PUSH2 0x141C JUMP JUMPDEST PUSH2 0x1AF3 PUSH1 0x20 DUP4 ADD DUP6 PUSH2 0x141C JUMP JUMPDEST PUSH2 0x1B00 PUSH1 0x40 DUP4 ADD DUP5 PUSH2 0x14A6 JUMP JUMPDEST SWAP5 SWAP4 POP POP POP POP JUMP JUMPDEST PUSH32 0x4E487B7100000000000000000000000000000000000000000000000000000000 PUSH0 MSTORE PUSH1 0x11 PUSH1 0x4 MSTORE PUSH1 0x24 PUSH0 REVERT JUMPDEST PUSH0 PUSH2 0x1B3F DUP3 PUSH2 0x149D JUMP JUMPDEST SWAP2 POP PUSH2 0x1B4A DUP4 PUSH2 0x149D JUMP JUMPDEST SWAP3 POP DUP3 DUP3 ADD SWAP1 POP DUP1 DUP3 GT ISZERO PUSH2 0x1B62 JUMPI PUSH2 0x1B61 PUSH2 0x1B08 JUMP JUMPDEST JUMPDEST SWAP3 SWAP2 POP POP JUMP JUMPDEST PUSH32 0x5377617020677261636520706572696F64207061737365640000000000000000 PUSH0 DUP3 ADD MSTORE POP JUMP JUMPDEST PUSH0 PUSH2 0x1B9C PUSH1 0x18 DUP4 PUSH2 0x1374 JUMP JUMPDEST SWAP2 POP PUSH2 0x1BA7 DUP3 PUSH2 0x1B68 JUMP JUMPDEST PUSH1 0x20 DUP3 ADD SWAP1 POP SWAP2 SWAP1 POP JUMP JUMPDEST PUSH0 PUSH1 0x20 DUP3 ADD SWAP1 POP DUP2 DUP2 SUB PUSH0 DUP4 ADD MSTORE PUSH2 0x1BC9 DUP2 PUSH2 0x1B90 JUMP JUMPDEST SWAP1 POP SWAP2 SWAP1 POP JUMP JUMPDEST PUSH32 0x5265656E7472616E637947756172643A207265656E7472616E742063616C6C00 PUSH0 DUP3 ADD MSTORE POP JUMP JUMPDEST PUSH0 PUSH2 0x1C04 PUSH1 0x1F DUP4 PUSH2 0x1374 JUMP JUMPDEST SWAP2 POP PUSH2 0x1C0F DUP3 PUSH2 0x1BD0 JUMP JUMPDEST PUSH1 0x20 DUP3 ADD SWAP1 POP SWAP2 SWAP1 POP JUMP JUMPDEST PUSH0 PUSH1 0x20 DUP3 ADD SWAP1 POP DUP2 DUP2 SUB PUSH0 DUP4 ADD MSTORE PUSH2 0x1C31 DUP2 PUSH2 0x1BF8 JUMP JUMPDEST SWAP1 POP SWAP2 SWAP1 POP JUMP INVALID LOG2 PUSH5 0x6970667358 0x22 SLT KECCAK256 EXTCODECOPY 0x2E PUSH0 EQ SLOAD DUP11 RETURN CALLDATALOAD JUMPI DUP15 PC 0xA6 STATICCALL PUSH21 0xD699F196FF7DD9ABD354E0E59742779962EA64736F PUSH13 0x634300081A0033000000000000 "
				},
				"gasEstimates": {
					"creation": {
						"codeDepositCost": "1455600",
						"executionCost": "infinite",
						"totalCost": "infinite"
					},
					"external": {
						"": "492",
						"amountToken1()": "2491",
						"amountToken2()": "2493",
						"approveSwap()": "infinite",
						"deadline()": "2514",
						"expireSwap()": "infinite",
						"extendDeadline(uint256)": "infinite",
						"gracePeriod()": "2492",
						"isCompleted()": "2605",
						"partyA()": "2532",
						"partyB()": "2575",
						"recoverTokens(address)": "infinite",
						"status()": "2628",
						"token1()": "2552",
						"token2()": "2553"
					},
					"internal": {
						"_safeApprove(contract IERC20,address,uint256)": "infinite"
					}
				},
				"methodIdentifiers": {
					"amountToken1()": "ee8c4aca",
					"amountToken2()": "1ae1661d",
					"approveSwap()": "9b18182a",
					"deadline()": "29dcb0cf",
					"expireSwap()": "b17242b5",
					"extendDeadline(uint256)": "389b7533",
					"gracePeriod()": "a06db7dc",
					"isCompleted()": "fa391c64",
					"partyA()": "10e1d8ca",
					"partyB()": "29040113",
					"recoverTokens(address)": "16114acd",
					"status()": "200d2ed2",
					"token1()": "d21220a7",
					"token2()": "25be124e"
				}
			},
			"storageLayout": {
				"storage": [
					{
						"astId": 10,
						"contract": "contracts/FunSwap.sol:FunSwap",
						"label": "_status",
						"offset": 0,
						"slot": "0",
						"type": "t_uint256"
					},
					{
						"astId": 152,
						"contract": "contracts/FunSwap.sol:FunSwap",
						"label": "token1",
						"offset": 0,
						"slot": "1",
						"type": "t_address"
					},
					{
						"astId": 155,
						"contract": "contracts/FunSwap.sol:FunSwap",
						"label": "token2",
						"offset": 0,
						"slot": "2",
						"type": "t_address"
					},
					{
						"astId": 158,
						"contract": "contracts/FunSwap.sol:FunSwap",
						"label": "partyA",
						"offset": 0,
						"slot": "3",
						"type": "t_address"
					},
					{
						"astId": 161,
						"contract": "contracts/FunSwap.sol:FunSwap",
						"label": "partyB",
						"offset": 0,
						"slot": "4",
						"type": "t_address"
					},
					{
						"astId": 164,
						"contract": "contracts/FunSwap.sol:FunSwap",
						"label": "amountToken1",
						"offset": 0,
						"slot": "5",
						"type": "t_uint256"
					},
					{
						"astId": 167,
						"contract": "contracts/FunSwap.sol:FunSwap",
						"label": "amountToken2",
						"offset": 0,
						"slot": "6",
						"type": "t_uint256"
					},
					{
						"astId": 170,
						"contract": "contracts/FunSwap.sol:FunSwap",
						"label": "deadline",
						"offset": 0,
						"slot": "7",
						"type": "t_uint256"
					},
					{
						"astId": 174,
						"contract": "contracts/FunSwap.sol:FunSwap",
						"label": "gracePeriod",
						"offset": 0,
						"slot": "8",
						"type": "t_uint256"
					},
					{
						"astId": 177,
						"contract": "contracts/FunSwap.sol:FunSwap",
						"label": "flags",
						"offset": 0,
						"slot": "9",
						"type": "t_uint8"
					},
					{
						"astId": 180,
						"contract": "contracts/FunSwap.sol:FunSwap",
						"label": "isCompleted",
						"offset": 1,
						"slot": "9",
						"type": "t_bool"
					},
					{
						"astId": 188,
						"contract": "contracts/FunSwap.sol:FunSwap",
						"label": "status",
						"offset": 2,
						"slot": "9",
						"type": "t_enum(SwapStatus)185"
					}
				],
				"types": {
					"t_address": {
						"encoding": "inplace",
						"label": "address",
						"numberOfBytes": "20"
					},
					"t_bool": {
						"encoding": "inplace",
						"label": "bool",
						"numberOfBytes": "1"
					},
					"t_enum(SwapStatus)185": {
						"encoding": "inplace",
						"label": "enum FunSwap.SwapStatus",
						"numberOfBytes": "1"
					},
					"t_uint256": {
						"encoding": "inplace",
						"label": "uint256",
						"numberOfBytes": "32"
					},
					"t_uint8": {
						"encoding": "inplace",
						"label": "uint8",
						"numberOfBytes": "1"
					}
				}
			},
			"userdoc": {
				"events": {
					"DeadlineExtended(uint256)": {
						"notice": "Emitted when the swap deadline is extended"
					},
					"SwapCompleted(address,address)": {
						"notice": "Emitted when the swap is completed"
					},
					"SwapExpired(address,address)": {
						"notice": "Emitted when the swap expires"
					},
					"SwapInitiated(address,address,uint256,uint256,uint256)": {
						"notice": "Emitted when the swap is initiated"
					},
					"TokenRecovered(address,address,uint256)": {
						"notice": "Emitted when tokens are recovered after expiration"
					}
				},
				"kind": "user",
				"methods": {
					"amountToken1()": {
						"notice": "The amount of Token A to be swapped"
					},
					"amountToken2()": {
						"notice": "The amount of Token B to be swapped"
					},
					"approveSwap()": {
						"notice": "Approves the swap of tokens between the parties"
					},
					"constructor": {
						"notice": "Constructor to initialize the contract with tokens, parties, and amounts"
					},
					"deadline()": {
						"notice": "The deadline by which the swap must be completed"
					},
					"expireSwap()": {
						"notice": "Expires the swap if the deadline has passed and neither party has completed the swap"
					},
					"extendDeadline(uint256)": {
						"notice": "Extends the deadline for the swap"
					},
					"gracePeriod()": {
						"notice": "A grace period after the deadline before the swap is considered expired"
					},
					"isCompleted()": {
						"notice": "Indicates whether the swap has been completed or not"
					},
					"partyA()": {
						"notice": "The address of party A (who owns Token A)"
					},
					"partyB()": {
						"notice": "The address of party B (who owns Token B)"
					},
					"recoverTokens(address)": {
						"notice": "Recovers tokens after the swap expires"
					},
					"token1()": {
						"notice": "The address of the first token in the swap (Token A)"
					},
					"token2()": {
						"notice": "The address of the second token in the swap (Token B)"
					}
				},
				"notice": "This contract allows two parties to swap tokens between each other with optional expiration handling",
				"version": 1
			}
		}
	}
}